{
	"contracts/NftArtworkToken.sol": {
		"NftArtworkToken": {
			"abi": [
				{
					"inputs": [],
					"stateMutability": "nonpayable",
					"type": "constructor"
				},
				{
					"inputs": [
						{
							"internalType": "address",
							"name": "owner",
							"type": "address"
						}
					],
					"name": "OwnableInvalidOwner",
					"type": "error"
				},
				{
					"inputs": [
						{
							"internalType": "address",
							"name": "account",
							"type": "address"
						}
					],
					"name": "OwnableUnauthorizedAccount",
					"type": "error"
				},
				{
					"anonymous": false,
					"inputs": [
						{
							"indexed": true,
							"internalType": "uint256",
							"name": "id",
							"type": "uint256"
						},
						{
							"indexed": false,
							"internalType": "string",
							"name": "title",
							"type": "string"
						},
						{
							"indexed": false,
							"internalType": "string",
							"name": "description",
							"type": "string"
						},
						{
							"indexed": false,
							"internalType": "string",
							"name": "creator",
							"type": "string"
						},
						{
							"indexed": true,
							"internalType": "address",
							"name": "owner",
							"type": "address"
						}
					],
					"name": "ArtworkRegistered",
					"type": "event"
				},
				{
					"anonymous": false,
					"inputs": [
						{
							"indexed": true,
							"internalType": "uint256",
							"name": "id",
							"type": "uint256"
						},
						{
							"indexed": true,
							"internalType": "address",
							"name": "previousOwner",
							"type": "address"
						},
						{
							"indexed": true,
							"internalType": "address",
							"name": "newOwner",
							"type": "address"
						}
					],
					"name": "OwnershipTransferred",
					"type": "event"
				},
				{
					"anonymous": false,
					"inputs": [
						{
							"indexed": true,
							"internalType": "address",
							"name": "previousOwner",
							"type": "address"
						},
						{
							"indexed": true,
							"internalType": "address",
							"name": "newOwner",
							"type": "address"
						}
					],
					"name": "OwnershipTransferred",
					"type": "event"
				},
				{
					"inputs": [
						{
							"internalType": "uint256",
							"name": "",
							"type": "uint256"
						}
					],
					"name": "artworks",
					"outputs": [
						{
							"internalType": "string",
							"name": "title",
							"type": "string"
						},
						{
							"internalType": "string",
							"name": "description",
							"type": "string"
						},
						{
							"internalType": "string",
							"name": "creator",
							"type": "string"
						},
						{
							"internalType": "uint256",
							"name": "timestamp",
							"type": "uint256"
						},
						{
							"internalType": "address",
							"name": "owner",
							"type": "address"
						}
					],
					"stateMutability": "view",
					"type": "function"
				},
				{
					"inputs": [
						{
							"internalType": "uint256",
							"name": "_id",
							"type": "uint256"
						}
					],
					"name": "getArtwork",
					"outputs": [
						{
							"internalType": "string",
							"name": "title",
							"type": "string"
						},
						{
							"internalType": "string",
							"name": "description",
							"type": "string"
						},
						{
							"internalType": "string",
							"name": "creator",
							"type": "string"
						},
						{
							"internalType": "uint256",
							"name": "timestamp",
							"type": "uint256"
						},
						{
							"internalType": "address",
							"name": "owner",
							"type": "address"
						}
					],
					"stateMutability": "view",
					"type": "function"
				},
				{
					"inputs": [],
					"name": "nextId",
					"outputs": [
						{
							"internalType": "uint256",
							"name": "",
							"type": "uint256"
						}
					],
					"stateMutability": "view",
					"type": "function"
				},
				{
					"inputs": [],
					"name": "owner",
					"outputs": [
						{
							"internalType": "address",
							"name": "",
							"type": "address"
						}
					],
					"stateMutability": "view",
					"type": "function"
				},
				{
					"inputs": [
						{
							"internalType": "string",
							"name": "_title",
							"type": "string"
						},
						{
							"internalType": "string",
							"name": "_description",
							"type": "string"
						},
						{
							"internalType": "string",
							"name": "_creator",
							"type": "string"
						}
					],
					"name": "registerArtwork",
					"outputs": [],
					"stateMutability": "nonpayable",
					"type": "function"
				},
				{
					"inputs": [],
					"name": "renounceOwnership",
					"outputs": [],
					"stateMutability": "nonpayable",
					"type": "function"
				},
				{
					"inputs": [
						{
							"internalType": "address",
							"name": "newOwner",
							"type": "address"
						}
					],
					"name": "transferContractOwnership",
					"outputs": [],
					"stateMutability": "nonpayable",
					"type": "function"
				},
				{
					"inputs": [
						{
							"internalType": "uint256",
							"name": "_id",
							"type": "uint256"
						},
						{
							"internalType": "address",
							"name": "_newOwner",
							"type": "address"
						}
					],
					"name": "transferOwnership",
					"outputs": [],
					"stateMutability": "nonpayable",
					"type": "function"
				},
				{
					"inputs": [
						{
							"internalType": "address",
							"name": "newOwner",
							"type": "address"
						}
					],
					"name": "transferOwnership",
					"outputs": [],
					"stateMutability": "nonpayable",
					"type": "function"
				}
			],
			"devdoc": {
				"errors": {
					"OwnableInvalidOwner(address)": [
						{
							"details": "The owner is not a valid owner account. (eg. `address(0)`)"
						}
					],
					"OwnableUnauthorizedAccount(address)": [
						{
							"details": "The caller account is not authorized to perform an operation."
						}
					]
				},
				"kind": "dev",
				"methods": {
					"owner()": {
						"details": "Returns the address of the current owner."
					},
					"renounceOwnership()": {
						"details": "Leaves the contract without owner. It will not be possible to call `onlyOwner` functions. Can only be called by the current owner. NOTE: Renouncing ownership will leave the contract without an owner, thereby disabling any functionality that is only available to the owner."
					},
					"transferOwnership(address)": {
						"details": "Transfers ownership of the contract to a new account (`newOwner`). Can only be called by the current owner."
					}
				},
				"version": 1
			},
			"evm": {
				"assembly": "    /* \"contracts/NftArtworkToken.sol\":118:3152  contract NftArtworkToken is Ownable(msg.sender) {... */\n  mstore(0x40, 0x80)\n    /* \"contracts/NftArtworkToken.sol\":922:1013  constructor()  {... */\n  callvalue\n  dup1\n  iszero\n  tag_1\n  jumpi\n  0x00\n  dup1\n  revert\ntag_1:\n  pop\n    /* \"contracts/NftArtworkToken.sol\":154:164  msg.sender */\n  caller\n    /* \"contracts/openzeppelin/contracts/access/Ownable.sol\":1297:1298  0 */\n  0x00\n    /* \"contracts/openzeppelin/contracts/access/Ownable.sol\":1273:1299  initialOwner == address(0) */\n  0xffffffffffffffffffffffffffffffffffffffff\n  and\n    /* \"contracts/openzeppelin/contracts/access/Ownable.sol\":1273:1285  initialOwner */\n  dup2\n    /* \"contracts/openzeppelin/contracts/access/Ownable.sol\":1273:1299  initialOwner == address(0) */\n  0xffffffffffffffffffffffffffffffffffffffff\n  and\n  sub\n    /* \"contracts/openzeppelin/contracts/access/Ownable.sol\":1269:1364  if (initialOwner == address(0)) {... */\n  tag_5\n  jumpi\n    /* \"contracts/openzeppelin/contracts/access/Ownable.sol\":1350:1351  0 */\n  0x00\n    /* \"contracts/openzeppelin/contracts/access/Ownable.sol\":1322:1353  OwnableInvalidOwner(address(0)) */\n  mload(0x40)\n  0x1e4fbdf700000000000000000000000000000000000000000000000000000000\n  dup2\n  mstore\n  0x04\n  add\n  tag_6\n  swap2\n  swap1\n  tag_7\n  jump\t// in\ntag_6:\n  mload(0x40)\n  dup1\n  swap2\n  sub\n  swap1\n  revert\n    /* \"contracts/openzeppelin/contracts/access/Ownable.sol\":1269:1364  if (initialOwner == address(0)) {... */\ntag_5:\n    /* \"contracts/openzeppelin/contracts/access/Ownable.sol\":1373:1405  _transferOwnership(initialOwner) */\n  tag_8\n    /* \"contracts/openzeppelin/contracts/access/Ownable.sol\":1392:1404  initialOwner */\n  dup2\n    /* \"contracts/openzeppelin/contracts/access/Ownable.sol\":1373:1391  _transferOwnership */\n  shl(0x20, tag_9)\n    /* \"contracts/openzeppelin/contracts/access/Ownable.sol\":1373:1405  _transferOwnership(initialOwner) */\n  0x20\n  shr\n  jump\t// in\ntag_8:\n    /* \"contracts/openzeppelin/contracts/access/Ownable.sol\":1225:1412  constructor(address initialOwner) {... */\n  pop\n    /* \"contracts/NftArtworkToken.sol\":118:3152  contract NftArtworkToken is Ownable(msg.sender) {... */\n  jump(tag_11)\n    /* \"contracts/openzeppelin/contracts/access/Ownable.sol\":2912:3099  function _transferOwnership(address newOwner) internal virtual {... */\ntag_9:\n    /* \"contracts/openzeppelin/contracts/access/Ownable.sol\":2985:3001  address oldOwner */\n  0x00\n    /* \"contracts/openzeppelin/contracts/access/Ownable.sol\":3004:3010  _owner */\n  dup1\n  0x00\n  swap1\n  sload\n  swap1\n  0x0100\n  exp\n  swap1\n  div\n  0xffffffffffffffffffffffffffffffffffffffff\n  and\n    /* \"contracts/openzeppelin/contracts/access/Ownable.sol\":2985:3010  address oldOwner = _owner */\n  swap1\n  pop\n    /* \"contracts/openzeppelin/contracts/access/Ownable.sol\":3029:3037  newOwner */\n  dup2\n    /* \"contracts/openzeppelin/contracts/access/Ownable.sol\":3020:3026  _owner */\n  0x00\n  dup1\n    /* \"contracts/openzeppelin/contracts/access/Ownable.sol\":3020:3037  _owner = newOwner */\n  0x0100\n  exp\n  dup2\n  sload\n  dup2\n  0xffffffffffffffffffffffffffffffffffffffff\n  mul\n  not\n  and\n  swap1\n  dup4\n  0xffffffffffffffffffffffffffffffffffffffff\n  and\n  mul\n  or\n  swap1\n  sstore\n  pop\n    /* \"contracts/openzeppelin/contracts/access/Ownable.sol\":3083:3091  newOwner */\n  dup2\n    /* \"contracts/openzeppelin/contracts/access/Ownable.sol\":3052:3092  OwnershipTransferred(oldOwner, newOwner) */\n  0xffffffffffffffffffffffffffffffffffffffff\n  and\n    /* \"contracts/openzeppelin/contracts/access/Ownable.sol\":3073:3081  oldOwner */\n  dup2\n    /* \"contracts/openzeppelin/contracts/access/Ownable.sol\":3052:3092  OwnershipTransferred(oldOwner, newOwner) */\n  0xffffffffffffffffffffffffffffffffffffffff\n  and\n  0x8be0079c531659141344cd1fd0a4f28419497f9722a3daafe3b4186f6b6457e0\n  mload(0x40)\n  mload(0x40)\n  dup1\n  swap2\n  sub\n  swap1\n  log3\n    /* \"contracts/openzeppelin/contracts/access/Ownable.sol\":2975:3099  {... */\n  pop\n    /* \"contracts/openzeppelin/contracts/access/Ownable.sol\":2912:3099  function _transferOwnership(address newOwner) internal virtual {... */\n  pop\n  jump\t// out\n    /* \"#utility.yul\":7:133   */\ntag_13:\n    /* \"#utility.yul\":44:51   */\n  0x00\n    /* \"#utility.yul\":84:126   */\n  0xffffffffffffffffffffffffffffffffffffffff\n    /* \"#utility.yul\":77:82   */\n  dup3\n    /* \"#utility.yul\":73:127   */\n  and\n    /* \"#utility.yul\":62:127   */\n  swap1\n  pop\n    /* \"#utility.yul\":7:133   */\n  swap2\n  swap1\n  pop\n  jump\t// out\n    /* \"#utility.yul\":139:235   */\ntag_14:\n    /* \"#utility.yul\":176:183   */\n  0x00\n    /* \"#utility.yul\":205:229   */\n  tag_19\n    /* \"#utility.yul\":223:228   */\n  dup3\n    /* \"#utility.yul\":205:229   */\n  tag_13\n  jump\t// in\ntag_19:\n    /* \"#utility.yul\":194:229   */\n  swap1\n  pop\n    /* \"#utility.yul\":139:235   */\n  swap2\n  swap1\n  pop\n  jump\t// out\n    /* \"#utility.yul\":241:359   */\ntag_15:\n    /* \"#utility.yul\":328:352   */\n  tag_21\n    /* \"#utility.yul\":346:351   */\n  dup2\n    /* \"#utility.yul\":328:352   */\n  tag_14\n  jump\t// in\ntag_21:\n    /* \"#utility.yul\":323:326   */\n  dup3\n    /* \"#utility.yul\":316:353   */\n  mstore\n    /* \"#utility.yul\":241:359   */\n  pop\n  pop\n  jump\t// out\n    /* \"#utility.yul\":365:587   */\ntag_7:\n    /* \"#utility.yul\":458:462   */\n  0x00\n    /* \"#utility.yul\":496:498   */\n  0x20\n    /* \"#utility.yul\":485:494   */\n  dup3\n    /* \"#utility.yul\":481:499   */\n  add\n    /* \"#utility.yul\":473:499   */\n  swap1\n  pop\n    /* \"#utility.yul\":509:580   */\n  tag_23\n    /* \"#utility.yul\":577:578   */\n  0x00\n    /* \"#utility.yul\":566:575   */\n  dup4\n    /* \"#utility.yul\":562:579   */\n  add\n    /* \"#utility.yul\":553:559   */\n  dup5\n    /* \"#utility.yul\":509:580   */\n  tag_15\n  jump\t// in\ntag_23:\n    /* \"#utility.yul\":365:587   */\n  swap3\n  swap2\n  pop\n  pop\n  jump\t// out\n    /* \"contracts/NftArtworkToken.sol\":118:3152  contract NftArtworkToken is Ownable(msg.sender) {... */\ntag_11:\n  dataSize(sub_0)\n  dup1\n  dataOffset(sub_0)\n  0x00\n  codecopy\n  0x00\n  return\nstop\n\nsub_0: assembly {\n        /* \"contracts/NftArtworkToken.sol\":118:3152  contract NftArtworkToken is Ownable(msg.sender) {... */\n      mstore(0x40, 0x80)\n      callvalue\n      dup1\n      iszero\n      tag_1\n      jumpi\n      0x00\n      dup1\n      revert\n    tag_1:\n      pop\n      jumpi(tag_2, lt(calldatasize, 0x04))\n      shr(0xe0, calldataload(0x00))\n      dup1\n      0x61b8ce8c\n      gt\n      tag_12\n      jumpi\n      dup1\n      0x61b8ce8c\n      eq\n      tag_7\n      jumpi\n      dup1\n      0x715018a6\n      eq\n      tag_8\n      jumpi\n      dup1\n      0x8da5cb5b\n      eq\n      tag_9\n      jumpi\n      dup1\n      0xa843c51f\n      eq\n      tag_10\n      jumpi\n      dup1\n      0xf2fde38b\n      eq\n      tag_11\n      jumpi\n      jump(tag_2)\n    tag_12:\n      dup1\n      0x167ddf6e\n      eq\n      tag_3\n      jumpi\n      dup1\n      0x29507f73\n      eq\n      tag_4\n      jumpi\n      dup1\n      0x3264dc8e\n      eq\n      tag_5\n      jumpi\n      dup1\n      0x4b602673\n      eq\n      tag_6\n      jumpi\n    tag_2:\n      0x00\n      dup1\n      revert\n        /* \"contracts/NftArtworkToken.sol\":2014:2382  function getArtwork(uint256 _id) public view artworkExists(_id) returns (... */\n    tag_3:\n      tag_13\n      0x04\n      dup1\n      calldatasize\n      sub\n      dup2\n      add\n      swap1\n      tag_14\n      swap2\n      swap1\n      tag_15\n      jump\t// in\n    tag_14:\n      tag_16\n      jump\t// in\n    tag_13:\n      mload(0x40)\n      tag_17\n      swap6\n      swap5\n      swap4\n      swap3\n      swap2\n      swap1\n      tag_18\n      jump\t// in\n    tag_17:\n      mload(0x40)\n      dup1\n      swap2\n      sub\n      swap1\n      return\n        /* \"contracts/NftArtworkToken.sol\":2460:2878  function transferOwnership(uint256 _id, address _newOwner) public artworkExists(_id) {... */\n    tag_4:\n      tag_19\n      0x04\n      dup1\n      calldatasize\n      sub\n      dup2\n      add\n      swap1\n      tag_20\n      swap2\n      swap1\n      tag_21\n      jump\t// in\n    tag_20:\n      tag_22\n      jump\t// in\n    tag_19:\n      stop\n        /* \"contracts/NftArtworkToken.sol\":1419:1966  function registerArtwork(... */\n    tag_5:\n      tag_23\n      0x04\n      dup1\n      calldatasize\n      sub\n      dup2\n      add\n      swap1\n      tag_24\n      swap2\n      swap1\n      tag_25\n      jump\t// in\n    tag_24:\n      tag_26\n      jump\t// in\n    tag_23:\n      stop\n        /* \"contracts/NftArtworkToken.sol\":377:420  mapping(uint256 => Artwork) public artworks */\n    tag_6:\n      tag_27\n      0x04\n      dup1\n      calldatasize\n      sub\n      dup2\n      add\n      swap1\n      tag_28\n      swap2\n      swap1\n      tag_15\n      jump\t// in\n    tag_28:\n      tag_29\n      jump\t// in\n    tag_27:\n      mload(0x40)\n      tag_30\n      swap6\n      swap5\n      swap4\n      swap3\n      swap2\n      swap1\n      tag_18\n      jump\t// in\n    tag_30:\n      mload(0x40)\n      dup1\n      swap2\n      sub\n      swap1\n      return\n        /* \"contracts/NftArtworkToken.sol\":427:448  uint256 public nextId */\n    tag_7:\n      tag_31\n      tag_32\n      jump\t// in\n    tag_31:\n      mload(0x40)\n      tag_33\n      swap2\n      swap1\n      tag_34\n      jump\t// in\n    tag_33:\n      mload(0x40)\n      dup1\n      swap2\n      sub\n      swap1\n      return\n        /* \"contracts/openzeppelin/contracts/access/Ownable.sol\":2293:2394  function renounceOwnership() public virtual onlyOwner {... */\n    tag_8:\n      tag_35\n      tag_36\n      jump\t// in\n    tag_35:\n      stop\n        /* \"contracts/openzeppelin/contracts/access/Ownable.sol\":1638:1723  function owner() public view virtual returns (address) {... */\n    tag_9:\n      tag_37\n      tag_38\n      jump\t// in\n    tag_37:\n      mload(0x40)\n      tag_39\n      swap2\n      swap1\n      tag_40\n      jump\t// in\n    tag_39:\n      mload(0x40)\n      dup1\n      swap2\n      sub\n      swap1\n      return\n        /* \"contracts/NftArtworkToken.sol\":2958:3149  function transferContractOwnership(address newOwner) public onlyOwner {... */\n    tag_10:\n      tag_41\n      0x04\n      dup1\n      calldatasize\n      sub\n      dup2\n      add\n      swap1\n      tag_42\n      swap2\n      swap1\n      tag_43\n      jump\t// in\n    tag_42:\n      tag_44\n      jump\t// in\n    tag_41:\n      stop\n        /* \"contracts/openzeppelin/contracts/access/Ownable.sol\":2543:2758  function transferOwnership(address newOwner) public virtual onlyOwner {... */\n    tag_11:\n      tag_45\n      0x04\n      dup1\n      calldatasize\n      sub\n      dup2\n      add\n      swap1\n      tag_46\n      swap2\n      swap1\n      tag_43\n      jump\t// in\n    tag_46:\n      tag_47\n      jump\t// in\n    tag_45:\n      stop\n        /* \"contracts/NftArtworkToken.sol\":2014:2382  function getArtwork(uint256 _id) public view artworkExists(_id) returns (... */\n    tag_16:\n        /* \"contracts/NftArtworkToken.sol\":2097:2116  string memory title */\n      0x60\n        /* \"contracts/NftArtworkToken.sol\":2127:2152  string memory description */\n      dup1\n        /* \"contracts/NftArtworkToken.sol\":2163:2184  string memory creator */\n      0x60\n        /* \"contracts/NftArtworkToken.sol\":2195:2212  uint256 timestamp */\n      0x00\n        /* \"contracts/NftArtworkToken.sol\":2223:2236  address owner */\n      dup1\n        /* \"contracts/NftArtworkToken.sol\":2073:2076  _id */\n      dup6\n        /* \"contracts/NftArtworkToken.sol\":1303:1309  nextId */\n      sload(0x02)\n        /* \"contracts/NftArtworkToken.sol\":1297:1300  _id */\n      dup2\n        /* \"contracts/NftArtworkToken.sol\":1297:1309  _id < nextId */\n      lt\n        /* \"contracts/NftArtworkToken.sol\":1289:1336  require(_id < nextId, \"Artwork does not exist\") */\n      tag_49\n      jumpi\n      mload(0x40)\n      0x08c379a000000000000000000000000000000000000000000000000000000000\n      dup2\n      mstore\n      0x04\n      add\n      tag_50\n      swap1\n      tag_51\n      jump\t// in\n    tag_50:\n      mload(0x40)\n      dup1\n      swap2\n      sub\n      swap1\n      revert\n    tag_49:\n        /* \"contracts/NftArtworkToken.sol\":2255:2273  Artwork memory art */\n      0x00\n        /* \"contracts/NftArtworkToken.sol\":2276:2284  artworks */\n      0x01\n        /* \"contracts/NftArtworkToken.sol\":2276:2289  artworks[_id] */\n      0x00\n        /* \"contracts/NftArtworkToken.sol\":2285:2288  _id */\n      dup10\n        /* \"contracts/NftArtworkToken.sol\":2276:2289  artworks[_id] */\n      dup2\n      mstore\n      0x20\n      add\n      swap1\n      dup2\n      mstore\n      0x20\n      add\n      0x00\n      keccak256\n        /* \"contracts/NftArtworkToken.sol\":2255:2289  Artwork memory art = artworks[_id] */\n      mload(0x40)\n      dup1\n      0xa0\n      add\n      0x40\n      mstore\n      swap1\n      dup2\n      0x00\n      dup3\n      add\n      dup1\n      sload\n      tag_53\n      swap1\n      tag_54\n      jump\t// in\n    tag_53:\n      dup1\n      0x1f\n      add\n      0x20\n      dup1\n      swap2\n      div\n      mul\n      0x20\n      add\n      mload(0x40)\n      swap1\n      dup2\n      add\n      0x40\n      mstore\n      dup1\n      swap3\n      swap2\n      swap1\n      dup2\n      dup2\n      mstore\n      0x20\n      add\n      dup3\n      dup1\n      sload\n      tag_55\n      swap1\n      tag_54\n      jump\t// in\n    tag_55:\n      dup1\n      iszero\n      tag_56\n      jumpi\n      dup1\n      0x1f\n      lt\n      tag_57\n      jumpi\n      0x0100\n      dup1\n      dup4\n      sload\n      div\n      mul\n      dup4\n      mstore\n      swap2\n      0x20\n      add\n      swap2\n      jump(tag_56)\n    tag_57:\n      dup3\n      add\n      swap2\n      swap1\n      0x00\n      mstore\n      keccak256(0x00, 0x20)\n      swap1\n    tag_58:\n      dup2\n      sload\n      dup2\n      mstore\n      swap1\n      0x01\n      add\n      swap1\n      0x20\n      add\n      dup1\n      dup4\n      gt\n      tag_58\n      jumpi\n      dup3\n      swap1\n      sub\n      0x1f\n      and\n      dup3\n      add\n      swap2\n    tag_56:\n      pop\n      pop\n      pop\n      pop\n      pop\n      dup2\n      mstore\n      0x20\n      add\n      0x01\n      dup3\n      add\n      dup1\n      sload\n      tag_59\n      swap1\n      tag_54\n      jump\t// in\n    tag_59:\n      dup1\n      0x1f\n      add\n      0x20\n      dup1\n      swap2\n      div\n      mul\n      0x20\n      add\n      mload(0x40)\n      swap1\n      dup2\n      add\n      0x40\n      mstore\n      dup1\n      swap3\n      swap2\n      swap1\n      dup2\n      dup2\n      mstore\n      0x20\n      add\n      dup3\n      dup1\n      sload\n      tag_60\n      swap1\n      tag_54\n      jump\t// in\n    tag_60:\n      dup1\n      iszero\n      tag_61\n      jumpi\n      dup1\n      0x1f\n      lt\n      tag_62\n      jumpi\n      0x0100\n      dup1\n      dup4\n      sload\n      div\n      mul\n      dup4\n      mstore\n      swap2\n      0x20\n      add\n      swap2\n      jump(tag_61)\n    tag_62:\n      dup3\n      add\n      swap2\n      swap1\n      0x00\n      mstore\n      keccak256(0x00, 0x20)\n      swap1\n    tag_63:\n      dup2\n      sload\n      dup2\n      mstore\n      swap1\n      0x01\n      add\n      swap1\n      0x20\n      add\n      dup1\n      dup4\n      gt\n      tag_63\n      jumpi\n      dup3\n      swap1\n      sub\n      0x1f\n      and\n      dup3\n      add\n      swap2\n    tag_61:\n      pop\n      pop\n      pop\n      pop\n      pop\n      dup2\n      mstore\n      0x20\n      add\n      0x02\n      dup3\n      add\n      dup1\n      sload\n      tag_64\n      swap1\n      tag_54\n      jump\t// in\n    tag_64:\n      dup1\n      0x1f\n      add\n      0x20\n      dup1\n      swap2\n      div\n      mul\n      0x20\n      add\n      mload(0x40)\n      swap1\n      dup2\n      add\n      0x40\n      mstore\n      dup1\n      swap3\n      swap2\n      swap1\n      dup2\n      dup2\n      mstore\n      0x20\n      add\n      dup3\n      dup1\n      sload\n      tag_65\n      swap1\n      tag_54\n      jump\t// in\n    tag_65:\n      dup1\n      iszero\n      tag_66\n      jumpi\n      dup1\n      0x1f\n      lt\n      tag_67\n      jumpi\n      0x0100\n      dup1\n      dup4\n      sload\n      div\n      mul\n      dup4\n      mstore\n      swap2\n      0x20\n      add\n      swap2\n      jump(tag_66)\n    tag_67:\n      dup3\n      add\n      swap2\n      swap1\n      0x00\n      mstore\n      keccak256(0x00, 0x20)\n      swap1\n    tag_68:\n      dup2\n      sload\n      dup2\n      mstore\n      swap1\n      0x01\n      add\n      swap1\n      0x20\n      add\n      dup1\n      dup4\n      gt\n      tag_68\n      jumpi\n      dup3\n      swap1\n      sub\n      0x1f\n      and\n      dup3\n      add\n      swap2\n    tag_66:\n      pop\n      pop\n      pop\n      pop\n      pop\n      dup2\n      mstore\n      0x20\n      add\n      0x03\n      dup3\n      add\n      sload\n      dup2\n      mstore\n      0x20\n      add\n      0x04\n      dup3\n      add\n      0x00\n      swap1\n      sload\n      swap1\n      0x0100\n      exp\n      swap1\n      div\n      0xffffffffffffffffffffffffffffffffffffffff\n      and\n      0xffffffffffffffffffffffffffffffffffffffff\n      and\n      0xffffffffffffffffffffffffffffffffffffffff\n      and\n      dup2\n      mstore\n      pop\n      pop\n      swap1\n      pop\n        /* \"contracts/NftArtworkToken.sol\":2308:2311  art */\n      dup1\n        /* \"contracts/NftArtworkToken.sol\":2308:2317  art.title */\n      0x00\n      add\n      mload\n        /* \"contracts/NftArtworkToken.sol\":2319:2322  art */\n      dup2\n        /* \"contracts/NftArtworkToken.sol\":2319:2334  art.description */\n      0x20\n      add\n      mload\n        /* \"contracts/NftArtworkToken.sol\":2336:2339  art */\n      dup3\n        /* \"contracts/NftArtworkToken.sol\":2336:2347  art.creator */\n      0x40\n      add\n      mload\n        /* \"contracts/NftArtworkToken.sol\":2349:2352  art */\n      dup4\n        /* \"contracts/NftArtworkToken.sol\":2349:2362  art.timestamp */\n      0x60\n      add\n      mload\n        /* \"contracts/NftArtworkToken.sol\":2364:2367  art */\n      dup5\n        /* \"contracts/NftArtworkToken.sol\":2364:2373  art.owner */\n      0x80\n      add\n      mload\n        /* \"contracts/NftArtworkToken.sol\":2300:2374  return (art.title, art.description, art.creator, art.timestamp, art.owner) */\n      swap7\n      pop\n      swap7\n      pop\n      swap7\n      pop\n      swap7\n      pop\n      swap7\n      pop\n      pop\n        /* \"contracts/NftArtworkToken.sol\":2014:2382  function getArtwork(uint256 _id) public view artworkExists(_id) returns (... */\n      pop\n      swap2\n      swap4\n      swap6\n      swap1\n      swap3\n      swap5\n      pop\n      jump\t// out\n        /* \"contracts/NftArtworkToken.sol\":2460:2878  function transferOwnership(uint256 _id, address _newOwner) public artworkExists(_id) {... */\n    tag_22:\n        /* \"contracts/NftArtworkToken.sol\":2540:2543  _id */\n      dup2\n        /* \"contracts/NftArtworkToken.sol\":1303:1309  nextId */\n      sload(0x02)\n        /* \"contracts/NftArtworkToken.sol\":1297:1300  _id */\n      dup2\n        /* \"contracts/NftArtworkToken.sol\":1297:1309  _id < nextId */\n      lt\n        /* \"contracts/NftArtworkToken.sol\":1289:1336  require(_id < nextId, \"Artwork does not exist\") */\n      tag_70\n      jumpi\n      mload(0x40)\n      0x08c379a000000000000000000000000000000000000000000000000000000000\n      dup2\n      mstore\n      0x04\n      add\n      tag_71\n      swap1\n      tag_51\n      jump\t// in\n    tag_71:\n      mload(0x40)\n      dup1\n      swap2\n      sub\n      swap1\n      revert\n    tag_70:\n        /* \"contracts/NftArtworkToken.sol\":2585:2586  0 */\n      0x00\n        /* \"contracts/NftArtworkToken.sol\":2564:2587  _newOwner != address(0) */\n      0xffffffffffffffffffffffffffffffffffffffff\n      and\n        /* \"contracts/NftArtworkToken.sol\":2564:2573  _newOwner */\n      dup3\n        /* \"contracts/NftArtworkToken.sol\":2564:2587  _newOwner != address(0) */\n      0xffffffffffffffffffffffffffffffffffffffff\n      and\n      sub\n        /* \"contracts/NftArtworkToken.sol\":2556:2607  require(_newOwner != address(0), \"Invalid address\") */\n      tag_73\n      jumpi\n      mload(0x40)\n      0x08c379a000000000000000000000000000000000000000000000000000000000\n      dup2\n      mstore\n      0x04\n      add\n      tag_74\n      swap1\n      tag_75\n      jump\t// in\n    tag_74:\n      mload(0x40)\n      dup1\n      swap2\n      sub\n      swap1\n      revert\n    tag_73:\n        /* \"contracts/NftArtworkToken.sol\":2618:2637  Artwork storage art */\n      0x00\n        /* \"contracts/NftArtworkToken.sol\":2640:2648  artworks */\n      0x01\n        /* \"contracts/NftArtworkToken.sol\":2640:2653  artworks[_id] */\n      0x00\n        /* \"contracts/NftArtworkToken.sol\":2649:2652  _id */\n      dup6\n        /* \"contracts/NftArtworkToken.sol\":2640:2653  artworks[_id] */\n      dup2\n      mstore\n      0x20\n      add\n      swap1\n      dup2\n      mstore\n      0x20\n      add\n      0x00\n      keccak256\n        /* \"contracts/NftArtworkToken.sol\":2618:2653  Artwork storage art = artworks[_id] */\n      swap1\n      pop\n        /* \"contracts/NftArtworkToken.sol\":2685:2695  msg.sender */\n      caller\n        /* \"contracts/NftArtworkToken.sol\":2672:2695  art.owner == msg.sender */\n      0xffffffffffffffffffffffffffffffffffffffff\n      and\n        /* \"contracts/NftArtworkToken.sol\":2672:2675  art */\n      dup2\n        /* \"contracts/NftArtworkToken.sol\":2672:2681  art.owner */\n      0x04\n      add\n      0x00\n      swap1\n      sload\n      swap1\n      0x0100\n      exp\n      swap1\n      div\n      0xffffffffffffffffffffffffffffffffffffffff\n      and\n        /* \"contracts/NftArtworkToken.sol\":2672:2695  art.owner == msg.sender */\n      0xffffffffffffffffffffffffffffffffffffffff\n      and\n      eq\n        /* \"contracts/NftArtworkToken.sol\":2664:2723  require(art.owner == msg.sender, \"Caller is not the owner\") */\n      tag_76\n      jumpi\n      mload(0x40)\n      0x08c379a000000000000000000000000000000000000000000000000000000000\n      dup2\n      mstore\n      0x04\n      add\n      tag_77\n      swap1\n      tag_78\n      jump\t// in\n    tag_77:\n      mload(0x40)\n      dup1\n      swap2\n      sub\n      swap1\n      revert\n    tag_76:\n        /* \"contracts/NftArtworkToken.sol\":2736:2757  address previousOwner */\n      0x00\n        /* \"contracts/NftArtworkToken.sol\":2760:2763  art */\n      dup2\n        /* \"contracts/NftArtworkToken.sol\":2760:2769  art.owner */\n      0x04\n      add\n      0x00\n      swap1\n      sload\n      swap1\n      0x0100\n      exp\n      swap1\n      div\n      0xffffffffffffffffffffffffffffffffffffffff\n      and\n        /* \"contracts/NftArtworkToken.sol\":2736:2769  address previousOwner = art.owner */\n      swap1\n      pop\n        /* \"contracts/NftArtworkToken.sol\":2792:2801  _newOwner */\n      dup4\n        /* \"contracts/NftArtworkToken.sol\":2780:2783  art */\n      dup3\n        /* \"contracts/NftArtworkToken.sol\":2780:2789  art.owner */\n      0x04\n      add\n      0x00\n        /* \"contracts/NftArtworkToken.sol\":2780:2801  art.owner = _newOwner */\n      0x0100\n      exp\n      dup2\n      sload\n      dup2\n      0xffffffffffffffffffffffffffffffffffffffff\n      mul\n      not\n      and\n      swap1\n      dup4\n      0xffffffffffffffffffffffffffffffffffffffff\n      and\n      mul\n      or\n      swap1\n      sstore\n      pop\n        /* \"contracts/NftArtworkToken.sol\":2860:2869  _newOwner */\n      dup4\n        /* \"contracts/NftArtworkToken.sol\":2819:2870  OwnershipTransferred(_id, previousOwner, _newOwner) */\n      0xffffffffffffffffffffffffffffffffffffffff\n      and\n        /* \"contracts/NftArtworkToken.sol\":2845:2858  previousOwner */\n      dup2\n        /* \"contracts/NftArtworkToken.sol\":2819:2870  OwnershipTransferred(_id, previousOwner, _newOwner) */\n      0xffffffffffffffffffffffffffffffffffffffff\n      and\n        /* \"contracts/NftArtworkToken.sol\":2840:2843  _id */\n      dup7\n        /* \"contracts/NftArtworkToken.sol\":2819:2870  OwnershipTransferred(_id, previousOwner, _newOwner) */\n      0x16b85f49bf01212961345d3016c9a531894accf62eb7680f2045d79185cc0ec0\n      mload(0x40)\n      mload(0x40)\n      dup1\n      swap2\n      sub\n      swap1\n      log4\n        /* \"contracts/NftArtworkToken.sol\":2545:2878  {... */\n      pop\n      pop\n        /* \"contracts/NftArtworkToken.sol\":2460:2878  function transferOwnership(uint256 _id, address _newOwner) public artworkExists(_id) {... */\n      pop\n      pop\n      pop\n      jump\t// out\n        /* \"contracts/NftArtworkToken.sol\":1419:1966  function registerArtwork(... */\n    tag_26:\n        /* \"contracts/NftArtworkToken.sol\":1570:1576  _title */\n      dup3\n        /* \"contracts/NftArtworkToken.sol\":1148:1149  0 */\n      0x00\n        /* \"contracts/NftArtworkToken.sol\":1131:1137  _input */\n      dup2\n        /* \"contracts/NftArtworkToken.sol\":1125:1145  bytes(_input).length */\n      mload\n        /* \"contracts/NftArtworkToken.sol\":1125:1149  bytes(_input).length > 0 */\n      gt\n        /* \"contracts/NftArtworkToken.sol\":1117:1167  require(bytes(_input).length > 0, \"Invalid input\") */\n      tag_80\n      jumpi\n      mload(0x40)\n      0x08c379a000000000000000000000000000000000000000000000000000000000\n      dup2\n      mstore\n      0x04\n      add\n      tag_81\n      swap1\n      tag_82\n      jump\t// in\n    tag_81:\n      mload(0x40)\n      dup1\n      swap2\n      sub\n      swap1\n      revert\n    tag_80:\n        /* \"contracts/NftArtworkToken.sol\":1589:1601  _description */\n      dup3\n        /* \"contracts/NftArtworkToken.sol\":1148:1149  0 */\n      0x00\n        /* \"contracts/NftArtworkToken.sol\":1131:1137  _input */\n      dup2\n        /* \"contracts/NftArtworkToken.sol\":1125:1145  bytes(_input).length */\n      mload\n        /* \"contracts/NftArtworkToken.sol\":1125:1149  bytes(_input).length > 0 */\n      gt\n        /* \"contracts/NftArtworkToken.sol\":1117:1167  require(bytes(_input).length > 0, \"Invalid input\") */\n      tag_84\n      jumpi\n      mload(0x40)\n      0x08c379a000000000000000000000000000000000000000000000000000000000\n      dup2\n      mstore\n      0x04\n      add\n      tag_85\n      swap1\n      tag_82\n      jump\t// in\n    tag_85:\n      mload(0x40)\n      dup1\n      swap2\n      sub\n      swap1\n      revert\n    tag_84:\n        /* \"contracts/NftArtworkToken.sol\":1614:1622  _creator */\n      dup3\n        /* \"contracts/NftArtworkToken.sol\":1148:1149  0 */\n      0x00\n        /* \"contracts/NftArtworkToken.sol\":1131:1137  _input */\n      dup2\n        /* \"contracts/NftArtworkToken.sol\":1125:1145  bytes(_input).length */\n      mload\n        /* \"contracts/NftArtworkToken.sol\":1125:1149  bytes(_input).length > 0 */\n      gt\n        /* \"contracts/NftArtworkToken.sol\":1117:1167  require(bytes(_input).length > 0, \"Invalid input\") */\n      tag_87\n      jumpi\n      mload(0x40)\n      0x08c379a000000000000000000000000000000000000000000000000000000000\n      dup2\n      mstore\n      0x04\n      add\n      tag_88\n      swap1\n      tag_82\n      jump\t// in\n    tag_88:\n      mload(0x40)\n      dup1\n      swap2\n      sub\n      swap1\n      revert\n    tag_87:\n        /* \"contracts/NftArtworkToken.sol\":1635:1645  uint256 id */\n      0x00\n        /* \"contracts/NftArtworkToken.sol\":1648:1654  nextId */\n      0x02\n      0x00\n        /* \"contracts/NftArtworkToken.sol\":1648:1656  nextId++ */\n      dup2\n      sload\n      dup1\n      swap3\n      swap2\n      swap1\n      tag_90\n      swap1\n      tag_91\n      jump\t// in\n    tag_90:\n      swap2\n      swap1\n      pop\n      sstore\n        /* \"contracts/NftArtworkToken.sol\":1635:1656  uint256 id = nextId++ */\n      swap1\n      pop\n        /* \"contracts/NftArtworkToken.sol\":1682:1875  Artwork({... */\n      mload(0x40)\n      dup1\n      0xa0\n      add\n      0x40\n      mstore\n      dup1\n        /* \"contracts/NftArtworkToken.sol\":1712:1718  _title */\n      dup9\n        /* \"contracts/NftArtworkToken.sol\":1682:1875  Artwork({... */\n      dup2\n      mstore\n      0x20\n      add\n        /* \"contracts/NftArtworkToken.sol\":1746:1758  _description */\n      dup8\n        /* \"contracts/NftArtworkToken.sol\":1682:1875  Artwork({... */\n      dup2\n      mstore\n      0x20\n      add\n        /* \"contracts/NftArtworkToken.sol\":1782:1790  _creator */\n      dup7\n        /* \"contracts/NftArtworkToken.sol\":1682:1875  Artwork({... */\n      dup2\n      mstore\n      0x20\n      add\n        /* \"contracts/NftArtworkToken.sol\":1816:1831  block.timestamp */\n      timestamp\n        /* \"contracts/NftArtworkToken.sol\":1682:1875  Artwork({... */\n      dup2\n      mstore\n      0x20\n      add\n        /* \"contracts/NftArtworkToken.sol\":1853:1863  msg.sender */\n      caller\n        /* \"contracts/NftArtworkToken.sol\":1682:1875  Artwork({... */\n      0xffffffffffffffffffffffffffffffffffffffff\n      and\n      dup2\n      mstore\n      pop\n        /* \"contracts/NftArtworkToken.sol\":1667:1675  artworks */\n      0x01\n        /* \"contracts/NftArtworkToken.sol\":1667:1679  artworks[id] */\n      0x00\n        /* \"contracts/NftArtworkToken.sol\":1676:1678  id */\n      dup4\n        /* \"contracts/NftArtworkToken.sol\":1667:1679  artworks[id] */\n      dup2\n      mstore\n      0x20\n      add\n      swap1\n      dup2\n      mstore\n      0x20\n      add\n      0x00\n      keccak256\n        /* \"contracts/NftArtworkToken.sol\":1667:1875  artworks[id] = Artwork({... */\n      0x00\n      dup3\n      add\n      mload\n      dup2\n      0x00\n      add\n      swap1\n      dup2\n      tag_92\n      swap2\n      swap1\n      tag_93\n      jump\t// in\n    tag_92:\n      pop\n      0x20\n      dup3\n      add\n      mload\n      dup2\n      0x01\n      add\n      swap1\n      dup2\n      tag_94\n      swap2\n      swap1\n      tag_93\n      jump\t// in\n    tag_94:\n      pop\n      0x40\n      dup3\n      add\n      mload\n      dup2\n      0x02\n      add\n      swap1\n      dup2\n      tag_95\n      swap2\n      swap1\n      tag_93\n      jump\t// in\n    tag_95:\n      pop\n      0x60\n      dup3\n      add\n      mload\n      dup2\n      0x03\n      add\n      sstore\n      0x80\n      dup3\n      add\n      mload\n      dup2\n      0x04\n      add\n      exp(0x0100, 0x00)\n      dup2\n      sload\n      dup2\n      0xffffffffffffffffffffffffffffffffffffffff\n      mul\n      not\n      and\n      swap1\n      dup4\n      0xffffffffffffffffffffffffffffffffffffffff\n      and\n      mul\n      or\n      swap1\n      sstore\n      pop\n      swap1\n      pop\n      pop\n        /* \"contracts/NftArtworkToken.sol\":1947:1957  msg.sender */\n      caller\n        /* \"contracts/NftArtworkToken.sol\":1893:1958  ArtworkRegistered(id, _title, _description, _creator, msg.sender) */\n      0xffffffffffffffffffffffffffffffffffffffff\n      and\n        /* \"contracts/NftArtworkToken.sol\":1911:1913  id */\n      dup2\n        /* \"contracts/NftArtworkToken.sol\":1893:1958  ArtworkRegistered(id, _title, _description, _creator, msg.sender) */\n      0xfd2e94f3cc8d3dbd181bdf7102bc402dd062739e4af414a51a4c46533b6d0b1c\n        /* \"contracts/NftArtworkToken.sol\":1915:1921  _title */\n      dup10\n        /* \"contracts/NftArtworkToken.sol\":1923:1935  _description */\n      dup10\n        /* \"contracts/NftArtworkToken.sol\":1937:1945  _creator */\n      dup10\n        /* \"contracts/NftArtworkToken.sol\":1893:1958  ArtworkRegistered(id, _title, _description, _creator, msg.sender) */\n      mload(0x40)\n      tag_96\n      swap4\n      swap3\n      swap2\n      swap1\n      tag_97\n      jump\t// in\n    tag_96:\n      mload(0x40)\n      dup1\n      swap2\n      sub\n      swap1\n      log3\n        /* \"contracts/NftArtworkToken.sol\":1624:1966  {... */\n      pop\n        /* \"contracts/NftArtworkToken.sol\":1178:1179  _ */\n      pop\n      pop\n        /* \"contracts/NftArtworkToken.sol\":1419:1966  function registerArtwork(... */\n      pop\n      pop\n      pop\n      pop\n      jump\t// out\n        /* \"contracts/NftArtworkToken.sol\":377:420  mapping(uint256 => Artwork) public artworks */\n    tag_29:\n      mstore(0x20, 0x01)\n      dup1\n      0x00\n      mstore\n      keccak256(0x00, 0x40)\n      0x00\n      swap2\n      pop\n      swap1\n      pop\n      dup1\n      0x00\n      add\n      dup1\n      sload\n      tag_98\n      swap1\n      tag_54\n      jump\t// in\n    tag_98:\n      dup1\n      0x1f\n      add\n      0x20\n      dup1\n      swap2\n      div\n      mul\n      0x20\n      add\n      mload(0x40)\n      swap1\n      dup2\n      add\n      0x40\n      mstore\n      dup1\n      swap3\n      swap2\n      swap1\n      dup2\n      dup2\n      mstore\n      0x20\n      add\n      dup3\n      dup1\n      sload\n      tag_99\n      swap1\n      tag_54\n      jump\t// in\n    tag_99:\n      dup1\n      iszero\n      tag_100\n      jumpi\n      dup1\n      0x1f\n      lt\n      tag_101\n      jumpi\n      0x0100\n      dup1\n      dup4\n      sload\n      div\n      mul\n      dup4\n      mstore\n      swap2\n      0x20\n      add\n      swap2\n      jump(tag_100)\n    tag_101:\n      dup3\n      add\n      swap2\n      swap1\n      0x00\n      mstore\n      keccak256(0x00, 0x20)\n      swap1\n    tag_102:\n      dup2\n      sload\n      dup2\n      mstore\n      swap1\n      0x01\n      add\n      swap1\n      0x20\n      add\n      dup1\n      dup4\n      gt\n      tag_102\n      jumpi\n      dup3\n      swap1\n      sub\n      0x1f\n      and\n      dup3\n      add\n      swap2\n    tag_100:\n      pop\n      pop\n      pop\n      pop\n      pop\n      swap1\n      dup1\n      0x01\n      add\n      dup1\n      sload\n      tag_103\n      swap1\n      tag_54\n      jump\t// in\n    tag_103:\n      dup1\n      0x1f\n      add\n      0x20\n      dup1\n      swap2\n      div\n      mul\n      0x20\n      add\n      mload(0x40)\n      swap1\n      dup2\n      add\n      0x40\n      mstore\n      dup1\n      swap3\n      swap2\n      swap1\n      dup2\n      dup2\n      mstore\n      0x20\n      add\n      dup3\n      dup1\n      sload\n      tag_104\n      swap1\n      tag_54\n      jump\t// in\n    tag_104:\n      dup1\n      iszero\n      tag_105\n      jumpi\n      dup1\n      0x1f\n      lt\n      tag_106\n      jumpi\n      0x0100\n      dup1\n      dup4\n      sload\n      div\n      mul\n      dup4\n      mstore\n      swap2\n      0x20\n      add\n      swap2\n      jump(tag_105)\n    tag_106:\n      dup3\n      add\n      swap2\n      swap1\n      0x00\n      mstore\n      keccak256(0x00, 0x20)\n      swap1\n    tag_107:\n      dup2\n      sload\n      dup2\n      mstore\n      swap1\n      0x01\n      add\n      swap1\n      0x20\n      add\n      dup1\n      dup4\n      gt\n      tag_107\n      jumpi\n      dup3\n      swap1\n      sub\n      0x1f\n      and\n      dup3\n      add\n      swap2\n    tag_105:\n      pop\n      pop\n      pop\n      pop\n      pop\n      swap1\n      dup1\n      0x02\n      add\n      dup1\n      sload\n      tag_108\n      swap1\n      tag_54\n      jump\t// in\n    tag_108:\n      dup1\n      0x1f\n      add\n      0x20\n      dup1\n      swap2\n      div\n      mul\n      0x20\n      add\n      mload(0x40)\n      swap1\n      dup2\n      add\n      0x40\n      mstore\n      dup1\n      swap3\n      swap2\n      swap1\n      dup2\n      dup2\n      mstore\n      0x20\n      add\n      dup3\n      dup1\n      sload\n      tag_109\n      swap1\n      tag_54\n      jump\t// in\n    tag_109:\n      dup1\n      iszero\n      tag_110\n      jumpi\n      dup1\n      0x1f\n      lt\n      tag_111\n      jumpi\n      0x0100\n      dup1\n      dup4\n      sload\n      div\n      mul\n      dup4\n      mstore\n      swap2\n      0x20\n      add\n      swap2\n      jump(tag_110)\n    tag_111:\n      dup3\n      add\n      swap2\n      swap1\n      0x00\n      mstore\n      keccak256(0x00, 0x20)\n      swap1\n    tag_112:\n      dup2\n      sload\n      dup2\n      mstore\n      swap1\n      0x01\n      add\n      swap1\n      0x20\n      add\n      dup1\n      dup4\n      gt\n      tag_112\n      jumpi\n      dup3\n      swap1\n      sub\n      0x1f\n      and\n      dup3\n      add\n      swap2\n    tag_110:\n      pop\n      pop\n      pop\n      pop\n      pop\n      swap1\n      dup1\n      0x03\n      add\n      sload\n      swap1\n      dup1\n      0x04\n      add\n      0x00\n      swap1\n      sload\n      swap1\n      0x0100\n      exp\n      swap1\n      div\n      0xffffffffffffffffffffffffffffffffffffffff\n      and\n      swap1\n      pop\n      dup6\n      jump\t// out\n        /* \"contracts/NftArtworkToken.sol\":427:448  uint256 public nextId */\n    tag_32:\n      sload(0x02)\n      dup2\n      jump\t// out\n        /* \"contracts/openzeppelin/contracts/access/Ownable.sol\":2293:2394  function renounceOwnership() public virtual onlyOwner {... */\n    tag_36:\n        /* \"contracts/openzeppelin/contracts/access/Ownable.sol\":1531:1544  _checkOwner() */\n      tag_114\n        /* \"contracts/openzeppelin/contracts/access/Ownable.sol\":1531:1542  _checkOwner */\n      tag_115\n        /* \"contracts/openzeppelin/contracts/access/Ownable.sol\":1531:1544  _checkOwner() */\n      jump\t// in\n    tag_114:\n        /* \"contracts/openzeppelin/contracts/access/Ownable.sol\":2357:2387  _transferOwnership(address(0)) */\n      tag_117\n        /* \"contracts/openzeppelin/contracts/access/Ownable.sol\":2384:2385  0 */\n      0x00\n        /* \"contracts/openzeppelin/contracts/access/Ownable.sol\":2357:2375  _transferOwnership */\n      tag_118\n        /* \"contracts/openzeppelin/contracts/access/Ownable.sol\":2357:2387  _transferOwnership(address(0)) */\n      jump\t// in\n    tag_117:\n        /* \"contracts/openzeppelin/contracts/access/Ownable.sol\":2293:2394  function renounceOwnership() public virtual onlyOwner {... */\n      jump\t// out\n        /* \"contracts/openzeppelin/contracts/access/Ownable.sol\":1638:1723  function owner() public view virtual returns (address) {... */\n    tag_38:\n        /* \"contracts/openzeppelin/contracts/access/Ownable.sol\":1684:1691  address */\n      0x00\n        /* \"contracts/openzeppelin/contracts/access/Ownable.sol\":1710:1716  _owner */\n      dup1\n      0x00\n      swap1\n      sload\n      swap1\n      0x0100\n      exp\n      swap1\n      div\n      0xffffffffffffffffffffffffffffffffffffffff\n      and\n        /* \"contracts/openzeppelin/contracts/access/Ownable.sol\":1703:1716  return _owner */\n      swap1\n      pop\n        /* \"contracts/openzeppelin/contracts/access/Ownable.sol\":1638:1723  function owner() public view virtual returns (address) {... */\n      swap1\n      jump\t// out\n        /* \"contracts/NftArtworkToken.sol\":2958:3149  function transferContractOwnership(address newOwner) public onlyOwner {... */\n    tag_44:\n        /* \"contracts/openzeppelin/contracts/access/Ownable.sol\":1531:1544  _checkOwner() */\n      tag_121\n        /* \"contracts/openzeppelin/contracts/access/Ownable.sol\":1531:1542  _checkOwner */\n      tag_115\n        /* \"contracts/openzeppelin/contracts/access/Ownable.sol\":1531:1544  _checkOwner() */\n      jump\t// in\n    tag_121:\n        /* \"contracts/NftArtworkToken.sol\":3067:3068  0 */\n      0x00\n        /* \"contracts/NftArtworkToken.sol\":3047:3069  newOwner != address(0) */\n      0xffffffffffffffffffffffffffffffffffffffff\n      and\n        /* \"contracts/NftArtworkToken.sol\":3047:3055  newOwner */\n      dup2\n        /* \"contracts/NftArtworkToken.sol\":3047:3069  newOwner != address(0) */\n      0xffffffffffffffffffffffffffffffffffffffff\n      and\n      sub\n        /* \"contracts/NftArtworkToken.sol\":3039:3103  require(newOwner != address(0), \"Invalid address for new owner\") */\n      tag_123\n      jumpi\n      mload(0x40)\n      0x08c379a000000000000000000000000000000000000000000000000000000000\n      dup2\n      mstore\n      0x04\n      add\n      tag_124\n      swap1\n      tag_125\n      jump\t// in\n    tag_124:\n      mload(0x40)\n      dup1\n      swap2\n      sub\n      swap1\n      revert\n    tag_123:\n        /* \"contracts/NftArtworkToken.sol\":3114:3141  transferOwnership(newOwner) */\n      tag_126\n        /* \"contracts/NftArtworkToken.sol\":3132:3140  newOwner */\n      dup2\n        /* \"contracts/NftArtworkToken.sol\":3114:3131  transferOwnership */\n      tag_47\n        /* \"contracts/NftArtworkToken.sol\":3114:3141  transferOwnership(newOwner) */\n      jump\t// in\n    tag_126:\n        /* \"contracts/NftArtworkToken.sol\":2958:3149  function transferContractOwnership(address newOwner) public onlyOwner {... */\n      pop\n      jump\t// out\n        /* \"contracts/openzeppelin/contracts/access/Ownable.sol\":2543:2758  function transferOwnership(address newOwner) public virtual onlyOwner {... */\n    tag_47:\n        /* \"contracts/openzeppelin/contracts/access/Ownable.sol\":1531:1544  _checkOwner() */\n      tag_128\n        /* \"contracts/openzeppelin/contracts/access/Ownable.sol\":1531:1542  _checkOwner */\n      tag_115\n        /* \"contracts/openzeppelin/contracts/access/Ownable.sol\":1531:1544  _checkOwner() */\n      jump\t// in\n    tag_128:\n        /* \"contracts/openzeppelin/contracts/access/Ownable.sol\":2647:2648  0 */\n      0x00\n        /* \"contracts/openzeppelin/contracts/access/Ownable.sol\":2627:2649  newOwner == address(0) */\n      0xffffffffffffffffffffffffffffffffffffffff\n      and\n        /* \"contracts/openzeppelin/contracts/access/Ownable.sol\":2627:2635  newOwner */\n      dup2\n        /* \"contracts/openzeppelin/contracts/access/Ownable.sol\":2627:2649  newOwner == address(0) */\n      0xffffffffffffffffffffffffffffffffffffffff\n      and\n      sub\n        /* \"contracts/openzeppelin/contracts/access/Ownable.sol\":2623:2714  if (newOwner == address(0)) {... */\n      tag_130\n      jumpi\n        /* \"contracts/openzeppelin/contracts/access/Ownable.sol\":2700:2701  0 */\n      0x00\n        /* \"contracts/openzeppelin/contracts/access/Ownable.sol\":2672:2703  OwnableInvalidOwner(address(0)) */\n      mload(0x40)\n      0x1e4fbdf700000000000000000000000000000000000000000000000000000000\n      dup2\n      mstore\n      0x04\n      add\n      tag_131\n      swap2\n      swap1\n      tag_40\n      jump\t// in\n    tag_131:\n      mload(0x40)\n      dup1\n      swap2\n      sub\n      swap1\n      revert\n        /* \"contracts/openzeppelin/contracts/access/Ownable.sol\":2623:2714  if (newOwner == address(0)) {... */\n    tag_130:\n        /* \"contracts/openzeppelin/contracts/access/Ownable.sol\":2723:2751  _transferOwnership(newOwner) */\n      tag_132\n        /* \"contracts/openzeppelin/contracts/access/Ownable.sol\":2742:2750  newOwner */\n      dup2\n        /* \"contracts/openzeppelin/contracts/access/Ownable.sol\":2723:2741  _transferOwnership */\n      tag_118\n        /* \"contracts/openzeppelin/contracts/access/Ownable.sol\":2723:2751  _transferOwnership(newOwner) */\n      jump\t// in\n    tag_132:\n        /* \"contracts/openzeppelin/contracts/access/Ownable.sol\":2543:2758  function transferOwnership(address newOwner) public virtual onlyOwner {... */\n      pop\n      jump\t// out\n        /* \"contracts/openzeppelin/contracts/access/Ownable.sol\":1796:1958  function _checkOwner() internal view virtual {... */\n    tag_115:\n        /* \"contracts/openzeppelin/contracts/access/Ownable.sol\":1866:1878  _msgSender() */\n      tag_134\n        /* \"contracts/openzeppelin/contracts/access/Ownable.sol\":1866:1876  _msgSender */\n      tag_135\n        /* \"contracts/openzeppelin/contracts/access/Ownable.sol\":1866:1878  _msgSender() */\n      jump\t// in\n    tag_134:\n        /* \"contracts/openzeppelin/contracts/access/Ownable.sol\":1855:1878  owner() != _msgSender() */\n      0xffffffffffffffffffffffffffffffffffffffff\n      and\n        /* \"contracts/openzeppelin/contracts/access/Ownable.sol\":1855:1862  owner() */\n      tag_136\n        /* \"contracts/openzeppelin/contracts/access/Ownable.sol\":1855:1860  owner */\n      tag_38\n        /* \"contracts/openzeppelin/contracts/access/Ownable.sol\":1855:1862  owner() */\n      jump\t// in\n    tag_136:\n        /* \"contracts/openzeppelin/contracts/access/Ownable.sol\":1855:1878  owner() != _msgSender() */\n      0xffffffffffffffffffffffffffffffffffffffff\n      and\n      eq\n        /* \"contracts/openzeppelin/contracts/access/Ownable.sol\":1851:1952  if (owner() != _msgSender()) {... */\n      tag_137\n      jumpi\n        /* \"contracts/openzeppelin/contracts/access/Ownable.sol\":1928:1940  _msgSender() */\n      tag_138\n        /* \"contracts/openzeppelin/contracts/access/Ownable.sol\":1928:1938  _msgSender */\n      tag_135\n        /* \"contracts/openzeppelin/contracts/access/Ownable.sol\":1928:1940  _msgSender() */\n      jump\t// in\n    tag_138:\n        /* \"contracts/openzeppelin/contracts/access/Ownable.sol\":1901:1941  OwnableUnauthorizedAccount(_msgSender()) */\n      mload(0x40)\n      0x118cdaa700000000000000000000000000000000000000000000000000000000\n      dup2\n      mstore\n      0x04\n      add\n      tag_139\n      swap2\n      swap1\n      tag_40\n      jump\t// in\n    tag_139:\n      mload(0x40)\n      dup1\n      swap2\n      sub\n      swap1\n      revert\n        /* \"contracts/openzeppelin/contracts/access/Ownable.sol\":1851:1952  if (owner() != _msgSender()) {... */\n    tag_137:\n        /* \"contracts/openzeppelin/contracts/access/Ownable.sol\":1796:1958  function _checkOwner() internal view virtual {... */\n      jump\t// out\n        /* \"contracts/openzeppelin/contracts/access/Ownable.sol\":2912:3099  function _transferOwnership(address newOwner) internal virtual {... */\n    tag_118:\n        /* \"contracts/openzeppelin/contracts/access/Ownable.sol\":2985:3001  address oldOwner */\n      0x00\n        /* \"contracts/openzeppelin/contracts/access/Ownable.sol\":3004:3010  _owner */\n      dup1\n      0x00\n      swap1\n      sload\n      swap1\n      0x0100\n      exp\n      swap1\n      div\n      0xffffffffffffffffffffffffffffffffffffffff\n      and\n        /* \"contracts/openzeppelin/contracts/access/Ownable.sol\":2985:3010  address oldOwner = _owner */\n      swap1\n      pop\n        /* \"contracts/openzeppelin/contracts/access/Ownable.sol\":3029:3037  newOwner */\n      dup2\n        /* \"contracts/openzeppelin/contracts/access/Ownable.sol\":3020:3026  _owner */\n      0x00\n      dup1\n        /* \"contracts/openzeppelin/contracts/access/Ownable.sol\":3020:3037  _owner = newOwner */\n      0x0100\n      exp\n      dup2\n      sload\n      dup2\n      0xffffffffffffffffffffffffffffffffffffffff\n      mul\n      not\n      and\n      swap1\n      dup4\n      0xffffffffffffffffffffffffffffffffffffffff\n      and\n      mul\n      or\n      swap1\n      sstore\n      pop\n        /* \"contracts/openzeppelin/contracts/access/Ownable.sol\":3083:3091  newOwner */\n      dup2\n        /* \"contracts/openzeppelin/contracts/access/Ownable.sol\":3052:3092  OwnershipTransferred(oldOwner, newOwner) */\n      0xffffffffffffffffffffffffffffffffffffffff\n      and\n        /* \"contracts/openzeppelin/contracts/access/Ownable.sol\":3073:3081  oldOwner */\n      dup2\n        /* \"contracts/openzeppelin/contracts/access/Ownable.sol\":3052:3092  OwnershipTransferred(oldOwner, newOwner) */\n      0xffffffffffffffffffffffffffffffffffffffff\n      and\n      0x8be0079c531659141344cd1fd0a4f28419497f9722a3daafe3b4186f6b6457e0\n      mload(0x40)\n      mload(0x40)\n      dup1\n      swap2\n      sub\n      swap1\n      log3\n        /* \"contracts/openzeppelin/contracts/access/Ownable.sol\":2975:3099  {... */\n      pop\n        /* \"contracts/openzeppelin/contracts/access/Ownable.sol\":2912:3099  function _transferOwnership(address newOwner) internal virtual {... */\n      pop\n      jump\t// out\n        /* \"contracts/openzeppelin/contracts/utils/Context.sol\":656:752  function _msgSender() internal view virtual returns (address) {... */\n    tag_135:\n        /* \"contracts/openzeppelin/contracts/utils/Context.sol\":709:716  address */\n      0x00\n        /* \"contracts/openzeppelin/contracts/utils/Context.sol\":735:745  msg.sender */\n      caller\n        /* \"contracts/openzeppelin/contracts/utils/Context.sol\":728:745  return msg.sender */\n      swap1\n      pop\n        /* \"contracts/openzeppelin/contracts/utils/Context.sol\":656:752  function _msgSender() internal view virtual returns (address) {... */\n      swap1\n      jump\t// out\n        /* \"#utility.yul\":7:82   */\n    tag_142:\n        /* \"#utility.yul\":40:46   */\n      0x00\n        /* \"#utility.yul\":73:75   */\n      0x40\n        /* \"#utility.yul\":67:76   */\n      mload\n        /* \"#utility.yul\":57:76   */\n      swap1\n      pop\n        /* \"#utility.yul\":7:82   */\n      swap1\n      jump\t// out\n        /* \"#utility.yul\":88:205   */\n    tag_143:\n        /* \"#utility.yul\":197:198   */\n      0x00\n        /* \"#utility.yul\":194:195   */\n      dup1\n        /* \"#utility.yul\":187:199   */\n      revert\n        /* \"#utility.yul\":211:328   */\n    tag_144:\n        /* \"#utility.yul\":320:321   */\n      0x00\n        /* \"#utility.yul\":317:318   */\n      dup1\n        /* \"#utility.yul\":310:322   */\n      revert\n        /* \"#utility.yul\":334:411   */\n    tag_145:\n        /* \"#utility.yul\":371:378   */\n      0x00\n        /* \"#utility.yul\":400:405   */\n      dup2\n        /* \"#utility.yul\":389:405   */\n      swap1\n      pop\n        /* \"#utility.yul\":334:411   */\n      swap2\n      swap1\n      pop\n      jump\t// out\n        /* \"#utility.yul\":417:539   */\n    tag_146:\n        /* \"#utility.yul\":490:514   */\n      tag_201\n        /* \"#utility.yul\":508:513   */\n      dup2\n        /* \"#utility.yul\":490:514   */\n      tag_145\n      jump\t// in\n    tag_201:\n        /* \"#utility.yul\":483:488   */\n      dup2\n        /* \"#utility.yul\":480:515   */\n      eq\n        /* \"#utility.yul\":470:533   */\n      tag_202\n      jumpi\n        /* \"#utility.yul\":529:530   */\n      0x00\n        /* \"#utility.yul\":526:527   */\n      dup1\n        /* \"#utility.yul\":519:531   */\n      revert\n        /* \"#utility.yul\":470:533   */\n    tag_202:\n        /* \"#utility.yul\":417:539   */\n      pop\n      jump\t// out\n        /* \"#utility.yul\":545:684   */\n    tag_147:\n        /* \"#utility.yul\":591:596   */\n      0x00\n        /* \"#utility.yul\":629:635   */\n      dup2\n        /* \"#utility.yul\":616:636   */\n      calldataload\n        /* \"#utility.yul\":607:636   */\n      swap1\n      pop\n        /* \"#utility.yul\":645:678   */\n      tag_204\n        /* \"#utility.yul\":672:677   */\n      dup2\n        /* \"#utility.yul\":645:678   */\n      tag_146\n      jump\t// in\n    tag_204:\n        /* \"#utility.yul\":545:684   */\n      swap3\n      swap2\n      pop\n      pop\n      jump\t// out\n        /* \"#utility.yul\":690:1019   */\n    tag_15:\n        /* \"#utility.yul\":749:755   */\n      0x00\n        /* \"#utility.yul\":798:800   */\n      0x20\n        /* \"#utility.yul\":786:795   */\n      dup3\n        /* \"#utility.yul\":777:784   */\n      dup5\n        /* \"#utility.yul\":773:796   */\n      sub\n        /* \"#utility.yul\":769:801   */\n      slt\n        /* \"#utility.yul\":766:885   */\n      iszero\n      tag_206\n      jumpi\n        /* \"#utility.yul\":804:883   */\n      tag_207\n      tag_143\n      jump\t// in\n    tag_207:\n        /* \"#utility.yul\":766:885   */\n    tag_206:\n        /* \"#utility.yul\":924:925   */\n      0x00\n        /* \"#utility.yul\":949:1002   */\n      tag_208\n        /* \"#utility.yul\":994:1001   */\n      dup5\n        /* \"#utility.yul\":985:991   */\n      dup3\n        /* \"#utility.yul\":974:983   */\n      dup6\n        /* \"#utility.yul\":970:992   */\n      add\n        /* \"#utility.yul\":949:1002   */\n      tag_147\n      jump\t// in\n    tag_208:\n        /* \"#utility.yul\":939:1002   */\n      swap2\n      pop\n        /* \"#utility.yul\":895:1012   */\n      pop\n        /* \"#utility.yul\":690:1019   */\n      swap3\n      swap2\n      pop\n      pop\n      jump\t// out\n        /* \"#utility.yul\":1025:1124   */\n    tag_148:\n        /* \"#utility.yul\":1077:1083   */\n      0x00\n        /* \"#utility.yul\":1111:1116   */\n      dup2\n        /* \"#utility.yul\":1105:1117   */\n      mload\n        /* \"#utility.yul\":1095:1117   */\n      swap1\n      pop\n        /* \"#utility.yul\":1025:1124   */\n      swap2\n      swap1\n      pop\n      jump\t// out\n        /* \"#utility.yul\":1130:1299   */\n    tag_149:\n        /* \"#utility.yul\":1214:1225   */\n      0x00\n        /* \"#utility.yul\":1248:1254   */\n      dup3\n        /* \"#utility.yul\":1243:1246   */\n      dup3\n        /* \"#utility.yul\":1236:1255   */\n      mstore\n        /* \"#utility.yul\":1288:1292   */\n      0x20\n        /* \"#utility.yul\":1283:1286   */\n      dup3\n        /* \"#utility.yul\":1279:1293   */\n      add\n        /* \"#utility.yul\":1264:1293   */\n      swap1\n      pop\n        /* \"#utility.yul\":1130:1299   */\n      swap3\n      swap2\n      pop\n      pop\n      jump\t// out\n        /* \"#utility.yul\":1305:1551   */\n    tag_150:\n        /* \"#utility.yul\":1386:1387   */\n      0x00\n        /* \"#utility.yul\":1396:1509   */\n    tag_212:\n        /* \"#utility.yul\":1410:1416   */\n      dup4\n        /* \"#utility.yul\":1407:1408   */\n      dup2\n        /* \"#utility.yul\":1404:1417   */\n      lt\n        /* \"#utility.yul\":1396:1509   */\n      iszero\n      tag_214\n      jumpi\n        /* \"#utility.yul\":1495:1496   */\n      dup1\n        /* \"#utility.yul\":1490:1493   */\n      dup3\n        /* \"#utility.yul\":1486:1497   */\n      add\n        /* \"#utility.yul\":1480:1498   */\n      mload\n        /* \"#utility.yul\":1476:1477   */\n      dup2\n        /* \"#utility.yul\":1471:1474   */\n      dup5\n        /* \"#utility.yul\":1467:1478   */\n      add\n        /* \"#utility.yul\":1460:1499   */\n      mstore\n        /* \"#utility.yul\":1432:1434   */\n      0x20\n        /* \"#utility.yul\":1429:1430   */\n      dup2\n        /* \"#utility.yul\":1425:1435   */\n      add\n        /* \"#utility.yul\":1420:1435   */\n      swap1\n      pop\n        /* \"#utility.yul\":1396:1509   */\n      jump(tag_212)\n    tag_214:\n        /* \"#utility.yul\":1543:1544   */\n      0x00\n        /* \"#utility.yul\":1534:1540   */\n      dup5\n        /* \"#utility.yul\":1529:1532   */\n      dup5\n        /* \"#utility.yul\":1525:1541   */\n      add\n        /* \"#utility.yul\":1518:1545   */\n      mstore\n        /* \"#utility.yul\":1367:1551   */\n      pop\n        /* \"#utility.yul\":1305:1551   */\n      pop\n      pop\n      pop\n      jump\t// out\n        /* \"#utility.yul\":1557:1659   */\n    tag_151:\n        /* \"#utility.yul\":1598:1604   */\n      0x00\n        /* \"#utility.yul\":1649:1651   */\n      0x1f\n        /* \"#utility.yul\":1645:1652   */\n      not\n        /* \"#utility.yul\":1640:1642   */\n      0x1f\n        /* \"#utility.yul\":1633:1638   */\n      dup4\n        /* \"#utility.yul\":1629:1643   */\n      add\n        /* \"#utility.yul\":1625:1653   */\n      and\n        /* \"#utility.yul\":1615:1653   */\n      swap1\n      pop\n        /* \"#utility.yul\":1557:1659   */\n      swap2\n      swap1\n      pop\n      jump\t// out\n        /* \"#utility.yul\":1665:2042   */\n    tag_152:\n        /* \"#utility.yul\":1753:1756   */\n      0x00\n        /* \"#utility.yul\":1781:1820   */\n      tag_217\n        /* \"#utility.yul\":1814:1819   */\n      dup3\n        /* \"#utility.yul\":1781:1820   */\n      tag_148\n      jump\t// in\n    tag_217:\n        /* \"#utility.yul\":1836:1907   */\n      tag_218\n        /* \"#utility.yul\":1900:1906   */\n      dup2\n        /* \"#utility.yul\":1895:1898   */\n      dup6\n        /* \"#utility.yul\":1836:1907   */\n      tag_149\n      jump\t// in\n    tag_218:\n        /* \"#utility.yul\":1829:1907   */\n      swap4\n      pop\n        /* \"#utility.yul\":1916:1981   */\n      tag_219\n        /* \"#utility.yul\":1974:1980   */\n      dup2\n        /* \"#utility.yul\":1969:1972   */\n      dup6\n        /* \"#utility.yul\":1962:1966   */\n      0x20\n        /* \"#utility.yul\":1955:1960   */\n      dup7\n        /* \"#utility.yul\":1951:1967   */\n      add\n        /* \"#utility.yul\":1916:1981   */\n      tag_150\n      jump\t// in\n    tag_219:\n        /* \"#utility.yul\":2006:2035   */\n      tag_220\n        /* \"#utility.yul\":2028:2034   */\n      dup2\n        /* \"#utility.yul\":2006:2035   */\n      tag_151\n      jump\t// in\n    tag_220:\n        /* \"#utility.yul\":2001:2004   */\n      dup5\n        /* \"#utility.yul\":1997:2036   */\n      add\n        /* \"#utility.yul\":1990:2036   */\n      swap2\n      pop\n        /* \"#utility.yul\":1757:2042   */\n      pop\n        /* \"#utility.yul\":1665:2042   */\n      swap3\n      swap2\n      pop\n      pop\n      jump\t// out\n        /* \"#utility.yul\":2048:2166   */\n    tag_153:\n        /* \"#utility.yul\":2135:2159   */\n      tag_222\n        /* \"#utility.yul\":2153:2158   */\n      dup2\n        /* \"#utility.yul\":2135:2159   */\n      tag_145\n      jump\t// in\n    tag_222:\n        /* \"#utility.yul\":2130:2133   */\n      dup3\n        /* \"#utility.yul\":2123:2160   */\n      mstore\n        /* \"#utility.yul\":2048:2166   */\n      pop\n      pop\n      jump\t// out\n        /* \"#utility.yul\":2172:2298   */\n    tag_154:\n        /* \"#utility.yul\":2209:2216   */\n      0x00\n        /* \"#utility.yul\":2249:2291   */\n      0xffffffffffffffffffffffffffffffffffffffff\n        /* \"#utility.yul\":2242:2247   */\n      dup3\n        /* \"#utility.yul\":2238:2292   */\n      and\n        /* \"#utility.yul\":2227:2292   */\n      swap1\n      pop\n        /* \"#utility.yul\":2172:2298   */\n      swap2\n      swap1\n      pop\n      jump\t// out\n        /* \"#utility.yul\":2304:2400   */\n    tag_155:\n        /* \"#utility.yul\":2341:2348   */\n      0x00\n        /* \"#utility.yul\":2370:2394   */\n      tag_225\n        /* \"#utility.yul\":2388:2393   */\n      dup3\n        /* \"#utility.yul\":2370:2394   */\n      tag_154\n      jump\t// in\n    tag_225:\n        /* \"#utility.yul\":2359:2394   */\n      swap1\n      pop\n        /* \"#utility.yul\":2304:2400   */\n      swap2\n      swap1\n      pop\n      jump\t// out\n        /* \"#utility.yul\":2406:2524   */\n    tag_156:\n        /* \"#utility.yul\":2493:2517   */\n      tag_227\n        /* \"#utility.yul\":2511:2516   */\n      dup2\n        /* \"#utility.yul\":2493:2517   */\n      tag_155\n      jump\t// in\n    tag_227:\n        /* \"#utility.yul\":2488:2491   */\n      dup3\n        /* \"#utility.yul\":2481:2518   */\n      mstore\n        /* \"#utility.yul\":2406:2524   */\n      pop\n      pop\n      jump\t// out\n        /* \"#utility.yul\":2530:3467   */\n    tag_18:\n        /* \"#utility.yul\":2795:2799   */\n      0x00\n        /* \"#utility.yul\":2833:2836   */\n      0xa0\n        /* \"#utility.yul\":2822:2831   */\n      dup3\n        /* \"#utility.yul\":2818:2837   */\n      add\n        /* \"#utility.yul\":2810:2837   */\n      swap1\n      pop\n        /* \"#utility.yul\":2883:2892   */\n      dup2\n        /* \"#utility.yul\":2877:2881   */\n      dup2\n        /* \"#utility.yul\":2873:2893   */\n      sub\n        /* \"#utility.yul\":2869:2870   */\n      0x00\n        /* \"#utility.yul\":2858:2867   */\n      dup4\n        /* \"#utility.yul\":2854:2871   */\n      add\n        /* \"#utility.yul\":2847:2894   */\n      mstore\n        /* \"#utility.yul\":2911:2989   */\n      tag_229\n        /* \"#utility.yul\":2984:2988   */\n      dup2\n        /* \"#utility.yul\":2975:2981   */\n      dup9\n        /* \"#utility.yul\":2911:2989   */\n      tag_152\n      jump\t// in\n    tag_229:\n        /* \"#utility.yul\":2903:2989   */\n      swap1\n      pop\n        /* \"#utility.yul\":3036:3045   */\n      dup2\n        /* \"#utility.yul\":3030:3034   */\n      dup2\n        /* \"#utility.yul\":3026:3046   */\n      sub\n        /* \"#utility.yul\":3021:3023   */\n      0x20\n        /* \"#utility.yul\":3010:3019   */\n      dup4\n        /* \"#utility.yul\":3006:3024   */\n      add\n        /* \"#utility.yul\":2999:3047   */\n      mstore\n        /* \"#utility.yul\":3064:3142   */\n      tag_230\n        /* \"#utility.yul\":3137:3141   */\n      dup2\n        /* \"#utility.yul\":3128:3134   */\n      dup8\n        /* \"#utility.yul\":3064:3142   */\n      tag_152\n      jump\t// in\n    tag_230:\n        /* \"#utility.yul\":3056:3142   */\n      swap1\n      pop\n        /* \"#utility.yul\":3189:3198   */\n      dup2\n        /* \"#utility.yul\":3183:3187   */\n      dup2\n        /* \"#utility.yul\":3179:3199   */\n      sub\n        /* \"#utility.yul\":3174:3176   */\n      0x40\n        /* \"#utility.yul\":3163:3172   */\n      dup4\n        /* \"#utility.yul\":3159:3177   */\n      add\n        /* \"#utility.yul\":3152:3200   */\n      mstore\n        /* \"#utility.yul\":3217:3295   */\n      tag_231\n        /* \"#utility.yul\":3290:3294   */\n      dup2\n        /* \"#utility.yul\":3281:3287   */\n      dup7\n        /* \"#utility.yul\":3217:3295   */\n      tag_152\n      jump\t// in\n    tag_231:\n        /* \"#utility.yul\":3209:3295   */\n      swap1\n      pop\n        /* \"#utility.yul\":3305:3377   */\n      tag_232\n        /* \"#utility.yul\":3373:3375   */\n      0x60\n        /* \"#utility.yul\":3362:3371   */\n      dup4\n        /* \"#utility.yul\":3358:3376   */\n      add\n        /* \"#utility.yul\":3349:3355   */\n      dup6\n        /* \"#utility.yul\":3305:3377   */\n      tag_153\n      jump\t// in\n    tag_232:\n        /* \"#utility.yul\":3387:3460   */\n      tag_233\n        /* \"#utility.yul\":3455:3458   */\n      0x80\n        /* \"#utility.yul\":3444:3453   */\n      dup4\n        /* \"#utility.yul\":3440:3459   */\n      add\n        /* \"#utility.yul\":3431:3437   */\n      dup5\n        /* \"#utility.yul\":3387:3460   */\n      tag_156\n      jump\t// in\n    tag_233:\n        /* \"#utility.yul\":2530:3467   */\n      swap7\n      swap6\n      pop\n      pop\n      pop\n      pop\n      pop\n      pop\n      jump\t// out\n        /* \"#utility.yul\":3473:3595   */\n    tag_157:\n        /* \"#utility.yul\":3546:3570   */\n      tag_235\n        /* \"#utility.yul\":3564:3569   */\n      dup2\n        /* \"#utility.yul\":3546:3570   */\n      tag_155\n      jump\t// in\n    tag_235:\n        /* \"#utility.yul\":3539:3544   */\n      dup2\n        /* \"#utility.yul\":3536:3571   */\n      eq\n        /* \"#utility.yul\":3526:3589   */\n      tag_236\n      jumpi\n        /* \"#utility.yul\":3585:3586   */\n      0x00\n        /* \"#utility.yul\":3582:3583   */\n      dup1\n        /* \"#utility.yul\":3575:3587   */\n      revert\n        /* \"#utility.yul\":3526:3589   */\n    tag_236:\n        /* \"#utility.yul\":3473:3595   */\n      pop\n      jump\t// out\n        /* \"#utility.yul\":3601:3740   */\n    tag_158:\n        /* \"#utility.yul\":3647:3652   */\n      0x00\n        /* \"#utility.yul\":3685:3691   */\n      dup2\n        /* \"#utility.yul\":3672:3692   */\n      calldataload\n        /* \"#utility.yul\":3663:3692   */\n      swap1\n      pop\n        /* \"#utility.yul\":3701:3734   */\n      tag_238\n        /* \"#utility.yul\":3728:3733   */\n      dup2\n        /* \"#utility.yul\":3701:3734   */\n      tag_157\n      jump\t// in\n    tag_238:\n        /* \"#utility.yul\":3601:3740   */\n      swap3\n      swap2\n      pop\n      pop\n      jump\t// out\n        /* \"#utility.yul\":3746:4220   */\n    tag_21:\n        /* \"#utility.yul\":3814:3820   */\n      0x00\n        /* \"#utility.yul\":3822:3828   */\n      dup1\n        /* \"#utility.yul\":3871:3873   */\n      0x40\n        /* \"#utility.yul\":3859:3868   */\n      dup4\n        /* \"#utility.yul\":3850:3857   */\n      dup6\n        /* \"#utility.yul\":3846:3869   */\n      sub\n        /* \"#utility.yul\":3842:3874   */\n      slt\n        /* \"#utility.yul\":3839:3958   */\n      iszero\n      tag_240\n      jumpi\n        /* \"#utility.yul\":3877:3956   */\n      tag_241\n      tag_143\n      jump\t// in\n    tag_241:\n        /* \"#utility.yul\":3839:3958   */\n    tag_240:\n        /* \"#utility.yul\":3997:3998   */\n      0x00\n        /* \"#utility.yul\":4022:4075   */\n      tag_242\n        /* \"#utility.yul\":4067:4074   */\n      dup6\n        /* \"#utility.yul\":4058:4064   */\n      dup3\n        /* \"#utility.yul\":4047:4056   */\n      dup7\n        /* \"#utility.yul\":4043:4065   */\n      add\n        /* \"#utility.yul\":4022:4075   */\n      tag_147\n      jump\t// in\n    tag_242:\n        /* \"#utility.yul\":4012:4075   */\n      swap3\n      pop\n        /* \"#utility.yul\":3968:4085   */\n      pop\n        /* \"#utility.yul\":4124:4126   */\n      0x20\n        /* \"#utility.yul\":4150:4203   */\n      tag_243\n        /* \"#utility.yul\":4195:4202   */\n      dup6\n        /* \"#utility.yul\":4186:4192   */\n      dup3\n        /* \"#utility.yul\":4175:4184   */\n      dup7\n        /* \"#utility.yul\":4171:4193   */\n      add\n        /* \"#utility.yul\":4150:4203   */\n      tag_158\n      jump\t// in\n    tag_243:\n        /* \"#utility.yul\":4140:4203   */\n      swap2\n      pop\n        /* \"#utility.yul\":4095:4213   */\n      pop\n        /* \"#utility.yul\":3746:4220   */\n      swap3\n      pop\n      swap3\n      swap1\n      pop\n      jump\t// out\n        /* \"#utility.yul\":4226:4343   */\n    tag_159:\n        /* \"#utility.yul\":4335:4336   */\n      0x00\n        /* \"#utility.yul\":4332:4333   */\n      dup1\n        /* \"#utility.yul\":4325:4337   */\n      revert\n        /* \"#utility.yul\":4349:4466   */\n    tag_160:\n        /* \"#utility.yul\":4458:4459   */\n      0x00\n        /* \"#utility.yul\":4455:4456   */\n      dup1\n        /* \"#utility.yul\":4448:4460   */\n      revert\n        /* \"#utility.yul\":4472:4652   */\n    tag_161:\n        /* \"#utility.yul\":4520:4597   */\n      0x4e487b7100000000000000000000000000000000000000000000000000000000\n        /* \"#utility.yul\":4517:4518   */\n      0x00\n        /* \"#utility.yul\":4510:4598   */\n      mstore\n        /* \"#utility.yul\":4617:4621   */\n      0x41\n        /* \"#utility.yul\":4614:4615   */\n      0x04\n        /* \"#utility.yul\":4607:4622   */\n      mstore\n        /* \"#utility.yul\":4641:4645   */\n      0x24\n        /* \"#utility.yul\":4638:4639   */\n      0x00\n        /* \"#utility.yul\":4631:4646   */\n      revert\n        /* \"#utility.yul\":4658:4939   */\n    tag_162:\n        /* \"#utility.yul\":4741:4768   */\n      tag_248\n        /* \"#utility.yul\":4763:4767   */\n      dup3\n        /* \"#utility.yul\":4741:4768   */\n      tag_151\n      jump\t// in\n    tag_248:\n        /* \"#utility.yul\":4733:4739   */\n      dup2\n        /* \"#utility.yul\":4729:4769   */\n      add\n        /* \"#utility.yul\":4871:4877   */\n      dup2\n        /* \"#utility.yul\":4859:4869   */\n      dup2\n        /* \"#utility.yul\":4856:4878   */\n      lt\n        /* \"#utility.yul\":4835:4853   */\n      0xffffffffffffffff\n        /* \"#utility.yul\":4823:4833   */\n      dup3\n        /* \"#utility.yul\":4820:4854   */\n      gt\n        /* \"#utility.yul\":4817:4879   */\n      or\n        /* \"#utility.yul\":4814:4902   */\n      iszero\n      tag_249\n      jumpi\n        /* \"#utility.yul\":4882:4900   */\n      tag_250\n      tag_161\n      jump\t// in\n    tag_250:\n        /* \"#utility.yul\":4814:4902   */\n    tag_249:\n        /* \"#utility.yul\":4922:4932   */\n      dup1\n        /* \"#utility.yul\":4918:4920   */\n      0x40\n        /* \"#utility.yul\":4911:4933   */\n      mstore\n        /* \"#utility.yul\":4701:4939   */\n      pop\n        /* \"#utility.yul\":4658:4939   */\n      pop\n      pop\n      jump\t// out\n        /* \"#utility.yul\":4945:5074   */\n    tag_163:\n        /* \"#utility.yul\":4979:4985   */\n      0x00\n        /* \"#utility.yul\":5006:5026   */\n      tag_252\n      tag_142\n      jump\t// in\n    tag_252:\n        /* \"#utility.yul\":4996:5026   */\n      swap1\n      pop\n        /* \"#utility.yul\":5035:5068   */\n      tag_253\n        /* \"#utility.yul\":5063:5067   */\n      dup3\n        /* \"#utility.yul\":5055:5061   */\n      dup3\n        /* \"#utility.yul\":5035:5068   */\n      tag_162\n      jump\t// in\n    tag_253:\n        /* \"#utility.yul\":4945:5074   */\n      swap2\n      swap1\n      pop\n      jump\t// out\n        /* \"#utility.yul\":5080:5388   */\n    tag_164:\n        /* \"#utility.yul\":5142:5146   */\n      0x00\n        /* \"#utility.yul\":5232:5250   */\n      0xffffffffffffffff\n        /* \"#utility.yul\":5224:5230   */\n      dup3\n        /* \"#utility.yul\":5221:5251   */\n      gt\n        /* \"#utility.yul\":5218:5274   */\n      iszero\n      tag_255\n      jumpi\n        /* \"#utility.yul\":5254:5272   */\n      tag_256\n      tag_161\n      jump\t// in\n    tag_256:\n        /* \"#utility.yul\":5218:5274   */\n    tag_255:\n        /* \"#utility.yul\":5292:5321   */\n      tag_257\n        /* \"#utility.yul\":5314:5320   */\n      dup3\n        /* \"#utility.yul\":5292:5321   */\n      tag_151\n      jump\t// in\n    tag_257:\n        /* \"#utility.yul\":5284:5321   */\n      swap1\n      pop\n        /* \"#utility.yul\":5376:5380   */\n      0x20\n        /* \"#utility.yul\":5370:5374   */\n      dup2\n        /* \"#utility.yul\":5366:5381   */\n      add\n        /* \"#utility.yul\":5358:5381   */\n      swap1\n      pop\n        /* \"#utility.yul\":5080:5388   */\n      swap2\n      swap1\n      pop\n      jump\t// out\n        /* \"#utility.yul\":5394:5540   */\n    tag_165:\n        /* \"#utility.yul\":5491:5497   */\n      dup3\n        /* \"#utility.yul\":5486:5489   */\n      dup2\n        /* \"#utility.yul\":5481:5484   */\n      dup4\n        /* \"#utility.yul\":5468:5498   */\n      calldatacopy\n        /* \"#utility.yul\":5532:5533   */\n      0x00\n        /* \"#utility.yul\":5523:5529   */\n      dup4\n        /* \"#utility.yul\":5518:5521   */\n      dup4\n        /* \"#utility.yul\":5514:5530   */\n      add\n        /* \"#utility.yul\":5507:5534   */\n      mstore\n        /* \"#utility.yul\":5394:5540   */\n      pop\n      pop\n      pop\n      jump\t// out\n        /* \"#utility.yul\":5546:5971   */\n    tag_166:\n        /* \"#utility.yul\":5624:5629   */\n      0x00\n        /* \"#utility.yul\":5649:5715   */\n      tag_260\n        /* \"#utility.yul\":5665:5714   */\n      tag_261\n        /* \"#utility.yul\":5707:5713   */\n      dup5\n        /* \"#utility.yul\":5665:5714   */\n      tag_164\n      jump\t// in\n    tag_261:\n        /* \"#utility.yul\":5649:5715   */\n      tag_163\n      jump\t// in\n    tag_260:\n        /* \"#utility.yul\":5640:5715   */\n      swap1\n      pop\n        /* \"#utility.yul\":5738:5744   */\n      dup3\n        /* \"#utility.yul\":5731:5736   */\n      dup2\n        /* \"#utility.yul\":5724:5745   */\n      mstore\n        /* \"#utility.yul\":5776:5780   */\n      0x20\n        /* \"#utility.yul\":5769:5774   */\n      dup2\n        /* \"#utility.yul\":5765:5781   */\n      add\n        /* \"#utility.yul\":5814:5817   */\n      dup5\n        /* \"#utility.yul\":5805:5811   */\n      dup5\n        /* \"#utility.yul\":5800:5803   */\n      dup5\n        /* \"#utility.yul\":5796:5812   */\n      add\n        /* \"#utility.yul\":5793:5818   */\n      gt\n        /* \"#utility.yul\":5790:5902   */\n      iszero\n      tag_262\n      jumpi\n        /* \"#utility.yul\":5821:5900   */\n      tag_263\n      tag_160\n      jump\t// in\n    tag_263:\n        /* \"#utility.yul\":5790:5902   */\n    tag_262:\n        /* \"#utility.yul\":5911:5965   */\n      tag_264\n        /* \"#utility.yul\":5958:5964   */\n      dup5\n        /* \"#utility.yul\":5953:5956   */\n      dup3\n        /* \"#utility.yul\":5948:5951   */\n      dup6\n        /* \"#utility.yul\":5911:5965   */\n      tag_165\n      jump\t// in\n    tag_264:\n        /* \"#utility.yul\":5630:5971   */\n      pop\n        /* \"#utility.yul\":5546:5971   */\n      swap4\n      swap3\n      pop\n      pop\n      pop\n      jump\t// out\n        /* \"#utility.yul\":5991:6331   */\n    tag_167:\n        /* \"#utility.yul\":6047:6052   */\n      0x00\n        /* \"#utility.yul\":6096:6099   */\n      dup3\n        /* \"#utility.yul\":6089:6093   */\n      0x1f\n        /* \"#utility.yul\":6081:6087   */\n      dup4\n        /* \"#utility.yul\":6077:6094   */\n      add\n        /* \"#utility.yul\":6073:6100   */\n      slt\n        /* \"#utility.yul\":6063:6185   */\n      tag_266\n      jumpi\n        /* \"#utility.yul\":6104:6183   */\n      tag_267\n      tag_159\n      jump\t// in\n    tag_267:\n        /* \"#utility.yul\":6063:6185   */\n    tag_266:\n        /* \"#utility.yul\":6221:6227   */\n      dup2\n        /* \"#utility.yul\":6208:6228   */\n      calldataload\n        /* \"#utility.yul\":6246:6325   */\n      tag_268\n        /* \"#utility.yul\":6321:6324   */\n      dup5\n        /* \"#utility.yul\":6313:6319   */\n      dup3\n        /* \"#utility.yul\":6306:6310   */\n      0x20\n        /* \"#utility.yul\":6298:6304   */\n      dup7\n        /* \"#utility.yul\":6294:6311   */\n      add\n        /* \"#utility.yul\":6246:6325   */\n      tag_166\n      jump\t// in\n    tag_268:\n        /* \"#utility.yul\":6237:6325   */\n      swap2\n      pop\n        /* \"#utility.yul\":6053:6331   */\n      pop\n        /* \"#utility.yul\":5991:6331   */\n      swap3\n      swap2\n      pop\n      pop\n      jump\t// out\n        /* \"#utility.yul\":6337:7496   */\n    tag_25:\n        /* \"#utility.yul\":6444:6450   */\n      0x00\n        /* \"#utility.yul\":6452:6458   */\n      dup1\n        /* \"#utility.yul\":6460:6466   */\n      0x00\n        /* \"#utility.yul\":6509:6511   */\n      0x60\n        /* \"#utility.yul\":6497:6506   */\n      dup5\n        /* \"#utility.yul\":6488:6495   */\n      dup7\n        /* \"#utility.yul\":6484:6507   */\n      sub\n        /* \"#utility.yul\":6480:6512   */\n      slt\n        /* \"#utility.yul\":6477:6596   */\n      iszero\n      tag_270\n      jumpi\n        /* \"#utility.yul\":6515:6594   */\n      tag_271\n      tag_143\n      jump\t// in\n    tag_271:\n        /* \"#utility.yul\":6477:6596   */\n    tag_270:\n        /* \"#utility.yul\":6663:6664   */\n      0x00\n        /* \"#utility.yul\":6652:6661   */\n      dup5\n        /* \"#utility.yul\":6648:6665   */\n      add\n        /* \"#utility.yul\":6635:6666   */\n      calldataload\n        /* \"#utility.yul\":6693:6711   */\n      0xffffffffffffffff\n        /* \"#utility.yul\":6685:6691   */\n      dup2\n        /* \"#utility.yul\":6682:6712   */\n      gt\n        /* \"#utility.yul\":6679:6796   */\n      iszero\n      tag_272\n      jumpi\n        /* \"#utility.yul\":6715:6794   */\n      tag_273\n      tag_144\n      jump\t// in\n    tag_273:\n        /* \"#utility.yul\":6679:6796   */\n    tag_272:\n        /* \"#utility.yul\":6820:6883   */\n      tag_274\n        /* \"#utility.yul\":6875:6882   */\n      dup7\n        /* \"#utility.yul\":6866:6872   */\n      dup3\n        /* \"#utility.yul\":6855:6864   */\n      dup8\n        /* \"#utility.yul\":6851:6873   */\n      add\n        /* \"#utility.yul\":6820:6883   */\n      tag_167\n      jump\t// in\n    tag_274:\n        /* \"#utility.yul\":6810:6883   */\n      swap4\n      pop\n        /* \"#utility.yul\":6606:6893   */\n      pop\n        /* \"#utility.yul\":6960:6962   */\n      0x20\n        /* \"#utility.yul\":6949:6958   */\n      dup5\n        /* \"#utility.yul\":6945:6963   */\n      add\n        /* \"#utility.yul\":6932:6964   */\n      calldataload\n        /* \"#utility.yul\":6991:7009   */\n      0xffffffffffffffff\n        /* \"#utility.yul\":6983:6989   */\n      dup2\n        /* \"#utility.yul\":6980:7010   */\n      gt\n        /* \"#utility.yul\":6977:7094   */\n      iszero\n      tag_275\n      jumpi\n        /* \"#utility.yul\":7013:7092   */\n      tag_276\n      tag_144\n      jump\t// in\n    tag_276:\n        /* \"#utility.yul\":6977:7094   */\n    tag_275:\n        /* \"#utility.yul\":7118:7181   */\n      tag_277\n        /* \"#utility.yul\":7173:7180   */\n      dup7\n        /* \"#utility.yul\":7164:7170   */\n      dup3\n        /* \"#utility.yul\":7153:7162   */\n      dup8\n        /* \"#utility.yul\":7149:7171   */\n      add\n        /* \"#utility.yul\":7118:7181   */\n      tag_167\n      jump\t// in\n    tag_277:\n        /* \"#utility.yul\":7108:7181   */\n      swap3\n      pop\n        /* \"#utility.yul\":6903:7191   */\n      pop\n        /* \"#utility.yul\":7258:7260   */\n      0x40\n        /* \"#utility.yul\":7247:7256   */\n      dup5\n        /* \"#utility.yul\":7243:7261   */\n      add\n        /* \"#utility.yul\":7230:7262   */\n      calldataload\n        /* \"#utility.yul\":7289:7307   */\n      0xffffffffffffffff\n        /* \"#utility.yul\":7281:7287   */\n      dup2\n        /* \"#utility.yul\":7278:7308   */\n      gt\n        /* \"#utility.yul\":7275:7392   */\n      iszero\n      tag_278\n      jumpi\n        /* \"#utility.yul\":7311:7390   */\n      tag_279\n      tag_144\n      jump\t// in\n    tag_279:\n        /* \"#utility.yul\":7275:7392   */\n    tag_278:\n        /* \"#utility.yul\":7416:7479   */\n      tag_280\n        /* \"#utility.yul\":7471:7478   */\n      dup7\n        /* \"#utility.yul\":7462:7468   */\n      dup3\n        /* \"#utility.yul\":7451:7460   */\n      dup8\n        /* \"#utility.yul\":7447:7469   */\n      add\n        /* \"#utility.yul\":7416:7479   */\n      tag_167\n      jump\t// in\n    tag_280:\n        /* \"#utility.yul\":7406:7479   */\n      swap2\n      pop\n        /* \"#utility.yul\":7201:7489   */\n      pop\n        /* \"#utility.yul\":6337:7496   */\n      swap3\n      pop\n      swap3\n      pop\n      swap3\n      jump\t// out\n        /* \"#utility.yul\":7502:7724   */\n    tag_34:\n        /* \"#utility.yul\":7595:7599   */\n      0x00\n        /* \"#utility.yul\":7633:7635   */\n      0x20\n        /* \"#utility.yul\":7622:7631   */\n      dup3\n        /* \"#utility.yul\":7618:7636   */\n      add\n        /* \"#utility.yul\":7610:7636   */\n      swap1\n      pop\n        /* \"#utility.yul\":7646:7717   */\n      tag_282\n        /* \"#utility.yul\":7714:7715   */\n      0x00\n        /* \"#utility.yul\":7703:7712   */\n      dup4\n        /* \"#utility.yul\":7699:7716   */\n      add\n        /* \"#utility.yul\":7690:7696   */\n      dup5\n        /* \"#utility.yul\":7646:7717   */\n      tag_153\n      jump\t// in\n    tag_282:\n        /* \"#utility.yul\":7502:7724   */\n      swap3\n      swap2\n      pop\n      pop\n      jump\t// out\n        /* \"#utility.yul\":7730:7952   */\n    tag_40:\n        /* \"#utility.yul\":7823:7827   */\n      0x00\n        /* \"#utility.yul\":7861:7863   */\n      0x20\n        /* \"#utility.yul\":7850:7859   */\n      dup3\n        /* \"#utility.yul\":7846:7864   */\n      add\n        /* \"#utility.yul\":7838:7864   */\n      swap1\n      pop\n        /* \"#utility.yul\":7874:7945   */\n      tag_284\n        /* \"#utility.yul\":7942:7943   */\n      0x00\n        /* \"#utility.yul\":7931:7940   */\n      dup4\n        /* \"#utility.yul\":7927:7944   */\n      add\n        /* \"#utility.yul\":7918:7924   */\n      dup5\n        /* \"#utility.yul\":7874:7945   */\n      tag_156\n      jump\t// in\n    tag_284:\n        /* \"#utility.yul\":7730:7952   */\n      swap3\n      swap2\n      pop\n      pop\n      jump\t// out\n        /* \"#utility.yul\":7958:8287   */\n    tag_43:\n        /* \"#utility.yul\":8017:8023   */\n      0x00\n        /* \"#utility.yul\":8066:8068   */\n      0x20\n        /* \"#utility.yul\":8054:8063   */\n      dup3\n        /* \"#utility.yul\":8045:8052   */\n      dup5\n        /* \"#utility.yul\":8041:8064   */\n      sub\n        /* \"#utility.yul\":8037:8069   */\n      slt\n        /* \"#utility.yul\":8034:8153   */\n      iszero\n      tag_286\n      jumpi\n        /* \"#utility.yul\":8072:8151   */\n      tag_287\n      tag_143\n      jump\t// in\n    tag_287:\n        /* \"#utility.yul\":8034:8153   */\n    tag_286:\n        /* \"#utility.yul\":8192:8193   */\n      0x00\n        /* \"#utility.yul\":8217:8270   */\n      tag_288\n        /* \"#utility.yul\":8262:8269   */\n      dup5\n        /* \"#utility.yul\":8253:8259   */\n      dup3\n        /* \"#utility.yul\":8242:8251   */\n      dup6\n        /* \"#utility.yul\":8238:8260   */\n      add\n        /* \"#utility.yul\":8217:8270   */\n      tag_158\n      jump\t// in\n    tag_288:\n        /* \"#utility.yul\":8207:8270   */\n      swap2\n      pop\n        /* \"#utility.yul\":8163:8280   */\n      pop\n        /* \"#utility.yul\":7958:8287   */\n      swap3\n      swap2\n      pop\n      pop\n      jump\t// out\n        /* \"#utility.yul\":8293:8465   */\n    tag_168:\n        /* \"#utility.yul\":8433:8457   */\n      0x417274776f726b20646f6573206e6f7420657869737400000000000000000000\n        /* \"#utility.yul\":8429:8430   */\n      0x00\n        /* \"#utility.yul\":8421:8427   */\n      dup3\n        /* \"#utility.yul\":8417:8431   */\n      add\n        /* \"#utility.yul\":8410:8458   */\n      mstore\n        /* \"#utility.yul\":8293:8465   */\n      pop\n      jump\t// out\n        /* \"#utility.yul\":8471:8837   */\n    tag_169:\n        /* \"#utility.yul\":8613:8616   */\n      0x00\n        /* \"#utility.yul\":8634:8701   */\n      tag_291\n        /* \"#utility.yul\":8698:8700   */\n      0x16\n        /* \"#utility.yul\":8693:8696   */\n      dup4\n        /* \"#utility.yul\":8634:8701   */\n      tag_149\n      jump\t// in\n    tag_291:\n        /* \"#utility.yul\":8627:8701   */\n      swap2\n      pop\n        /* \"#utility.yul\":8710:8803   */\n      tag_292\n        /* \"#utility.yul\":8799:8802   */\n      dup3\n        /* \"#utility.yul\":8710:8803   */\n      tag_168\n      jump\t// in\n    tag_292:\n        /* \"#utility.yul\":8828:8830   */\n      0x20\n        /* \"#utility.yul\":8823:8826   */\n      dup3\n        /* \"#utility.yul\":8819:8831   */\n      add\n        /* \"#utility.yul\":8812:8831   */\n      swap1\n      pop\n        /* \"#utility.yul\":8471:8837   */\n      swap2\n      swap1\n      pop\n      jump\t// out\n        /* \"#utility.yul\":8843:9262   */\n    tag_51:\n        /* \"#utility.yul\":9009:9013   */\n      0x00\n        /* \"#utility.yul\":9047:9049   */\n      0x20\n        /* \"#utility.yul\":9036:9045   */\n      dup3\n        /* \"#utility.yul\":9032:9050   */\n      add\n        /* \"#utility.yul\":9024:9050   */\n      swap1\n      pop\n        /* \"#utility.yul\":9096:9105   */\n      dup2\n        /* \"#utility.yul\":9090:9094   */\n      dup2\n        /* \"#utility.yul\":9086:9106   */\n      sub\n        /* \"#utility.yul\":9082:9083   */\n      0x00\n        /* \"#utility.yul\":9071:9080   */\n      dup4\n        /* \"#utility.yul\":9067:9084   */\n      add\n        /* \"#utility.yul\":9060:9107   */\n      mstore\n        /* \"#utility.yul\":9124:9255   */\n      tag_294\n        /* \"#utility.yul\":9250:9254   */\n      dup2\n        /* \"#utility.yul\":9124:9255   */\n      tag_169\n      jump\t// in\n    tag_294:\n        /* \"#utility.yul\":9116:9255   */\n      swap1\n      pop\n        /* \"#utility.yul\":8843:9262   */\n      swap2\n      swap1\n      pop\n      jump\t// out\n        /* \"#utility.yul\":9268:9448   */\n    tag_170:\n        /* \"#utility.yul\":9316:9393   */\n      0x4e487b7100000000000000000000000000000000000000000000000000000000\n        /* \"#utility.yul\":9313:9314   */\n      0x00\n        /* \"#utility.yul\":9306:9394   */\n      mstore\n        /* \"#utility.yul\":9413:9417   */\n      0x22\n        /* \"#utility.yul\":9410:9411   */\n      0x04\n        /* \"#utility.yul\":9403:9418   */\n      mstore\n        /* \"#utility.yul\":9437:9441   */\n      0x24\n        /* \"#utility.yul\":9434:9435   */\n      0x00\n        /* \"#utility.yul\":9427:9442   */\n      revert\n        /* \"#utility.yul\":9454:9774   */\n    tag_54:\n        /* \"#utility.yul\":9498:9504   */\n      0x00\n        /* \"#utility.yul\":9535:9536   */\n      0x02\n        /* \"#utility.yul\":9529:9533   */\n      dup3\n        /* \"#utility.yul\":9525:9537   */\n      div\n        /* \"#utility.yul\":9515:9537   */\n      swap1\n      pop\n        /* \"#utility.yul\":9582:9583   */\n      0x01\n        /* \"#utility.yul\":9576:9580   */\n      dup3\n        /* \"#utility.yul\":9572:9584   */\n      and\n        /* \"#utility.yul\":9603:9621   */\n      dup1\n        /* \"#utility.yul\":9593:9674   */\n      tag_297\n      jumpi\n        /* \"#utility.yul\":9659:9663   */\n      0x7f\n        /* \"#utility.yul\":9651:9657   */\n      dup3\n        /* \"#utility.yul\":9647:9664   */\n      and\n        /* \"#utility.yul\":9637:9664   */\n      swap2\n      pop\n        /* \"#utility.yul\":9593:9674   */\n    tag_297:\n        /* \"#utility.yul\":9721:9723   */\n      0x20\n        /* \"#utility.yul\":9713:9719   */\n      dup3\n        /* \"#utility.yul\":9710:9724   */\n      lt\n        /* \"#utility.yul\":9690:9708   */\n      dup2\n        /* \"#utility.yul\":9687:9725   */\n      sub\n        /* \"#utility.yul\":9684:9768   */\n      tag_298\n      jumpi\n        /* \"#utility.yul\":9740:9758   */\n      tag_299\n      tag_170\n      jump\t// in\n    tag_299:\n        /* \"#utility.yul\":9684:9768   */\n    tag_298:\n        /* \"#utility.yul\":9505:9774   */\n      pop\n        /* \"#utility.yul\":9454:9774   */\n      swap2\n      swap1\n      pop\n      jump\t// out\n        /* \"#utility.yul\":9780:9945   */\n    tag_171:\n        /* \"#utility.yul\":9920:9937   */\n      0x496e76616c696420616464726573730000000000000000000000000000000000\n        /* \"#utility.yul\":9916:9917   */\n      0x00\n        /* \"#utility.yul\":9908:9914   */\n      dup3\n        /* \"#utility.yul\":9904:9918   */\n      add\n        /* \"#utility.yul\":9897:9938   */\n      mstore\n        /* \"#utility.yul\":9780:9945   */\n      pop\n      jump\t// out\n        /* \"#utility.yul\":9951:10317   */\n    tag_172:\n        /* \"#utility.yul\":10093:10096   */\n      0x00\n        /* \"#utility.yul\":10114:10181   */\n      tag_302\n        /* \"#utility.yul\":10178:10180   */\n      0x0f\n        /* \"#utility.yul\":10173:10176   */\n      dup4\n        /* \"#utility.yul\":10114:10181   */\n      tag_149\n      jump\t// in\n    tag_302:\n        /* \"#utility.yul\":10107:10181   */\n      swap2\n      pop\n        /* \"#utility.yul\":10190:10283   */\n      tag_303\n        /* \"#utility.yul\":10279:10282   */\n      dup3\n        /* \"#utility.yul\":10190:10283   */\n      tag_171\n      jump\t// in\n    tag_303:\n        /* \"#utility.yul\":10308:10310   */\n      0x20\n        /* \"#utility.yul\":10303:10306   */\n      dup3\n        /* \"#utility.yul\":10299:10311   */\n      add\n        /* \"#utility.yul\":10292:10311   */\n      swap1\n      pop\n        /* \"#utility.yul\":9951:10317   */\n      swap2\n      swap1\n      pop\n      jump\t// out\n        /* \"#utility.yul\":10323:10742   */\n    tag_75:\n        /* \"#utility.yul\":10489:10493   */\n      0x00\n        /* \"#utility.yul\":10527:10529   */\n      0x20\n        /* \"#utility.yul\":10516:10525   */\n      dup3\n        /* \"#utility.yul\":10512:10530   */\n      add\n        /* \"#utility.yul\":10504:10530   */\n      swap1\n      pop\n        /* \"#utility.yul\":10576:10585   */\n      dup2\n        /* \"#utility.yul\":10570:10574   */\n      dup2\n        /* \"#utility.yul\":10566:10586   */\n      sub\n        /* \"#utility.yul\":10562:10563   */\n      0x00\n        /* \"#utility.yul\":10551:10560   */\n      dup4\n        /* \"#utility.yul\":10547:10564   */\n      add\n        /* \"#utility.yul\":10540:10587   */\n      mstore\n        /* \"#utility.yul\":10604:10735   */\n      tag_305\n        /* \"#utility.yul\":10730:10734   */\n      dup2\n        /* \"#utility.yul\":10604:10735   */\n      tag_172\n      jump\t// in\n    tag_305:\n        /* \"#utility.yul\":10596:10735   */\n      swap1\n      pop\n        /* \"#utility.yul\":10323:10742   */\n      swap2\n      swap1\n      pop\n      jump\t// out\n        /* \"#utility.yul\":10748:10921   */\n    tag_173:\n        /* \"#utility.yul\":10888:10913   */\n      0x43616c6c6572206973206e6f7420746865206f776e6572000000000000000000\n        /* \"#utility.yul\":10884:10885   */\n      0x00\n        /* \"#utility.yul\":10876:10882   */\n      dup3\n        /* \"#utility.yul\":10872:10886   */\n      add\n        /* \"#utility.yul\":10865:10914   */\n      mstore\n        /* \"#utility.yul\":10748:10921   */\n      pop\n      jump\t// out\n        /* \"#utility.yul\":10927:11293   */\n    tag_174:\n        /* \"#utility.yul\":11069:11072   */\n      0x00\n        /* \"#utility.yul\":11090:11157   */\n      tag_308\n        /* \"#utility.yul\":11154:11156   */\n      0x17\n        /* \"#utility.yul\":11149:11152   */\n      dup4\n        /* \"#utility.yul\":11090:11157   */\n      tag_149\n      jump\t// in\n    tag_308:\n        /* \"#utility.yul\":11083:11157   */\n      swap2\n      pop\n        /* \"#utility.yul\":11166:11259   */\n      tag_309\n        /* \"#utility.yul\":11255:11258   */\n      dup3\n        /* \"#utility.yul\":11166:11259   */\n      tag_173\n      jump\t// in\n    tag_309:\n        /* \"#utility.yul\":11284:11286   */\n      0x20\n        /* \"#utility.yul\":11279:11282   */\n      dup3\n        /* \"#utility.yul\":11275:11287   */\n      add\n        /* \"#utility.yul\":11268:11287   */\n      swap1\n      pop\n        /* \"#utility.yul\":10927:11293   */\n      swap2\n      swap1\n      pop\n      jump\t// out\n        /* \"#utility.yul\":11299:11718   */\n    tag_78:\n        /* \"#utility.yul\":11465:11469   */\n      0x00\n        /* \"#utility.yul\":11503:11505   */\n      0x20\n        /* \"#utility.yul\":11492:11501   */\n      dup3\n        /* \"#utility.yul\":11488:11506   */\n      add\n        /* \"#utility.yul\":11480:11506   */\n      swap1\n      pop\n        /* \"#utility.yul\":11552:11561   */\n      dup2\n        /* \"#utility.yul\":11546:11550   */\n      dup2\n        /* \"#utility.yul\":11542:11562   */\n      sub\n        /* \"#utility.yul\":11538:11539   */\n      0x00\n        /* \"#utility.yul\":11527:11536   */\n      dup4\n        /* \"#utility.yul\":11523:11540   */\n      add\n        /* \"#utility.yul\":11516:11563   */\n      mstore\n        /* \"#utility.yul\":11580:11711   */\n      tag_311\n        /* \"#utility.yul\":11706:11710   */\n      dup2\n        /* \"#utility.yul\":11580:11711   */\n      tag_174\n      jump\t// in\n    tag_311:\n        /* \"#utility.yul\":11572:11711   */\n      swap1\n      pop\n        /* \"#utility.yul\":11299:11718   */\n      swap2\n      swap1\n      pop\n      jump\t// out\n        /* \"#utility.yul\":11724:11887   */\n    tag_175:\n        /* \"#utility.yul\":11864:11879   */\n      0x496e76616c696420696e70757400000000000000000000000000000000000000\n        /* \"#utility.yul\":11860:11861   */\n      0x00\n        /* \"#utility.yul\":11852:11858   */\n      dup3\n        /* \"#utility.yul\":11848:11862   */\n      add\n        /* \"#utility.yul\":11841:11880   */\n      mstore\n        /* \"#utility.yul\":11724:11887   */\n      pop\n      jump\t// out\n        /* \"#utility.yul\":11893:12259   */\n    tag_176:\n        /* \"#utility.yul\":12035:12038   */\n      0x00\n        /* \"#utility.yul\":12056:12123   */\n      tag_314\n        /* \"#utility.yul\":12120:12122   */\n      0x0d\n        /* \"#utility.yul\":12115:12118   */\n      dup4\n        /* \"#utility.yul\":12056:12123   */\n      tag_149\n      jump\t// in\n    tag_314:\n        /* \"#utility.yul\":12049:12123   */\n      swap2\n      pop\n        /* \"#utility.yul\":12132:12225   */\n      tag_315\n        /* \"#utility.yul\":12221:12224   */\n      dup3\n        /* \"#utility.yul\":12132:12225   */\n      tag_175\n      jump\t// in\n    tag_315:\n        /* \"#utility.yul\":12250:12252   */\n      0x20\n        /* \"#utility.yul\":12245:12248   */\n      dup3\n        /* \"#utility.yul\":12241:12253   */\n      add\n        /* \"#utility.yul\":12234:12253   */\n      swap1\n      pop\n        /* \"#utility.yul\":11893:12259   */\n      swap2\n      swap1\n      pop\n      jump\t// out\n        /* \"#utility.yul\":12265:12684   */\n    tag_82:\n        /* \"#utility.yul\":12431:12435   */\n      0x00\n        /* \"#utility.yul\":12469:12471   */\n      0x20\n        /* \"#utility.yul\":12458:12467   */\n      dup3\n        /* \"#utility.yul\":12454:12472   */\n      add\n        /* \"#utility.yul\":12446:12472   */\n      swap1\n      pop\n        /* \"#utility.yul\":12518:12527   */\n      dup2\n        /* \"#utility.yul\":12512:12516   */\n      dup2\n        /* \"#utility.yul\":12508:12528   */\n      sub\n        /* \"#utility.yul\":12504:12505   */\n      0x00\n        /* \"#utility.yul\":12493:12502   */\n      dup4\n        /* \"#utility.yul\":12489:12506   */\n      add\n        /* \"#utility.yul\":12482:12529   */\n      mstore\n        /* \"#utility.yul\":12546:12677   */\n      tag_317\n        /* \"#utility.yul\":12672:12676   */\n      dup2\n        /* \"#utility.yul\":12546:12677   */\n      tag_176\n      jump\t// in\n    tag_317:\n        /* \"#utility.yul\":12538:12677   */\n      swap1\n      pop\n        /* \"#utility.yul\":12265:12684   */\n      swap2\n      swap1\n      pop\n      jump\t// out\n        /* \"#utility.yul\":12690:12870   */\n    tag_177:\n        /* \"#utility.yul\":12738:12815   */\n      0x4e487b7100000000000000000000000000000000000000000000000000000000\n        /* \"#utility.yul\":12735:12736   */\n      0x00\n        /* \"#utility.yul\":12728:12816   */\n      mstore\n        /* \"#utility.yul\":12835:12839   */\n      0x11\n        /* \"#utility.yul\":12832:12833   */\n      0x04\n        /* \"#utility.yul\":12825:12840   */\n      mstore\n        /* \"#utility.yul\":12859:12863   */\n      0x24\n        /* \"#utility.yul\":12856:12857   */\n      0x00\n        /* \"#utility.yul\":12849:12864   */\n      revert\n        /* \"#utility.yul\":12876:13109   */\n    tag_91:\n        /* \"#utility.yul\":12915:12918   */\n      0x00\n        /* \"#utility.yul\":12938:12962   */\n      tag_320\n        /* \"#utility.yul\":12956:12961   */\n      dup3\n        /* \"#utility.yul\":12938:12962   */\n      tag_145\n      jump\t// in\n    tag_320:\n        /* \"#utility.yul\":12929:12962   */\n      swap2\n      pop\n        /* \"#utility.yul\":12984:13050   */\n      0xffffffffffffffffffffffffffffffffffffffffffffffffffffffffffffffff\n        /* \"#utility.yul\":12977:12982   */\n      dup3\n        /* \"#utility.yul\":12974:13051   */\n      sub\n        /* \"#utility.yul\":12971:13074   */\n      tag_321\n      jumpi\n        /* \"#utility.yul\":13054:13072   */\n      tag_322\n      tag_177\n      jump\t// in\n    tag_322:\n        /* \"#utility.yul\":12971:13074   */\n    tag_321:\n        /* \"#utility.yul\":13101:13102   */\n      0x01\n        /* \"#utility.yul\":13094:13099   */\n      dup3\n        /* \"#utility.yul\":13090:13103   */\n      add\n        /* \"#utility.yul\":13083:13103   */\n      swap1\n      pop\n        /* \"#utility.yul\":12876:13109   */\n      swap2\n      swap1\n      pop\n      jump\t// out\n        /* \"#utility.yul\":13115:13256   */\n    tag_178:\n        /* \"#utility.yul\":13164:13168   */\n      0x00\n        /* \"#utility.yul\":13187:13190   */\n      dup2\n        /* \"#utility.yul\":13179:13190   */\n      swap1\n      pop\n        /* \"#utility.yul\":13210:13213   */\n      dup2\n        /* \"#utility.yul\":13207:13208   */\n      0x00\n        /* \"#utility.yul\":13200:13214   */\n      mstore\n        /* \"#utility.yul\":13244:13248   */\n      0x20\n        /* \"#utility.yul\":13241:13242   */\n      0x00\n        /* \"#utility.yul\":13231:13249   */\n      keccak256\n        /* \"#utility.yul\":13223:13249   */\n      swap1\n      pop\n        /* \"#utility.yul\":13115:13256   */\n      swap2\n      swap1\n      pop\n      jump\t// out\n        /* \"#utility.yul\":13262:13355   */\n    tag_179:\n        /* \"#utility.yul\":13299:13305   */\n      0x00\n        /* \"#utility.yul\":13346:13348   */\n      0x20\n        /* \"#utility.yul\":13341:13343   */\n      0x1f\n        /* \"#utility.yul\":13334:13339   */\n      dup4\n        /* \"#utility.yul\":13330:13344   */\n      add\n        /* \"#utility.yul\":13326:13349   */\n      div\n        /* \"#utility.yul\":13316:13349   */\n      swap1\n      pop\n        /* \"#utility.yul\":13262:13355   */\n      swap2\n      swap1\n      pop\n      jump\t// out\n        /* \"#utility.yul\":13361:13468   */\n    tag_180:\n        /* \"#utility.yul\":13405:13413   */\n      0x00\n        /* \"#utility.yul\":13455:13460   */\n      dup3\n        /* \"#utility.yul\":13449:13453   */\n      dup3\n        /* \"#utility.yul\":13445:13461   */\n      shl\n        /* \"#utility.yul\":13424:13461   */\n      swap1\n      pop\n        /* \"#utility.yul\":13361:13468   */\n      swap3\n      swap2\n      pop\n      pop\n      jump\t// out\n        /* \"#utility.yul\":13474:13867   */\n    tag_181:\n        /* \"#utility.yul\":13543:13549   */\n      0x00\n        /* \"#utility.yul\":13593:13594   */\n      0x08\n        /* \"#utility.yul\":13581:13591   */\n      dup4\n        /* \"#utility.yul\":13577:13595   */\n      mul\n        /* \"#utility.yul\":13616:13713   */\n      tag_327\n        /* \"#utility.yul\":13646:13712   */\n      0xffffffffffffffffffffffffffffffffffffffffffffffffffffffffffffffff\n        /* \"#utility.yul\":13635:13644   */\n      dup3\n        /* \"#utility.yul\":13616:13713   */\n      tag_180\n      jump\t// in\n    tag_327:\n        /* \"#utility.yul\":13734:13773   */\n      tag_328\n        /* \"#utility.yul\":13764:13772   */\n      dup7\n        /* \"#utility.yul\":13753:13762   */\n      dup4\n        /* \"#utility.yul\":13734:13773   */\n      tag_180\n      jump\t// in\n    tag_328:\n        /* \"#utility.yul\":13722:13773   */\n      swap6\n      pop\n        /* \"#utility.yul\":13806:13810   */\n      dup1\n        /* \"#utility.yul\":13802:13811   */\n      not\n        /* \"#utility.yul\":13795:13800   */\n      dup5\n        /* \"#utility.yul\":13791:13812   */\n      and\n        /* \"#utility.yul\":13782:13812   */\n      swap4\n      pop\n        /* \"#utility.yul\":13855:13859   */\n      dup1\n        /* \"#utility.yul\":13845:13853   */\n      dup7\n        /* \"#utility.yul\":13841:13860   */\n      and\n        /* \"#utility.yul\":13834:13839   */\n      dup5\n        /* \"#utility.yul\":13831:13861   */\n      or\n        /* \"#utility.yul\":13821:13861   */\n      swap3\n      pop\n        /* \"#utility.yul\":13550:13867   */\n      pop\n      pop\n        /* \"#utility.yul\":13474:13867   */\n      swap4\n      swap3\n      pop\n      pop\n      pop\n      jump\t// out\n        /* \"#utility.yul\":13873:13933   */\n    tag_182:\n        /* \"#utility.yul\":13901:13904   */\n      0x00\n        /* \"#utility.yul\":13922:13927   */\n      dup2\n        /* \"#utility.yul\":13915:13927   */\n      swap1\n      pop\n        /* \"#utility.yul\":13873:13933   */\n      swap2\n      swap1\n      pop\n      jump\t// out\n        /* \"#utility.yul\":13939:14081   */\n    tag_183:\n        /* \"#utility.yul\":13989:13998   */\n      0x00\n        /* \"#utility.yul\":14022:14075   */\n      tag_331\n        /* \"#utility.yul\":14040:14074   */\n      tag_332\n        /* \"#utility.yul\":14049:14073   */\n      tag_333\n        /* \"#utility.yul\":14067:14072   */\n      dup5\n        /* \"#utility.yul\":14049:14073   */\n      tag_145\n      jump\t// in\n    tag_333:\n        /* \"#utility.yul\":14040:14074   */\n      tag_182\n      jump\t// in\n    tag_332:\n        /* \"#utility.yul\":14022:14075   */\n      tag_145\n      jump\t// in\n    tag_331:\n        /* \"#utility.yul\":14009:14075   */\n      swap1\n      pop\n        /* \"#utility.yul\":13939:14081   */\n      swap2\n      swap1\n      pop\n      jump\t// out\n        /* \"#utility.yul\":14087:14162   */\n    tag_184:\n        /* \"#utility.yul\":14130:14133   */\n      0x00\n        /* \"#utility.yul\":14151:14156   */\n      dup2\n        /* \"#utility.yul\":14144:14156   */\n      swap1\n      pop\n        /* \"#utility.yul\":14087:14162   */\n      swap2\n      swap1\n      pop\n      jump\t// out\n        /* \"#utility.yul\":14168:14437   */\n    tag_185:\n        /* \"#utility.yul\":14278:14317   */\n      tag_336\n        /* \"#utility.yul\":14309:14316   */\n      dup4\n        /* \"#utility.yul\":14278:14317   */\n      tag_183\n      jump\t// in\n    tag_336:\n        /* \"#utility.yul\":14339:14430   */\n      tag_337\n        /* \"#utility.yul\":14388:14429   */\n      tag_338\n        /* \"#utility.yul\":14412:14428   */\n      dup3\n        /* \"#utility.yul\":14388:14429   */\n      tag_184\n      jump\t// in\n    tag_338:\n        /* \"#utility.yul\":14380:14386   */\n      dup5\n        /* \"#utility.yul\":14373:14377   */\n      dup5\n        /* \"#utility.yul\":14367:14378   */\n      sload\n        /* \"#utility.yul\":14339:14430   */\n      tag_181\n      jump\t// in\n    tag_337:\n        /* \"#utility.yul\":14333:14337   */\n      dup3\n        /* \"#utility.yul\":14326:14431   */\n      sstore\n        /* \"#utility.yul\":14244:14437   */\n      pop\n        /* \"#utility.yul\":14168:14437   */\n      pop\n      pop\n      pop\n      jump\t// out\n        /* \"#utility.yul\":14443:14516   */\n    tag_186:\n        /* \"#utility.yul\":14488:14491   */\n      0x00\n        /* \"#utility.yul\":14443:14516   */\n      swap1\n      jump\t// out\n        /* \"#utility.yul\":14522:14711   */\n    tag_187:\n        /* \"#utility.yul\":14599:14631   */\n      tag_341\n      tag_186\n      jump\t// in\n    tag_341:\n        /* \"#utility.yul\":14640:14705   */\n      tag_342\n        /* \"#utility.yul\":14698:14704   */\n      dup2\n        /* \"#utility.yul\":14690:14696   */\n      dup5\n        /* \"#utility.yul\":14684:14688   */\n      dup5\n        /* \"#utility.yul\":14640:14705   */\n      tag_185\n      jump\t// in\n    tag_342:\n        /* \"#utility.yul\":14575:14711   */\n      pop\n        /* \"#utility.yul\":14522:14711   */\n      pop\n      pop\n      jump\t// out\n        /* \"#utility.yul\":14717:14903   */\n    tag_188:\n        /* \"#utility.yul\":14777:14897   */\n    tag_344:\n        /* \"#utility.yul\":14794:14797   */\n      dup2\n        /* \"#utility.yul\":14787:14792   */\n      dup2\n        /* \"#utility.yul\":14784:14798   */\n      lt\n        /* \"#utility.yul\":14777:14897   */\n      iszero\n      tag_346\n      jumpi\n        /* \"#utility.yul\":14848:14887   */\n      tag_347\n        /* \"#utility.yul\":14885:14886   */\n      0x00\n        /* \"#utility.yul\":14878:14883   */\n      dup3\n        /* \"#utility.yul\":14848:14887   */\n      tag_187\n      jump\t// in\n    tag_347:\n        /* \"#utility.yul\":14821:14822   */\n      0x01\n        /* \"#utility.yul\":14814:14819   */\n      dup2\n        /* \"#utility.yul\":14810:14823   */\n      add\n        /* \"#utility.yul\":14801:14823   */\n      swap1\n      pop\n        /* \"#utility.yul\":14777:14897   */\n      jump(tag_344)\n    tag_346:\n        /* \"#utility.yul\":14717:14903   */\n      pop\n      pop\n      jump\t// out\n        /* \"#utility.yul\":14909:15452   */\n    tag_189:\n        /* \"#utility.yul\":15010:15012   */\n      0x1f\n        /* \"#utility.yul\":15005:15008   */\n      dup3\n        /* \"#utility.yul\":15002:15013   */\n      gt\n        /* \"#utility.yul\":14999:15445   */\n      iszero\n      tag_349\n      jumpi\n        /* \"#utility.yul\":15044:15082   */\n      tag_350\n        /* \"#utility.yul\":15076:15081   */\n      dup2\n        /* \"#utility.yul\":15044:15082   */\n      tag_178\n      jump\t// in\n    tag_350:\n        /* \"#utility.yul\":15128:15157   */\n      tag_351\n        /* \"#utility.yul\":15146:15156   */\n      dup5\n        /* \"#utility.yul\":15128:15157   */\n      tag_179\n      jump\t// in\n    tag_351:\n        /* \"#utility.yul\":15118:15126   */\n      dup2\n        /* \"#utility.yul\":15114:15158   */\n      add\n        /* \"#utility.yul\":15311:15313   */\n      0x20\n        /* \"#utility.yul\":15299:15309   */\n      dup6\n        /* \"#utility.yul\":15296:15314   */\n      lt\n        /* \"#utility.yul\":15293:15342   */\n      iszero\n      tag_352\n      jumpi\n        /* \"#utility.yul\":15332:15340   */\n      dup2\n        /* \"#utility.yul\":15317:15340   */\n      swap1\n      pop\n        /* \"#utility.yul\":15293:15342   */\n    tag_352:\n        /* \"#utility.yul\":15355:15435   */\n      tag_353\n        /* \"#utility.yul\":15411:15433   */\n      tag_354\n        /* \"#utility.yul\":15429:15432   */\n      dup6\n        /* \"#utility.yul\":15411:15433   */\n      tag_179\n      jump\t// in\n    tag_354:\n        /* \"#utility.yul\":15401:15409   */\n      dup4\n        /* \"#utility.yul\":15397:15434   */\n      add\n        /* \"#utility.yul\":15384:15395   */\n      dup3\n        /* \"#utility.yul\":15355:15435   */\n      tag_188\n      jump\t// in\n    tag_353:\n        /* \"#utility.yul\":15014:15445   */\n      pop\n      pop\n        /* \"#utility.yul\":14999:15445   */\n    tag_349:\n        /* \"#utility.yul\":14909:15452   */\n      pop\n      pop\n      pop\n      jump\t// out\n        /* \"#utility.yul\":15458:15575   */\n    tag_190:\n        /* \"#utility.yul\":15512:15520   */\n      0x00\n        /* \"#utility.yul\":15562:15567   */\n      dup3\n        /* \"#utility.yul\":15556:15560   */\n      dup3\n        /* \"#utility.yul\":15552:15568   */\n      shr\n        /* \"#utility.yul\":15531:15568   */\n      swap1\n      pop\n        /* \"#utility.yul\":15458:15575   */\n      swap3\n      swap2\n      pop\n      pop\n      jump\t// out\n        /* \"#utility.yul\":15581:15750   */\n    tag_191:\n        /* \"#utility.yul\":15625:15631   */\n      0x00\n        /* \"#utility.yul\":15658:15709   */\n      tag_357\n        /* \"#utility.yul\":15706:15707   */\n      0x00\n        /* \"#utility.yul\":15702:15708   */\n      not\n        /* \"#utility.yul\":15694:15699   */\n      dup5\n        /* \"#utility.yul\":15691:15692   */\n      0x08\n        /* \"#utility.yul\":15687:15700   */\n      mul\n        /* \"#utility.yul\":15658:15709   */\n      tag_190\n      jump\t// in\n    tag_357:\n        /* \"#utility.yul\":15654:15710   */\n      not\n        /* \"#utility.yul\":15739:15743   */\n      dup1\n        /* \"#utility.yul\":15733:15737   */\n      dup4\n        /* \"#utility.yul\":15729:15744   */\n      and\n        /* \"#utility.yul\":15719:15744   */\n      swap2\n      pop\n        /* \"#utility.yul\":15632:15750   */\n      pop\n        /* \"#utility.yul\":15581:15750   */\n      swap3\n      swap2\n      pop\n      pop\n      jump\t// out\n        /* \"#utility.yul\":15755:16050   */\n    tag_192:\n        /* \"#utility.yul\":15831:15835   */\n      0x00\n        /* \"#utility.yul\":15977:16006   */\n      tag_359\n        /* \"#utility.yul\":16002:16005   */\n      dup4\n        /* \"#utility.yul\":15996:16000   */\n      dup4\n        /* \"#utility.yul\":15977:16006   */\n      tag_191\n      jump\t// in\n    tag_359:\n        /* \"#utility.yul\":15969:16006   */\n      swap2\n      pop\n        /* \"#utility.yul\":16039:16042   */\n      dup3\n        /* \"#utility.yul\":16036:16037   */\n      0x02\n        /* \"#utility.yul\":16032:16043   */\n      mul\n        /* \"#utility.yul\":16026:16030   */\n      dup3\n        /* \"#utility.yul\":16023:16044   */\n      or\n        /* \"#utility.yul\":16015:16044   */\n      swap1\n      pop\n        /* \"#utility.yul\":15755:16050   */\n      swap3\n      swap2\n      pop\n      pop\n      jump\t// out\n        /* \"#utility.yul\":16055:17450   */\n    tag_93:\n        /* \"#utility.yul\":16172:16209   */\n      tag_361\n        /* \"#utility.yul\":16205:16208   */\n      dup3\n        /* \"#utility.yul\":16172:16209   */\n      tag_148\n      jump\t// in\n    tag_361:\n        /* \"#utility.yul\":16274:16292   */\n      0xffffffffffffffff\n        /* \"#utility.yul\":16266:16272   */\n      dup2\n        /* \"#utility.yul\":16263:16293   */\n      gt\n        /* \"#utility.yul\":16260:16316   */\n      iszero\n      tag_362\n      jumpi\n        /* \"#utility.yul\":16296:16314   */\n      tag_363\n      tag_161\n      jump\t// in\n    tag_363:\n        /* \"#utility.yul\":16260:16316   */\n    tag_362:\n        /* \"#utility.yul\":16340:16378   */\n      tag_364\n        /* \"#utility.yul\":16372:16376   */\n      dup3\n        /* \"#utility.yul\":16366:16377   */\n      sload\n        /* \"#utility.yul\":16340:16378   */\n      tag_54\n      jump\t// in\n    tag_364:\n        /* \"#utility.yul\":16425:16492   */\n      tag_365\n        /* \"#utility.yul\":16485:16491   */\n      dup3\n        /* \"#utility.yul\":16477:16483   */\n      dup3\n        /* \"#utility.yul\":16471:16475   */\n      dup6\n        /* \"#utility.yul\":16425:16492   */\n      tag_189\n      jump\t// in\n    tag_365:\n        /* \"#utility.yul\":16519:16520   */\n      0x00\n        /* \"#utility.yul\":16543:16547   */\n      0x20\n        /* \"#utility.yul\":16530:16547   */\n      swap1\n      pop\n        /* \"#utility.yul\":16575:16577   */\n      0x1f\n        /* \"#utility.yul\":16567:16573   */\n      dup4\n        /* \"#utility.yul\":16564:16578   */\n      gt\n        /* \"#utility.yul\":16592:16593   */\n      0x01\n        /* \"#utility.yul\":16587:17205   */\n      dup2\n      eq\n      tag_367\n      jumpi\n        /* \"#utility.yul\":17249:17250   */\n      0x00\n        /* \"#utility.yul\":17266:17272   */\n      dup5\n        /* \"#utility.yul\":17263:17340   */\n      iszero\n      tag_368\n      jumpi\n        /* \"#utility.yul\":17315:17324   */\n      dup3\n        /* \"#utility.yul\":17310:17313   */\n      dup8\n        /* \"#utility.yul\":17306:17325   */\n      add\n        /* \"#utility.yul\":17300:17326   */\n      mload\n        /* \"#utility.yul\":17291:17326   */\n      swap1\n      pop\n        /* \"#utility.yul\":17263:17340   */\n    tag_368:\n        /* \"#utility.yul\":17366:17433   */\n      tag_369\n        /* \"#utility.yul\":17426:17432   */\n      dup6\n        /* \"#utility.yul\":17419:17424   */\n      dup3\n        /* \"#utility.yul\":17366:17433   */\n      tag_192\n      jump\t// in\n    tag_369:\n        /* \"#utility.yul\":17360:17364   */\n      dup7\n        /* \"#utility.yul\":17353:17434   */\n      sstore\n        /* \"#utility.yul\":17222:17444   */\n      pop\n        /* \"#utility.yul\":16557:17444   */\n      jump(tag_366)\n        /* \"#utility.yul\":16587:17205   */\n    tag_367:\n        /* \"#utility.yul\":16639:16643   */\n      0x1f\n        /* \"#utility.yul\":16635:16644   */\n      not\n        /* \"#utility.yul\":16627:16633   */\n      dup5\n        /* \"#utility.yul\":16623:16645   */\n      and\n        /* \"#utility.yul\":16673:16710   */\n      tag_370\n        /* \"#utility.yul\":16705:16709   */\n      dup7\n        /* \"#utility.yul\":16673:16710   */\n      tag_178\n      jump\t// in\n    tag_370:\n        /* \"#utility.yul\":16732:16733   */\n      0x00\n        /* \"#utility.yul\":16746:16954   */\n    tag_371:\n        /* \"#utility.yul\":16760:16767   */\n      dup3\n        /* \"#utility.yul\":16757:16758   */\n      dup2\n        /* \"#utility.yul\":16754:16768   */\n      lt\n        /* \"#utility.yul\":16746:16954   */\n      iszero\n      tag_373\n      jumpi\n        /* \"#utility.yul\":16839:16848   */\n      dup5\n        /* \"#utility.yul\":16834:16837   */\n      dup10\n        /* \"#utility.yul\":16830:16849   */\n      add\n        /* \"#utility.yul\":16824:16850   */\n      mload\n        /* \"#utility.yul\":16816:16822   */\n      dup3\n        /* \"#utility.yul\":16809:16851   */\n      sstore\n        /* \"#utility.yul\":16890:16891   */\n      0x01\n        /* \"#utility.yul\":16882:16888   */\n      dup3\n        /* \"#utility.yul\":16878:16892   */\n      add\n        /* \"#utility.yul\":16868:16892   */\n      swap2\n      pop\n        /* \"#utility.yul\":16937:16939   */\n      0x20\n        /* \"#utility.yul\":16926:16935   */\n      dup6\n        /* \"#utility.yul\":16922:16940   */\n      add\n        /* \"#utility.yul\":16909:16940   */\n      swap5\n      pop\n        /* \"#utility.yul\":16783:16787   */\n      0x20\n        /* \"#utility.yul\":16780:16781   */\n      dup2\n        /* \"#utility.yul\":16776:16788   */\n      add\n        /* \"#utility.yul\":16771:16788   */\n      swap1\n      pop\n        /* \"#utility.yul\":16746:16954   */\n      jump(tag_371)\n    tag_373:\n        /* \"#utility.yul\":16982:16988   */\n      dup7\n        /* \"#utility.yul\":16973:16980   */\n      dup4\n        /* \"#utility.yul\":16970:16989   */\n      lt\n        /* \"#utility.yul\":16967:17146   */\n      iszero\n      tag_374\n      jumpi\n        /* \"#utility.yul\":17040:17049   */\n      dup5\n        /* \"#utility.yul\":17035:17038   */\n      dup10\n        /* \"#utility.yul\":17031:17050   */\n      add\n        /* \"#utility.yul\":17025:17051   */\n      mload\n        /* \"#utility.yul\":17083:17131   */\n      tag_375\n        /* \"#utility.yul\":17125:17129   */\n      0x1f\n        /* \"#utility.yul\":17117:17123   */\n      dup10\n        /* \"#utility.yul\":17113:17130   */\n      and\n        /* \"#utility.yul\":17102:17111   */\n      dup3\n        /* \"#utility.yul\":17083:17131   */\n      tag_191\n      jump\t// in\n    tag_375:\n        /* \"#utility.yul\":17075:17081   */\n      dup4\n        /* \"#utility.yul\":17068:17132   */\n      sstore\n        /* \"#utility.yul\":16990:17146   */\n      pop\n        /* \"#utility.yul\":16967:17146   */\n    tag_374:\n        /* \"#utility.yul\":17192:17193   */\n      0x01\n        /* \"#utility.yul\":17188:17189   */\n      0x02\n        /* \"#utility.yul\":17180:17186   */\n      dup9\n        /* \"#utility.yul\":17176:17190   */\n      mul\n        /* \"#utility.yul\":17172:17194   */\n      add\n        /* \"#utility.yul\":17166:17170   */\n      dup9\n        /* \"#utility.yul\":17159:17195   */\n      sstore\n        /* \"#utility.yul\":16594:17205   */\n      pop\n      pop\n      pop\n        /* \"#utility.yul\":16557:17444   */\n    tag_366:\n      pop\n        /* \"#utility.yul\":16147:17450   */\n      pop\n      pop\n      pop\n        /* \"#utility.yul\":16055:17450   */\n      pop\n      pop\n      jump\t// out\n        /* \"#utility.yul\":17456:18171   */\n    tag_97:\n        /* \"#utility.yul\":17665:17669   */\n      0x00\n        /* \"#utility.yul\":17703:17705   */\n      0x60\n        /* \"#utility.yul\":17692:17701   */\n      dup3\n        /* \"#utility.yul\":17688:17706   */\n      add\n        /* \"#utility.yul\":17680:17706   */\n      swap1\n      pop\n        /* \"#utility.yul\":17752:17761   */\n      dup2\n        /* \"#utility.yul\":17746:17750   */\n      dup2\n        /* \"#utility.yul\":17742:17762   */\n      sub\n        /* \"#utility.yul\":17738:17739   */\n      0x00\n        /* \"#utility.yul\":17727:17736   */\n      dup4\n        /* \"#utility.yul\":17723:17740   */\n      add\n        /* \"#utility.yul\":17716:17763   */\n      mstore\n        /* \"#utility.yul\":17780:17858   */\n      tag_377\n        /* \"#utility.yul\":17853:17857   */\n      dup2\n        /* \"#utility.yul\":17844:17850   */\n      dup7\n        /* \"#utility.yul\":17780:17858   */\n      tag_152\n      jump\t// in\n    tag_377:\n        /* \"#utility.yul\":17772:17858   */\n      swap1\n      pop\n        /* \"#utility.yul\":17905:17914   */\n      dup2\n        /* \"#utility.yul\":17899:17903   */\n      dup2\n        /* \"#utility.yul\":17895:17915   */\n      sub\n        /* \"#utility.yul\":17890:17892   */\n      0x20\n        /* \"#utility.yul\":17879:17888   */\n      dup4\n        /* \"#utility.yul\":17875:17893   */\n      add\n        /* \"#utility.yul\":17868:17916   */\n      mstore\n        /* \"#utility.yul\":17933:18011   */\n      tag_378\n        /* \"#utility.yul\":18006:18010   */\n      dup2\n        /* \"#utility.yul\":17997:18003   */\n      dup6\n        /* \"#utility.yul\":17933:18011   */\n      tag_152\n      jump\t// in\n    tag_378:\n        /* \"#utility.yul\":17925:18011   */\n      swap1\n      pop\n        /* \"#utility.yul\":18058:18067   */\n      dup2\n        /* \"#utility.yul\":18052:18056   */\n      dup2\n        /* \"#utility.yul\":18048:18068   */\n      sub\n        /* \"#utility.yul\":18043:18045   */\n      0x40\n        /* \"#utility.yul\":18032:18041   */\n      dup4\n        /* \"#utility.yul\":18028:18046   */\n      add\n        /* \"#utility.yul\":18021:18069   */\n      mstore\n        /* \"#utility.yul\":18086:18164   */\n      tag_379\n        /* \"#utility.yul\":18159:18163   */\n      dup2\n        /* \"#utility.yul\":18150:18156   */\n      dup5\n        /* \"#utility.yul\":18086:18164   */\n      tag_152\n      jump\t// in\n    tag_379:\n        /* \"#utility.yul\":18078:18164   */\n      swap1\n      pop\n        /* \"#utility.yul\":17456:18171   */\n      swap5\n      swap4\n      pop\n      pop\n      pop\n      pop\n      jump\t// out\n        /* \"#utility.yul\":18177:18356   */\n    tag_193:\n        /* \"#utility.yul\":18317:18348   */\n      0x496e76616c6964206164647265737320666f72206e6577206f776e6572000000\n        /* \"#utility.yul\":18313:18314   */\n      0x00\n        /* \"#utility.yul\":18305:18311   */\n      dup3\n        /* \"#utility.yul\":18301:18315   */\n      add\n        /* \"#utility.yul\":18294:18349   */\n      mstore\n        /* \"#utility.yul\":18177:18356   */\n      pop\n      jump\t// out\n        /* \"#utility.yul\":18362:18728   */\n    tag_194:\n        /* \"#utility.yul\":18504:18507   */\n      0x00\n        /* \"#utility.yul\":18525:18592   */\n      tag_382\n        /* \"#utility.yul\":18589:18591   */\n      0x1d\n        /* \"#utility.yul\":18584:18587   */\n      dup4\n        /* \"#utility.yul\":18525:18592   */\n      tag_149\n      jump\t// in\n    tag_382:\n        /* \"#utility.yul\":18518:18592   */\n      swap2\n      pop\n        /* \"#utility.yul\":18601:18694   */\n      tag_383\n        /* \"#utility.yul\":18690:18693   */\n      dup3\n        /* \"#utility.yul\":18601:18694   */\n      tag_193\n      jump\t// in\n    tag_383:\n        /* \"#utility.yul\":18719:18721   */\n      0x20\n        /* \"#utility.yul\":18714:18717   */\n      dup3\n        /* \"#utility.yul\":18710:18722   */\n      add\n        /* \"#utility.yul\":18703:18722   */\n      swap1\n      pop\n        /* \"#utility.yul\":18362:18728   */\n      swap2\n      swap1\n      pop\n      jump\t// out\n        /* \"#utility.yul\":18734:19153   */\n    tag_125:\n        /* \"#utility.yul\":18900:18904   */\n      0x00\n        /* \"#utility.yul\":18938:18940   */\n      0x20\n        /* \"#utility.yul\":18927:18936   */\n      dup3\n        /* \"#utility.yul\":18923:18941   */\n      add\n        /* \"#utility.yul\":18915:18941   */\n      swap1\n      pop\n        /* \"#utility.yul\":18987:18996   */\n      dup2\n        /* \"#utility.yul\":18981:18985   */\n      dup2\n        /* \"#utility.yul\":18977:18997   */\n      sub\n        /* \"#utility.yul\":18973:18974   */\n      0x00\n        /* \"#utility.yul\":18962:18971   */\n      dup4\n        /* \"#utility.yul\":18958:18975   */\n      add\n        /* \"#utility.yul\":18951:18998   */\n      mstore\n        /* \"#utility.yul\":19015:19146   */\n      tag_385\n        /* \"#utility.yul\":19141:19145   */\n      dup2\n        /* \"#utility.yul\":19015:19146   */\n      tag_194\n      jump\t// in\n    tag_385:\n        /* \"#utility.yul\":19007:19146   */\n      swap1\n      pop\n        /* \"#utility.yul\":18734:19153   */\n      swap2\n      swap1\n      pop\n      jump\t// out\n\n    auxdata: 0xa26469706673582212207e3304d5b1e42651c51aa9f10204e4e657a05959620e16033a5a113319b7434564736f6c63430008160033\n}\n",
				"bytecode": {
					"linkReferences": {},
					"object": "608060405234801562000010575f80fd5b50335f73ffffffffffffffffffffffffffffffffffffffff168173ffffffffffffffffffffffffffffffffffffffff160362000085575f6040517f1e4fbdf70000000000000000000000000000000000000000000000000000000081526004016200007c9190620001a1565b60405180910390fd5b62000096816200009d60201b60201c565b50620001bc565b5f805f9054906101000a900473ffffffffffffffffffffffffffffffffffffffff169050815f806101000a81548173ffffffffffffffffffffffffffffffffffffffff021916908373ffffffffffffffffffffffffffffffffffffffff1602179055508173ffffffffffffffffffffffffffffffffffffffff168173ffffffffffffffffffffffffffffffffffffffff167f8be0079c531659141344cd1fd0a4f28419497f9722a3daafe3b4186f6b6457e060405160405180910390a35050565b5f73ffffffffffffffffffffffffffffffffffffffff82169050919050565b5f62000189826200015e565b9050919050565b6200019b816200017d565b82525050565b5f602082019050620001b65f83018462000190565b92915050565b61171d80620001ca5f395ff3fe608060405234801561000f575f80fd5b5060043610610091575f3560e01c806361b8ce8c1161006457806361b8ce8c14610135578063715018a6146101535780638da5cb5b1461015d578063a843c51f1461017b578063f2fde38b1461019757610091565b8063167ddf6e1461009557806329507f73146100c95780633264dc8e146100e55780634b60267314610101575b5f80fd5b6100af60048036038101906100aa9190610d5a565b6101b3565b6040516100c0959493929190610e5d565b60405180910390f35b6100e360048036038101906100de9190610eed565b610459565b005b6100ff60048036038101906100fa9190611057565b61067c565b005b61011b60048036038101906101169190610d5a565b61089e565b60405161012c959493929190610e5d565b60405180910390f35b61013d610a81565b60405161014a91906110fb565b60405180910390f35b61015b610a87565b005b610165610a9a565b6040516101729190611114565b60405180910390f35b6101956004803603810190610190919061112d565b610ac1565b005b6101b160048036038101906101ac919061112d565b610b43565b005b60608060605f808560025481106101ff576040517f08c379a00000000000000000000000000000000000000000000000000000000081526004016101f6906111a2565b60405180910390fd5b5f60015f8981526020019081526020015f206040518060a00160405290815f8201805461022b906111ed565b80601f0160208091040260200160405190810160405280929190818152602001828054610257906111ed565b80156102a25780601f10610279576101008083540402835291602001916102a2565b820191905f5260205f20905b81548152906001019060200180831161028557829003601f168201915b505050505081526020016001820180546102bb906111ed565b80601f01602080910402602001604051908101604052809291908181526020018280546102e7906111ed565b80156103325780601f1061030957610100808354040283529160200191610332565b820191905f5260205f20905b81548152906001019060200180831161031557829003601f168201915b5050505050815260200160028201805461034b906111ed565b80601f0160208091040260200160405190810160405280929190818152602001828054610377906111ed565b80156103c25780601f10610399576101008083540402835291602001916103c2565b820191905f5260205f20905b8154815290600101906020018083116103a557829003601f168201915b5050505050815260200160038201548152602001600482015f9054906101000a900473ffffffffffffffffffffffffffffffffffffffff1673ffffffffffffffffffffffffffffffffffffffff1673ffffffffffffffffffffffffffffffffffffffff16815250509050805f0151816020015182604001518360600151846080015196509650965096509650505091939590929450565b81600254811061049e576040517f08c379a0000000000000000000000000000000000000000000000000000000008152600401610495906111a2565b60405180910390fd5b5f73ffffffffffffffffffffffffffffffffffffffff168273ffffffffffffffffffffffffffffffffffffffff160361050c576040517f08c379a000000000000000000000000000000000000000000000000000000000815260040161050390611267565b60405180910390fd5b5f60015f8581526020019081526020015f2090503373ffffffffffffffffffffffffffffffffffffffff16816004015f9054906101000a900473ffffffffffffffffffffffffffffffffffffffff1673ffffffffffffffffffffffffffffffffffffffff16146105b1576040517f08c379a00000000000000000000000000000000000000000000000000000000081526004016105a8906112cf565b60405180910390fd5b5f816004015f9054906101000a900473ffffffffffffffffffffffffffffffffffffffff16905083826004015f6101000a81548173ffffffffffffffffffffffffffffffffffffffff021916908373ffffffffffffffffffffffffffffffffffffffff1602179055508373ffffffffffffffffffffffffffffffffffffffff168173ffffffffffffffffffffffffffffffffffffffff16867f16b85f49bf01212961345d3016c9a531894accf62eb7680f2045d79185cc0ec060405160405180910390a45050505050565b825f8151116106c0576040517f08c379a00000000000000000000000000000000000000000000000000000000081526004016106b790611337565b60405180910390fd5b825f815111610704576040517f08c379a00000000000000000000000000000000000000000000000000000000081526004016106fb90611337565b60405180910390fd5b825f815111610748576040517f08c379a000000000000000000000000000000000000000000000000000000000815260040161073f90611337565b60405180910390fd5b5f60025f81548092919061075b90611382565b9190505590506040518060a001604052808881526020018781526020018681526020014281526020013373ffffffffffffffffffffffffffffffffffffffff1681525060015f8381526020019081526020015f205f820151815f0190816107c29190611566565b5060208201518160010190816107d89190611566565b5060408201518160020190816107ee9190611566565b50606082015181600301556080820151816004015f6101000a81548173ffffffffffffffffffffffffffffffffffffffff021916908373ffffffffffffffffffffffffffffffffffffffff1602179055509050503373ffffffffffffffffffffffffffffffffffffffff16817ffd2e94f3cc8d3dbd181bdf7102bc402dd062739e4af414a51a4c46533b6d0b1c89898960405161088d93929190611635565b60405180910390a350505050505050565b6001602052805f5260405f205f91509050805f0180546108bd906111ed565b80601f01602080910402602001604051908101604052809291908181526020018280546108e9906111ed565b80156109345780601f1061090b57610100808354040283529160200191610934565b820191905f5260205f20905b81548152906001019060200180831161091757829003601f168201915b505050505090806001018054610949906111ed565b80601f0160208091040260200160405190810160405280929190818152602001828054610975906111ed565b80156109c05780601f10610997576101008083540402835291602001916109c0565b820191905f5260205f20905b8154815290600101906020018083116109a357829003601f168201915b5050505050908060020180546109d5906111ed565b80601f0160208091040260200160405190810160405280929190818152602001828054610a01906111ed565b8015610a4c5780601f10610a2357610100808354040283529160200191610a4c565b820191905f5260205f20905b815481529060010190602001808311610a2f57829003601f168201915b505050505090806003015490806004015f9054906101000a900473ffffffffffffffffffffffffffffffffffffffff16905085565b60025481565b610a8f610bc7565b610a985f610c4e565b565b5f805f9054906101000a900473ffffffffffffffffffffffffffffffffffffffff16905090565b610ac9610bc7565b5f73ffffffffffffffffffffffffffffffffffffffff168173ffffffffffffffffffffffffffffffffffffffff1603610b37576040517f08c379a0000000000000000000000000000000000000000000000000000000008152600401610b2e906116c9565b60405180910390fd5b610b4081610b43565b50565b610b4b610bc7565b5f73ffffffffffffffffffffffffffffffffffffffff168173ffffffffffffffffffffffffffffffffffffffff1603610bbb575f6040517f1e4fbdf7000000000000000000000000000000000000000000000000000000008152600401610bb29190611114565b60405180910390fd5b610bc481610c4e565b50565b610bcf610d0f565b73ffffffffffffffffffffffffffffffffffffffff16610bed610a9a565b73ffffffffffffffffffffffffffffffffffffffff1614610c4c57610c10610d0f565b6040517f118cdaa7000000000000000000000000000000000000000000000000000000008152600401610c439190611114565b60405180910390fd5b565b5f805f9054906101000a900473ffffffffffffffffffffffffffffffffffffffff169050815f806101000a81548173ffffffffffffffffffffffffffffffffffffffff021916908373ffffffffffffffffffffffffffffffffffffffff1602179055508173ffffffffffffffffffffffffffffffffffffffff168173ffffffffffffffffffffffffffffffffffffffff167f8be0079c531659141344cd1fd0a4f28419497f9722a3daafe3b4186f6b6457e060405160405180910390a35050565b5f33905090565b5f604051905090565b5f80fd5b5f80fd5b5f819050919050565b610d3981610d27565b8114610d43575f80fd5b50565b5f81359050610d5481610d30565b92915050565b5f60208284031215610d6f57610d6e610d1f565b5b5f610d7c84828501610d46565b91505092915050565b5f81519050919050565b5f82825260208201905092915050565b5f5b83811015610dbc578082015181840152602081019050610da1565b5f8484015250505050565b5f601f19601f8301169050919050565b5f610de182610d85565b610deb8185610d8f565b9350610dfb818560208601610d9f565b610e0481610dc7565b840191505092915050565b610e1881610d27565b82525050565b5f73ffffffffffffffffffffffffffffffffffffffff82169050919050565b5f610e4782610e1e565b9050919050565b610e5781610e3d565b82525050565b5f60a0820190508181035f830152610e758188610dd7565b90508181036020830152610e898187610dd7565b90508181036040830152610e9d8186610dd7565b9050610eac6060830185610e0f565b610eb96080830184610e4e565b9695505050505050565b610ecc81610e3d565b8114610ed6575f80fd5b50565b5f81359050610ee781610ec3565b92915050565b5f8060408385031215610f0357610f02610d1f565b5b5f610f1085828601610d46565b9250506020610f2185828601610ed9565b9150509250929050565b5f80fd5b5f80fd5b7f4e487b71000000000000000000000000000000000000000000000000000000005f52604160045260245ffd5b610f6982610dc7565b810181811067ffffffffffffffff82111715610f8857610f87610f33565b5b80604052505050565b5f610f9a610d16565b9050610fa68282610f60565b919050565b5f67ffffffffffffffff821115610fc557610fc4610f33565b5b610fce82610dc7565b9050602081019050919050565b828183375f83830152505050565b5f610ffb610ff684610fab565b610f91565b90508281526020810184848401111561101757611016610f2f565b5b611022848285610fdb565b509392505050565b5f82601f83011261103e5761103d610f2b565b5b813561104e848260208601610fe9565b91505092915050565b5f805f6060848603121561106e5761106d610d1f565b5b5f84013567ffffffffffffffff81111561108b5761108a610d23565b5b6110978682870161102a565b935050602084013567ffffffffffffffff8111156110b8576110b7610d23565b5b6110c48682870161102a565b925050604084013567ffffffffffffffff8111156110e5576110e4610d23565b5b6110f18682870161102a565b9150509250925092565b5f60208201905061110e5f830184610e0f565b92915050565b5f6020820190506111275f830184610e4e565b92915050565b5f6020828403121561114257611141610d1f565b5b5f61114f84828501610ed9565b91505092915050565b7f417274776f726b20646f6573206e6f74206578697374000000000000000000005f82015250565b5f61118c601683610d8f565b915061119782611158565b602082019050919050565b5f6020820190508181035f8301526111b981611180565b9050919050565b7f4e487b71000000000000000000000000000000000000000000000000000000005f52602260045260245ffd5b5f600282049050600182168061120457607f821691505b602082108103611217576112166111c0565b5b50919050565b7f496e76616c6964206164647265737300000000000000000000000000000000005f82015250565b5f611251600f83610d8f565b915061125c8261121d565b602082019050919050565b5f6020820190508181035f83015261127e81611245565b9050919050565b7f43616c6c6572206973206e6f7420746865206f776e65720000000000000000005f82015250565b5f6112b9601783610d8f565b91506112c482611285565b602082019050919050565b5f6020820190508181035f8301526112e6816112ad565b9050919050565b7f496e76616c696420696e707574000000000000000000000000000000000000005f82015250565b5f611321600d83610d8f565b915061132c826112ed565b602082019050919050565b5f6020820190508181035f83015261134e81611315565b9050919050565b7f4e487b71000000000000000000000000000000000000000000000000000000005f52601160045260245ffd5b5f61138c82610d27565b91507fffffffffffffffffffffffffffffffffffffffffffffffffffffffffffffffff82036113be576113bd611355565b5b600182019050919050565b5f819050815f5260205f209050919050565b5f6020601f8301049050919050565b5f82821b905092915050565b5f600883026114257fffffffffffffffffffffffffffffffffffffffffffffffffffffffffffffffff826113ea565b61142f86836113ea565b95508019841693508086168417925050509392505050565b5f819050919050565b5f61146a61146561146084610d27565b611447565b610d27565b9050919050565b5f819050919050565b61148383611450565b61149761148f82611471565b8484546113f6565b825550505050565b5f90565b6114ab61149f565b6114b681848461147a565b505050565b5b818110156114d9576114ce5f826114a3565b6001810190506114bc565b5050565b601f82111561151e576114ef816113c9565b6114f8846113db565b81016020851015611507578190505b61151b611513856113db565b8301826114bb565b50505b505050565b5f82821c905092915050565b5f61153e5f1984600802611523565b1980831691505092915050565b5f611556838361152f565b9150826002028217905092915050565b61156f82610d85565b67ffffffffffffffff81111561158857611587610f33565b5b61159282546111ed565b61159d8282856114dd565b5f60209050601f8311600181146115ce575f84156115bc578287015190505b6115c6858261154b565b86555061162d565b601f1984166115dc866113c9565b5f5b82811015611603578489015182556001820191506020850194506020810190506115de565b86831015611620578489015161161c601f89168261152f565b8355505b6001600288020188555050505b505050505050565b5f6060820190508181035f83015261164d8186610dd7565b905081810360208301526116618185610dd7565b905081810360408301526116758184610dd7565b9050949350505050565b7f496e76616c6964206164647265737320666f72206e6577206f776e65720000005f82015250565b5f6116b3601d83610d8f565b91506116be8261167f565b602082019050919050565b5f6020820190508181035f8301526116e0816116a7565b905091905056fea26469706673582212207e3304d5b1e42651c51aa9f10204e4e657a05959620e16033a5a113319b7434564736f6c63430008160033",
					"opcodes": "PUSH1 0x80 PUSH1 0x40 MSTORE CALLVALUE DUP1 ISZERO PUSH3 0x10 JUMPI PUSH0 DUP1 REVERT JUMPDEST POP CALLER PUSH0 PUSH20 0xFFFFFFFFFFFFFFFFFFFFFFFFFFFFFFFFFFFFFFFF AND DUP2 PUSH20 0xFFFFFFFFFFFFFFFFFFFFFFFFFFFFFFFFFFFFFFFF AND SUB PUSH3 0x85 JUMPI PUSH0 PUSH1 0x40 MLOAD PUSH32 0x1E4FBDF700000000000000000000000000000000000000000000000000000000 DUP2 MSTORE PUSH1 0x4 ADD PUSH3 0x7C SWAP2 SWAP1 PUSH3 0x1A1 JUMP JUMPDEST PUSH1 0x40 MLOAD DUP1 SWAP2 SUB SWAP1 REVERT JUMPDEST PUSH3 0x96 DUP2 PUSH3 0x9D PUSH1 0x20 SHL PUSH1 0x20 SHR JUMP JUMPDEST POP PUSH3 0x1BC JUMP JUMPDEST PUSH0 DUP1 PUSH0 SWAP1 SLOAD SWAP1 PUSH2 0x100 EXP SWAP1 DIV PUSH20 0xFFFFFFFFFFFFFFFFFFFFFFFFFFFFFFFFFFFFFFFF AND SWAP1 POP DUP2 PUSH0 DUP1 PUSH2 0x100 EXP DUP2 SLOAD DUP2 PUSH20 0xFFFFFFFFFFFFFFFFFFFFFFFFFFFFFFFFFFFFFFFF MUL NOT AND SWAP1 DUP4 PUSH20 0xFFFFFFFFFFFFFFFFFFFFFFFFFFFFFFFFFFFFFFFF AND MUL OR SWAP1 SSTORE POP DUP2 PUSH20 0xFFFFFFFFFFFFFFFFFFFFFFFFFFFFFFFFFFFFFFFF AND DUP2 PUSH20 0xFFFFFFFFFFFFFFFFFFFFFFFFFFFFFFFFFFFFFFFF AND PUSH32 0x8BE0079C531659141344CD1FD0A4F28419497F9722A3DAAFE3B4186F6B6457E0 PUSH1 0x40 MLOAD PUSH1 0x40 MLOAD DUP1 SWAP2 SUB SWAP1 LOG3 POP POP JUMP JUMPDEST PUSH0 PUSH20 0xFFFFFFFFFFFFFFFFFFFFFFFFFFFFFFFFFFFFFFFF DUP3 AND SWAP1 POP SWAP2 SWAP1 POP JUMP JUMPDEST PUSH0 PUSH3 0x189 DUP3 PUSH3 0x15E JUMP JUMPDEST SWAP1 POP SWAP2 SWAP1 POP JUMP JUMPDEST PUSH3 0x19B DUP2 PUSH3 0x17D JUMP JUMPDEST DUP3 MSTORE POP POP JUMP JUMPDEST PUSH0 PUSH1 0x20 DUP3 ADD SWAP1 POP PUSH3 0x1B6 PUSH0 DUP4 ADD DUP5 PUSH3 0x190 JUMP JUMPDEST SWAP3 SWAP2 POP POP JUMP JUMPDEST PUSH2 0x171D DUP1 PUSH3 0x1CA PUSH0 CODECOPY PUSH0 RETURN INVALID PUSH1 0x80 PUSH1 0x40 MSTORE CALLVALUE DUP1 ISZERO PUSH2 0xF JUMPI PUSH0 DUP1 REVERT JUMPDEST POP PUSH1 0x4 CALLDATASIZE LT PUSH2 0x91 JUMPI PUSH0 CALLDATALOAD PUSH1 0xE0 SHR DUP1 PUSH4 0x61B8CE8C GT PUSH2 0x64 JUMPI DUP1 PUSH4 0x61B8CE8C EQ PUSH2 0x135 JUMPI DUP1 PUSH4 0x715018A6 EQ PUSH2 0x153 JUMPI DUP1 PUSH4 0x8DA5CB5B EQ PUSH2 0x15D JUMPI DUP1 PUSH4 0xA843C51F EQ PUSH2 0x17B JUMPI DUP1 PUSH4 0xF2FDE38B EQ PUSH2 0x197 JUMPI PUSH2 0x91 JUMP JUMPDEST DUP1 PUSH4 0x167DDF6E EQ PUSH2 0x95 JUMPI DUP1 PUSH4 0x29507F73 EQ PUSH2 0xC9 JUMPI DUP1 PUSH4 0x3264DC8E EQ PUSH2 0xE5 JUMPI DUP1 PUSH4 0x4B602673 EQ PUSH2 0x101 JUMPI JUMPDEST PUSH0 DUP1 REVERT JUMPDEST PUSH2 0xAF PUSH1 0x4 DUP1 CALLDATASIZE SUB DUP2 ADD SWAP1 PUSH2 0xAA SWAP2 SWAP1 PUSH2 0xD5A JUMP JUMPDEST PUSH2 0x1B3 JUMP JUMPDEST PUSH1 0x40 MLOAD PUSH2 0xC0 SWAP6 SWAP5 SWAP4 SWAP3 SWAP2 SWAP1 PUSH2 0xE5D JUMP JUMPDEST PUSH1 0x40 MLOAD DUP1 SWAP2 SUB SWAP1 RETURN JUMPDEST PUSH2 0xE3 PUSH1 0x4 DUP1 CALLDATASIZE SUB DUP2 ADD SWAP1 PUSH2 0xDE SWAP2 SWAP1 PUSH2 0xEED JUMP JUMPDEST PUSH2 0x459 JUMP JUMPDEST STOP JUMPDEST PUSH2 0xFF PUSH1 0x4 DUP1 CALLDATASIZE SUB DUP2 ADD SWAP1 PUSH2 0xFA SWAP2 SWAP1 PUSH2 0x1057 JUMP JUMPDEST PUSH2 0x67C JUMP JUMPDEST STOP JUMPDEST PUSH2 0x11B PUSH1 0x4 DUP1 CALLDATASIZE SUB DUP2 ADD SWAP1 PUSH2 0x116 SWAP2 SWAP1 PUSH2 0xD5A JUMP JUMPDEST PUSH2 0x89E JUMP JUMPDEST PUSH1 0x40 MLOAD PUSH2 0x12C SWAP6 SWAP5 SWAP4 SWAP3 SWAP2 SWAP1 PUSH2 0xE5D JUMP JUMPDEST PUSH1 0x40 MLOAD DUP1 SWAP2 SUB SWAP1 RETURN JUMPDEST PUSH2 0x13D PUSH2 0xA81 JUMP JUMPDEST PUSH1 0x40 MLOAD PUSH2 0x14A SWAP2 SWAP1 PUSH2 0x10FB JUMP JUMPDEST PUSH1 0x40 MLOAD DUP1 SWAP2 SUB SWAP1 RETURN JUMPDEST PUSH2 0x15B PUSH2 0xA87 JUMP JUMPDEST STOP JUMPDEST PUSH2 0x165 PUSH2 0xA9A JUMP JUMPDEST PUSH1 0x40 MLOAD PUSH2 0x172 SWAP2 SWAP1 PUSH2 0x1114 JUMP JUMPDEST PUSH1 0x40 MLOAD DUP1 SWAP2 SUB SWAP1 RETURN JUMPDEST PUSH2 0x195 PUSH1 0x4 DUP1 CALLDATASIZE SUB DUP2 ADD SWAP1 PUSH2 0x190 SWAP2 SWAP1 PUSH2 0x112D JUMP JUMPDEST PUSH2 0xAC1 JUMP JUMPDEST STOP JUMPDEST PUSH2 0x1B1 PUSH1 0x4 DUP1 CALLDATASIZE SUB DUP2 ADD SWAP1 PUSH2 0x1AC SWAP2 SWAP1 PUSH2 0x112D JUMP JUMPDEST PUSH2 0xB43 JUMP JUMPDEST STOP JUMPDEST PUSH1 0x60 DUP1 PUSH1 0x60 PUSH0 DUP1 DUP6 PUSH1 0x2 SLOAD DUP2 LT PUSH2 0x1FF JUMPI PUSH1 0x40 MLOAD PUSH32 0x8C379A000000000000000000000000000000000000000000000000000000000 DUP2 MSTORE PUSH1 0x4 ADD PUSH2 0x1F6 SWAP1 PUSH2 0x11A2 JUMP JUMPDEST PUSH1 0x40 MLOAD DUP1 SWAP2 SUB SWAP1 REVERT JUMPDEST PUSH0 PUSH1 0x1 PUSH0 DUP10 DUP2 MSTORE PUSH1 0x20 ADD SWAP1 DUP2 MSTORE PUSH1 0x20 ADD PUSH0 KECCAK256 PUSH1 0x40 MLOAD DUP1 PUSH1 0xA0 ADD PUSH1 0x40 MSTORE SWAP1 DUP2 PUSH0 DUP3 ADD DUP1 SLOAD PUSH2 0x22B SWAP1 PUSH2 0x11ED JUMP JUMPDEST DUP1 PUSH1 0x1F ADD PUSH1 0x20 DUP1 SWAP2 DIV MUL PUSH1 0x20 ADD PUSH1 0x40 MLOAD SWAP1 DUP2 ADD PUSH1 0x40 MSTORE DUP1 SWAP3 SWAP2 SWAP1 DUP2 DUP2 MSTORE PUSH1 0x20 ADD DUP3 DUP1 SLOAD PUSH2 0x257 SWAP1 PUSH2 0x11ED JUMP JUMPDEST DUP1 ISZERO PUSH2 0x2A2 JUMPI DUP1 PUSH1 0x1F LT PUSH2 0x279 JUMPI PUSH2 0x100 DUP1 DUP4 SLOAD DIV MUL DUP4 MSTORE SWAP2 PUSH1 0x20 ADD SWAP2 PUSH2 0x2A2 JUMP JUMPDEST DUP3 ADD SWAP2 SWAP1 PUSH0 MSTORE PUSH1 0x20 PUSH0 KECCAK256 SWAP1 JUMPDEST DUP2 SLOAD DUP2 MSTORE SWAP1 PUSH1 0x1 ADD SWAP1 PUSH1 0x20 ADD DUP1 DUP4 GT PUSH2 0x285 JUMPI DUP3 SWAP1 SUB PUSH1 0x1F AND DUP3 ADD SWAP2 JUMPDEST POP POP POP POP POP DUP2 MSTORE PUSH1 0x20 ADD PUSH1 0x1 DUP3 ADD DUP1 SLOAD PUSH2 0x2BB SWAP1 PUSH2 0x11ED JUMP JUMPDEST DUP1 PUSH1 0x1F ADD PUSH1 0x20 DUP1 SWAP2 DIV MUL PUSH1 0x20 ADD PUSH1 0x40 MLOAD SWAP1 DUP2 ADD PUSH1 0x40 MSTORE DUP1 SWAP3 SWAP2 SWAP1 DUP2 DUP2 MSTORE PUSH1 0x20 ADD DUP3 DUP1 SLOAD PUSH2 0x2E7 SWAP1 PUSH2 0x11ED JUMP JUMPDEST DUP1 ISZERO PUSH2 0x332 JUMPI DUP1 PUSH1 0x1F LT PUSH2 0x309 JUMPI PUSH2 0x100 DUP1 DUP4 SLOAD DIV MUL DUP4 MSTORE SWAP2 PUSH1 0x20 ADD SWAP2 PUSH2 0x332 JUMP JUMPDEST DUP3 ADD SWAP2 SWAP1 PUSH0 MSTORE PUSH1 0x20 PUSH0 KECCAK256 SWAP1 JUMPDEST DUP2 SLOAD DUP2 MSTORE SWAP1 PUSH1 0x1 ADD SWAP1 PUSH1 0x20 ADD DUP1 DUP4 GT PUSH2 0x315 JUMPI DUP3 SWAP1 SUB PUSH1 0x1F AND DUP3 ADD SWAP2 JUMPDEST POP POP POP POP POP DUP2 MSTORE PUSH1 0x20 ADD PUSH1 0x2 DUP3 ADD DUP1 SLOAD PUSH2 0x34B SWAP1 PUSH2 0x11ED JUMP JUMPDEST DUP1 PUSH1 0x1F ADD PUSH1 0x20 DUP1 SWAP2 DIV MUL PUSH1 0x20 ADD PUSH1 0x40 MLOAD SWAP1 DUP2 ADD PUSH1 0x40 MSTORE DUP1 SWAP3 SWAP2 SWAP1 DUP2 DUP2 MSTORE PUSH1 0x20 ADD DUP3 DUP1 SLOAD PUSH2 0x377 SWAP1 PUSH2 0x11ED JUMP JUMPDEST DUP1 ISZERO PUSH2 0x3C2 JUMPI DUP1 PUSH1 0x1F LT PUSH2 0x399 JUMPI PUSH2 0x100 DUP1 DUP4 SLOAD DIV MUL DUP4 MSTORE SWAP2 PUSH1 0x20 ADD SWAP2 PUSH2 0x3C2 JUMP JUMPDEST DUP3 ADD SWAP2 SWAP1 PUSH0 MSTORE PUSH1 0x20 PUSH0 KECCAK256 SWAP1 JUMPDEST DUP2 SLOAD DUP2 MSTORE SWAP1 PUSH1 0x1 ADD SWAP1 PUSH1 0x20 ADD DUP1 DUP4 GT PUSH2 0x3A5 JUMPI DUP3 SWAP1 SUB PUSH1 0x1F AND DUP3 ADD SWAP2 JUMPDEST POP POP POP POP POP DUP2 MSTORE PUSH1 0x20 ADD PUSH1 0x3 DUP3 ADD SLOAD DUP2 MSTORE PUSH1 0x20 ADD PUSH1 0x4 DUP3 ADD PUSH0 SWAP1 SLOAD SWAP1 PUSH2 0x100 EXP SWAP1 DIV PUSH20 0xFFFFFFFFFFFFFFFFFFFFFFFFFFFFFFFFFFFFFFFF AND PUSH20 0xFFFFFFFFFFFFFFFFFFFFFFFFFFFFFFFFFFFFFFFF AND PUSH20 0xFFFFFFFFFFFFFFFFFFFFFFFFFFFFFFFFFFFFFFFF AND DUP2 MSTORE POP POP SWAP1 POP DUP1 PUSH0 ADD MLOAD DUP2 PUSH1 0x20 ADD MLOAD DUP3 PUSH1 0x40 ADD MLOAD DUP4 PUSH1 0x60 ADD MLOAD DUP5 PUSH1 0x80 ADD MLOAD SWAP7 POP SWAP7 POP SWAP7 POP SWAP7 POP SWAP7 POP POP POP SWAP2 SWAP4 SWAP6 SWAP1 SWAP3 SWAP5 POP JUMP JUMPDEST DUP2 PUSH1 0x2 SLOAD DUP2 LT PUSH2 0x49E JUMPI PUSH1 0x40 MLOAD PUSH32 0x8C379A000000000000000000000000000000000000000000000000000000000 DUP2 MSTORE PUSH1 0x4 ADD PUSH2 0x495 SWAP1 PUSH2 0x11A2 JUMP JUMPDEST PUSH1 0x40 MLOAD DUP1 SWAP2 SUB SWAP1 REVERT JUMPDEST PUSH0 PUSH20 0xFFFFFFFFFFFFFFFFFFFFFFFFFFFFFFFFFFFFFFFF AND DUP3 PUSH20 0xFFFFFFFFFFFFFFFFFFFFFFFFFFFFFFFFFFFFFFFF AND SUB PUSH2 0x50C JUMPI PUSH1 0x40 MLOAD PUSH32 0x8C379A000000000000000000000000000000000000000000000000000000000 DUP2 MSTORE PUSH1 0x4 ADD PUSH2 0x503 SWAP1 PUSH2 0x1267 JUMP JUMPDEST PUSH1 0x40 MLOAD DUP1 SWAP2 SUB SWAP1 REVERT JUMPDEST PUSH0 PUSH1 0x1 PUSH0 DUP6 DUP2 MSTORE PUSH1 0x20 ADD SWAP1 DUP2 MSTORE PUSH1 0x20 ADD PUSH0 KECCAK256 SWAP1 POP CALLER PUSH20 0xFFFFFFFFFFFFFFFFFFFFFFFFFFFFFFFFFFFFFFFF AND DUP2 PUSH1 0x4 ADD PUSH0 SWAP1 SLOAD SWAP1 PUSH2 0x100 EXP SWAP1 DIV PUSH20 0xFFFFFFFFFFFFFFFFFFFFFFFFFFFFFFFFFFFFFFFF AND PUSH20 0xFFFFFFFFFFFFFFFFFFFFFFFFFFFFFFFFFFFFFFFF AND EQ PUSH2 0x5B1 JUMPI PUSH1 0x40 MLOAD PUSH32 0x8C379A000000000000000000000000000000000000000000000000000000000 DUP2 MSTORE PUSH1 0x4 ADD PUSH2 0x5A8 SWAP1 PUSH2 0x12CF JUMP JUMPDEST PUSH1 0x40 MLOAD DUP1 SWAP2 SUB SWAP1 REVERT JUMPDEST PUSH0 DUP2 PUSH1 0x4 ADD PUSH0 SWAP1 SLOAD SWAP1 PUSH2 0x100 EXP SWAP1 DIV PUSH20 0xFFFFFFFFFFFFFFFFFFFFFFFFFFFFFFFFFFFFFFFF AND SWAP1 POP DUP4 DUP3 PUSH1 0x4 ADD PUSH0 PUSH2 0x100 EXP DUP2 SLOAD DUP2 PUSH20 0xFFFFFFFFFFFFFFFFFFFFFFFFFFFFFFFFFFFFFFFF MUL NOT AND SWAP1 DUP4 PUSH20 0xFFFFFFFFFFFFFFFFFFFFFFFFFFFFFFFFFFFFFFFF AND MUL OR SWAP1 SSTORE POP DUP4 PUSH20 0xFFFFFFFFFFFFFFFFFFFFFFFFFFFFFFFFFFFFFFFF AND DUP2 PUSH20 0xFFFFFFFFFFFFFFFFFFFFFFFFFFFFFFFFFFFFFFFF AND DUP7 PUSH32 0x16B85F49BF01212961345D3016C9A531894ACCF62EB7680F2045D79185CC0EC0 PUSH1 0x40 MLOAD PUSH1 0x40 MLOAD DUP1 SWAP2 SUB SWAP1 LOG4 POP POP POP POP POP JUMP JUMPDEST DUP3 PUSH0 DUP2 MLOAD GT PUSH2 0x6C0 JUMPI PUSH1 0x40 MLOAD PUSH32 0x8C379A000000000000000000000000000000000000000000000000000000000 DUP2 MSTORE PUSH1 0x4 ADD PUSH2 0x6B7 SWAP1 PUSH2 0x1337 JUMP JUMPDEST PUSH1 0x40 MLOAD DUP1 SWAP2 SUB SWAP1 REVERT JUMPDEST DUP3 PUSH0 DUP2 MLOAD GT PUSH2 0x704 JUMPI PUSH1 0x40 MLOAD PUSH32 0x8C379A000000000000000000000000000000000000000000000000000000000 DUP2 MSTORE PUSH1 0x4 ADD PUSH2 0x6FB SWAP1 PUSH2 0x1337 JUMP JUMPDEST PUSH1 0x40 MLOAD DUP1 SWAP2 SUB SWAP1 REVERT JUMPDEST DUP3 PUSH0 DUP2 MLOAD GT PUSH2 0x748 JUMPI PUSH1 0x40 MLOAD PUSH32 0x8C379A000000000000000000000000000000000000000000000000000000000 DUP2 MSTORE PUSH1 0x4 ADD PUSH2 0x73F SWAP1 PUSH2 0x1337 JUMP JUMPDEST PUSH1 0x40 MLOAD DUP1 SWAP2 SUB SWAP1 REVERT JUMPDEST PUSH0 PUSH1 0x2 PUSH0 DUP2 SLOAD DUP1 SWAP3 SWAP2 SWAP1 PUSH2 0x75B SWAP1 PUSH2 0x1382 JUMP JUMPDEST SWAP2 SWAP1 POP SSTORE SWAP1 POP PUSH1 0x40 MLOAD DUP1 PUSH1 0xA0 ADD PUSH1 0x40 MSTORE DUP1 DUP9 DUP2 MSTORE PUSH1 0x20 ADD DUP8 DUP2 MSTORE PUSH1 0x20 ADD DUP7 DUP2 MSTORE PUSH1 0x20 ADD TIMESTAMP DUP2 MSTORE PUSH1 0x20 ADD CALLER PUSH20 0xFFFFFFFFFFFFFFFFFFFFFFFFFFFFFFFFFFFFFFFF AND DUP2 MSTORE POP PUSH1 0x1 PUSH0 DUP4 DUP2 MSTORE PUSH1 0x20 ADD SWAP1 DUP2 MSTORE PUSH1 0x20 ADD PUSH0 KECCAK256 PUSH0 DUP3 ADD MLOAD DUP2 PUSH0 ADD SWAP1 DUP2 PUSH2 0x7C2 SWAP2 SWAP1 PUSH2 0x1566 JUMP JUMPDEST POP PUSH1 0x20 DUP3 ADD MLOAD DUP2 PUSH1 0x1 ADD SWAP1 DUP2 PUSH2 0x7D8 SWAP2 SWAP1 PUSH2 0x1566 JUMP JUMPDEST POP PUSH1 0x40 DUP3 ADD MLOAD DUP2 PUSH1 0x2 ADD SWAP1 DUP2 PUSH2 0x7EE SWAP2 SWAP1 PUSH2 0x1566 JUMP JUMPDEST POP PUSH1 0x60 DUP3 ADD MLOAD DUP2 PUSH1 0x3 ADD SSTORE PUSH1 0x80 DUP3 ADD MLOAD DUP2 PUSH1 0x4 ADD PUSH0 PUSH2 0x100 EXP DUP2 SLOAD DUP2 PUSH20 0xFFFFFFFFFFFFFFFFFFFFFFFFFFFFFFFFFFFFFFFF MUL NOT AND SWAP1 DUP4 PUSH20 0xFFFFFFFFFFFFFFFFFFFFFFFFFFFFFFFFFFFFFFFF AND MUL OR SWAP1 SSTORE POP SWAP1 POP POP CALLER PUSH20 0xFFFFFFFFFFFFFFFFFFFFFFFFFFFFFFFFFFFFFFFF AND DUP2 PUSH32 0xFD2E94F3CC8D3DBD181BDF7102BC402DD062739E4AF414A51A4C46533B6D0B1C DUP10 DUP10 DUP10 PUSH1 0x40 MLOAD PUSH2 0x88D SWAP4 SWAP3 SWAP2 SWAP1 PUSH2 0x1635 JUMP JUMPDEST PUSH1 0x40 MLOAD DUP1 SWAP2 SUB SWAP1 LOG3 POP POP POP POP POP POP POP JUMP JUMPDEST PUSH1 0x1 PUSH1 0x20 MSTORE DUP1 PUSH0 MSTORE PUSH1 0x40 PUSH0 KECCAK256 PUSH0 SWAP2 POP SWAP1 POP DUP1 PUSH0 ADD DUP1 SLOAD PUSH2 0x8BD SWAP1 PUSH2 0x11ED JUMP JUMPDEST DUP1 PUSH1 0x1F ADD PUSH1 0x20 DUP1 SWAP2 DIV MUL PUSH1 0x20 ADD PUSH1 0x40 MLOAD SWAP1 DUP2 ADD PUSH1 0x40 MSTORE DUP1 SWAP3 SWAP2 SWAP1 DUP2 DUP2 MSTORE PUSH1 0x20 ADD DUP3 DUP1 SLOAD PUSH2 0x8E9 SWAP1 PUSH2 0x11ED JUMP JUMPDEST DUP1 ISZERO PUSH2 0x934 JUMPI DUP1 PUSH1 0x1F LT PUSH2 0x90B JUMPI PUSH2 0x100 DUP1 DUP4 SLOAD DIV MUL DUP4 MSTORE SWAP2 PUSH1 0x20 ADD SWAP2 PUSH2 0x934 JUMP JUMPDEST DUP3 ADD SWAP2 SWAP1 PUSH0 MSTORE PUSH1 0x20 PUSH0 KECCAK256 SWAP1 JUMPDEST DUP2 SLOAD DUP2 MSTORE SWAP1 PUSH1 0x1 ADD SWAP1 PUSH1 0x20 ADD DUP1 DUP4 GT PUSH2 0x917 JUMPI DUP3 SWAP1 SUB PUSH1 0x1F AND DUP3 ADD SWAP2 JUMPDEST POP POP POP POP POP SWAP1 DUP1 PUSH1 0x1 ADD DUP1 SLOAD PUSH2 0x949 SWAP1 PUSH2 0x11ED JUMP JUMPDEST DUP1 PUSH1 0x1F ADD PUSH1 0x20 DUP1 SWAP2 DIV MUL PUSH1 0x20 ADD PUSH1 0x40 MLOAD SWAP1 DUP2 ADD PUSH1 0x40 MSTORE DUP1 SWAP3 SWAP2 SWAP1 DUP2 DUP2 MSTORE PUSH1 0x20 ADD DUP3 DUP1 SLOAD PUSH2 0x975 SWAP1 PUSH2 0x11ED JUMP JUMPDEST DUP1 ISZERO PUSH2 0x9C0 JUMPI DUP1 PUSH1 0x1F LT PUSH2 0x997 JUMPI PUSH2 0x100 DUP1 DUP4 SLOAD DIV MUL DUP4 MSTORE SWAP2 PUSH1 0x20 ADD SWAP2 PUSH2 0x9C0 JUMP JUMPDEST DUP3 ADD SWAP2 SWAP1 PUSH0 MSTORE PUSH1 0x20 PUSH0 KECCAK256 SWAP1 JUMPDEST DUP2 SLOAD DUP2 MSTORE SWAP1 PUSH1 0x1 ADD SWAP1 PUSH1 0x20 ADD DUP1 DUP4 GT PUSH2 0x9A3 JUMPI DUP3 SWAP1 SUB PUSH1 0x1F AND DUP3 ADD SWAP2 JUMPDEST POP POP POP POP POP SWAP1 DUP1 PUSH1 0x2 ADD DUP1 SLOAD PUSH2 0x9D5 SWAP1 PUSH2 0x11ED JUMP JUMPDEST DUP1 PUSH1 0x1F ADD PUSH1 0x20 DUP1 SWAP2 DIV MUL PUSH1 0x20 ADD PUSH1 0x40 MLOAD SWAP1 DUP2 ADD PUSH1 0x40 MSTORE DUP1 SWAP3 SWAP2 SWAP1 DUP2 DUP2 MSTORE PUSH1 0x20 ADD DUP3 DUP1 SLOAD PUSH2 0xA01 SWAP1 PUSH2 0x11ED JUMP JUMPDEST DUP1 ISZERO PUSH2 0xA4C JUMPI DUP1 PUSH1 0x1F LT PUSH2 0xA23 JUMPI PUSH2 0x100 DUP1 DUP4 SLOAD DIV MUL DUP4 MSTORE SWAP2 PUSH1 0x20 ADD SWAP2 PUSH2 0xA4C JUMP JUMPDEST DUP3 ADD SWAP2 SWAP1 PUSH0 MSTORE PUSH1 0x20 PUSH0 KECCAK256 SWAP1 JUMPDEST DUP2 SLOAD DUP2 MSTORE SWAP1 PUSH1 0x1 ADD SWAP1 PUSH1 0x20 ADD DUP1 DUP4 GT PUSH2 0xA2F JUMPI DUP3 SWAP1 SUB PUSH1 0x1F AND DUP3 ADD SWAP2 JUMPDEST POP POP POP POP POP SWAP1 DUP1 PUSH1 0x3 ADD SLOAD SWAP1 DUP1 PUSH1 0x4 ADD PUSH0 SWAP1 SLOAD SWAP1 PUSH2 0x100 EXP SWAP1 DIV PUSH20 0xFFFFFFFFFFFFFFFFFFFFFFFFFFFFFFFFFFFFFFFF AND SWAP1 POP DUP6 JUMP JUMPDEST PUSH1 0x2 SLOAD DUP2 JUMP JUMPDEST PUSH2 0xA8F PUSH2 0xBC7 JUMP JUMPDEST PUSH2 0xA98 PUSH0 PUSH2 0xC4E JUMP JUMPDEST JUMP JUMPDEST PUSH0 DUP1 PUSH0 SWAP1 SLOAD SWAP1 PUSH2 0x100 EXP SWAP1 DIV PUSH20 0xFFFFFFFFFFFFFFFFFFFFFFFFFFFFFFFFFFFFFFFF AND SWAP1 POP SWAP1 JUMP JUMPDEST PUSH2 0xAC9 PUSH2 0xBC7 JUMP JUMPDEST PUSH0 PUSH20 0xFFFFFFFFFFFFFFFFFFFFFFFFFFFFFFFFFFFFFFFF AND DUP2 PUSH20 0xFFFFFFFFFFFFFFFFFFFFFFFFFFFFFFFFFFFFFFFF AND SUB PUSH2 0xB37 JUMPI PUSH1 0x40 MLOAD PUSH32 0x8C379A000000000000000000000000000000000000000000000000000000000 DUP2 MSTORE PUSH1 0x4 ADD PUSH2 0xB2E SWAP1 PUSH2 0x16C9 JUMP JUMPDEST PUSH1 0x40 MLOAD DUP1 SWAP2 SUB SWAP1 REVERT JUMPDEST PUSH2 0xB40 DUP2 PUSH2 0xB43 JUMP JUMPDEST POP JUMP JUMPDEST PUSH2 0xB4B PUSH2 0xBC7 JUMP JUMPDEST PUSH0 PUSH20 0xFFFFFFFFFFFFFFFFFFFFFFFFFFFFFFFFFFFFFFFF AND DUP2 PUSH20 0xFFFFFFFFFFFFFFFFFFFFFFFFFFFFFFFFFFFFFFFF AND SUB PUSH2 0xBBB JUMPI PUSH0 PUSH1 0x40 MLOAD PUSH32 0x1E4FBDF700000000000000000000000000000000000000000000000000000000 DUP2 MSTORE PUSH1 0x4 ADD PUSH2 0xBB2 SWAP2 SWAP1 PUSH2 0x1114 JUMP JUMPDEST PUSH1 0x40 MLOAD DUP1 SWAP2 SUB SWAP1 REVERT JUMPDEST PUSH2 0xBC4 DUP2 PUSH2 0xC4E JUMP JUMPDEST POP JUMP JUMPDEST PUSH2 0xBCF PUSH2 0xD0F JUMP JUMPDEST PUSH20 0xFFFFFFFFFFFFFFFFFFFFFFFFFFFFFFFFFFFFFFFF AND PUSH2 0xBED PUSH2 0xA9A JUMP JUMPDEST PUSH20 0xFFFFFFFFFFFFFFFFFFFFFFFFFFFFFFFFFFFFFFFF AND EQ PUSH2 0xC4C JUMPI PUSH2 0xC10 PUSH2 0xD0F JUMP JUMPDEST PUSH1 0x40 MLOAD PUSH32 0x118CDAA700000000000000000000000000000000000000000000000000000000 DUP2 MSTORE PUSH1 0x4 ADD PUSH2 0xC43 SWAP2 SWAP1 PUSH2 0x1114 JUMP JUMPDEST PUSH1 0x40 MLOAD DUP1 SWAP2 SUB SWAP1 REVERT JUMPDEST JUMP JUMPDEST PUSH0 DUP1 PUSH0 SWAP1 SLOAD SWAP1 PUSH2 0x100 EXP SWAP1 DIV PUSH20 0xFFFFFFFFFFFFFFFFFFFFFFFFFFFFFFFFFFFFFFFF AND SWAP1 POP DUP2 PUSH0 DUP1 PUSH2 0x100 EXP DUP2 SLOAD DUP2 PUSH20 0xFFFFFFFFFFFFFFFFFFFFFFFFFFFFFFFFFFFFFFFF MUL NOT AND SWAP1 DUP4 PUSH20 0xFFFFFFFFFFFFFFFFFFFFFFFFFFFFFFFFFFFFFFFF AND MUL OR SWAP1 SSTORE POP DUP2 PUSH20 0xFFFFFFFFFFFFFFFFFFFFFFFFFFFFFFFFFFFFFFFF AND DUP2 PUSH20 0xFFFFFFFFFFFFFFFFFFFFFFFFFFFFFFFFFFFFFFFF AND PUSH32 0x8BE0079C531659141344CD1FD0A4F28419497F9722A3DAAFE3B4186F6B6457E0 PUSH1 0x40 MLOAD PUSH1 0x40 MLOAD DUP1 SWAP2 SUB SWAP1 LOG3 POP POP JUMP JUMPDEST PUSH0 CALLER SWAP1 POP SWAP1 JUMP JUMPDEST PUSH0 PUSH1 0x40 MLOAD SWAP1 POP SWAP1 JUMP JUMPDEST PUSH0 DUP1 REVERT JUMPDEST PUSH0 DUP1 REVERT JUMPDEST PUSH0 DUP2 SWAP1 POP SWAP2 SWAP1 POP JUMP JUMPDEST PUSH2 0xD39 DUP2 PUSH2 0xD27 JUMP JUMPDEST DUP2 EQ PUSH2 0xD43 JUMPI PUSH0 DUP1 REVERT JUMPDEST POP JUMP JUMPDEST PUSH0 DUP2 CALLDATALOAD SWAP1 POP PUSH2 0xD54 DUP2 PUSH2 0xD30 JUMP JUMPDEST SWAP3 SWAP2 POP POP JUMP JUMPDEST PUSH0 PUSH1 0x20 DUP3 DUP5 SUB SLT ISZERO PUSH2 0xD6F JUMPI PUSH2 0xD6E PUSH2 0xD1F JUMP JUMPDEST JUMPDEST PUSH0 PUSH2 0xD7C DUP5 DUP3 DUP6 ADD PUSH2 0xD46 JUMP JUMPDEST SWAP2 POP POP SWAP3 SWAP2 POP POP JUMP JUMPDEST PUSH0 DUP2 MLOAD SWAP1 POP SWAP2 SWAP1 POP JUMP JUMPDEST PUSH0 DUP3 DUP3 MSTORE PUSH1 0x20 DUP3 ADD SWAP1 POP SWAP3 SWAP2 POP POP JUMP JUMPDEST PUSH0 JUMPDEST DUP4 DUP2 LT ISZERO PUSH2 0xDBC JUMPI DUP1 DUP3 ADD MLOAD DUP2 DUP5 ADD MSTORE PUSH1 0x20 DUP2 ADD SWAP1 POP PUSH2 0xDA1 JUMP JUMPDEST PUSH0 DUP5 DUP5 ADD MSTORE POP POP POP POP JUMP JUMPDEST PUSH0 PUSH1 0x1F NOT PUSH1 0x1F DUP4 ADD AND SWAP1 POP SWAP2 SWAP1 POP JUMP JUMPDEST PUSH0 PUSH2 0xDE1 DUP3 PUSH2 0xD85 JUMP JUMPDEST PUSH2 0xDEB DUP2 DUP6 PUSH2 0xD8F JUMP JUMPDEST SWAP4 POP PUSH2 0xDFB DUP2 DUP6 PUSH1 0x20 DUP7 ADD PUSH2 0xD9F JUMP JUMPDEST PUSH2 0xE04 DUP2 PUSH2 0xDC7 JUMP JUMPDEST DUP5 ADD SWAP2 POP POP SWAP3 SWAP2 POP POP JUMP JUMPDEST PUSH2 0xE18 DUP2 PUSH2 0xD27 JUMP JUMPDEST DUP3 MSTORE POP POP JUMP JUMPDEST PUSH0 PUSH20 0xFFFFFFFFFFFFFFFFFFFFFFFFFFFFFFFFFFFFFFFF DUP3 AND SWAP1 POP SWAP2 SWAP1 POP JUMP JUMPDEST PUSH0 PUSH2 0xE47 DUP3 PUSH2 0xE1E JUMP JUMPDEST SWAP1 POP SWAP2 SWAP1 POP JUMP JUMPDEST PUSH2 0xE57 DUP2 PUSH2 0xE3D JUMP JUMPDEST DUP3 MSTORE POP POP JUMP JUMPDEST PUSH0 PUSH1 0xA0 DUP3 ADD SWAP1 POP DUP2 DUP2 SUB PUSH0 DUP4 ADD MSTORE PUSH2 0xE75 DUP2 DUP9 PUSH2 0xDD7 JUMP JUMPDEST SWAP1 POP DUP2 DUP2 SUB PUSH1 0x20 DUP4 ADD MSTORE PUSH2 0xE89 DUP2 DUP8 PUSH2 0xDD7 JUMP JUMPDEST SWAP1 POP DUP2 DUP2 SUB PUSH1 0x40 DUP4 ADD MSTORE PUSH2 0xE9D DUP2 DUP7 PUSH2 0xDD7 JUMP JUMPDEST SWAP1 POP PUSH2 0xEAC PUSH1 0x60 DUP4 ADD DUP6 PUSH2 0xE0F JUMP JUMPDEST PUSH2 0xEB9 PUSH1 0x80 DUP4 ADD DUP5 PUSH2 0xE4E JUMP JUMPDEST SWAP7 SWAP6 POP POP POP POP POP POP JUMP JUMPDEST PUSH2 0xECC DUP2 PUSH2 0xE3D JUMP JUMPDEST DUP2 EQ PUSH2 0xED6 JUMPI PUSH0 DUP1 REVERT JUMPDEST POP JUMP JUMPDEST PUSH0 DUP2 CALLDATALOAD SWAP1 POP PUSH2 0xEE7 DUP2 PUSH2 0xEC3 JUMP JUMPDEST SWAP3 SWAP2 POP POP JUMP JUMPDEST PUSH0 DUP1 PUSH1 0x40 DUP4 DUP6 SUB SLT ISZERO PUSH2 0xF03 JUMPI PUSH2 0xF02 PUSH2 0xD1F JUMP JUMPDEST JUMPDEST PUSH0 PUSH2 0xF10 DUP6 DUP3 DUP7 ADD PUSH2 0xD46 JUMP JUMPDEST SWAP3 POP POP PUSH1 0x20 PUSH2 0xF21 DUP6 DUP3 DUP7 ADD PUSH2 0xED9 JUMP JUMPDEST SWAP2 POP POP SWAP3 POP SWAP3 SWAP1 POP JUMP JUMPDEST PUSH0 DUP1 REVERT JUMPDEST PUSH0 DUP1 REVERT JUMPDEST PUSH32 0x4E487B7100000000000000000000000000000000000000000000000000000000 PUSH0 MSTORE PUSH1 0x41 PUSH1 0x4 MSTORE PUSH1 0x24 PUSH0 REVERT JUMPDEST PUSH2 0xF69 DUP3 PUSH2 0xDC7 JUMP JUMPDEST DUP2 ADD DUP2 DUP2 LT PUSH8 0xFFFFFFFFFFFFFFFF DUP3 GT OR ISZERO PUSH2 0xF88 JUMPI PUSH2 0xF87 PUSH2 0xF33 JUMP JUMPDEST JUMPDEST DUP1 PUSH1 0x40 MSTORE POP POP POP JUMP JUMPDEST PUSH0 PUSH2 0xF9A PUSH2 0xD16 JUMP JUMPDEST SWAP1 POP PUSH2 0xFA6 DUP3 DUP3 PUSH2 0xF60 JUMP JUMPDEST SWAP2 SWAP1 POP JUMP JUMPDEST PUSH0 PUSH8 0xFFFFFFFFFFFFFFFF DUP3 GT ISZERO PUSH2 0xFC5 JUMPI PUSH2 0xFC4 PUSH2 0xF33 JUMP JUMPDEST JUMPDEST PUSH2 0xFCE DUP3 PUSH2 0xDC7 JUMP JUMPDEST SWAP1 POP PUSH1 0x20 DUP2 ADD SWAP1 POP SWAP2 SWAP1 POP JUMP JUMPDEST DUP3 DUP2 DUP4 CALLDATACOPY PUSH0 DUP4 DUP4 ADD MSTORE POP POP POP JUMP JUMPDEST PUSH0 PUSH2 0xFFB PUSH2 0xFF6 DUP5 PUSH2 0xFAB JUMP JUMPDEST PUSH2 0xF91 JUMP JUMPDEST SWAP1 POP DUP3 DUP2 MSTORE PUSH1 0x20 DUP2 ADD DUP5 DUP5 DUP5 ADD GT ISZERO PUSH2 0x1017 JUMPI PUSH2 0x1016 PUSH2 0xF2F JUMP JUMPDEST JUMPDEST PUSH2 0x1022 DUP5 DUP3 DUP6 PUSH2 0xFDB JUMP JUMPDEST POP SWAP4 SWAP3 POP POP POP JUMP JUMPDEST PUSH0 DUP3 PUSH1 0x1F DUP4 ADD SLT PUSH2 0x103E JUMPI PUSH2 0x103D PUSH2 0xF2B JUMP JUMPDEST JUMPDEST DUP2 CALLDATALOAD PUSH2 0x104E DUP5 DUP3 PUSH1 0x20 DUP7 ADD PUSH2 0xFE9 JUMP JUMPDEST SWAP2 POP POP SWAP3 SWAP2 POP POP JUMP JUMPDEST PUSH0 DUP1 PUSH0 PUSH1 0x60 DUP5 DUP7 SUB SLT ISZERO PUSH2 0x106E JUMPI PUSH2 0x106D PUSH2 0xD1F JUMP JUMPDEST JUMPDEST PUSH0 DUP5 ADD CALLDATALOAD PUSH8 0xFFFFFFFFFFFFFFFF DUP2 GT ISZERO PUSH2 0x108B JUMPI PUSH2 0x108A PUSH2 0xD23 JUMP JUMPDEST JUMPDEST PUSH2 0x1097 DUP7 DUP3 DUP8 ADD PUSH2 0x102A JUMP JUMPDEST SWAP4 POP POP PUSH1 0x20 DUP5 ADD CALLDATALOAD PUSH8 0xFFFFFFFFFFFFFFFF DUP2 GT ISZERO PUSH2 0x10B8 JUMPI PUSH2 0x10B7 PUSH2 0xD23 JUMP JUMPDEST JUMPDEST PUSH2 0x10C4 DUP7 DUP3 DUP8 ADD PUSH2 0x102A JUMP JUMPDEST SWAP3 POP POP PUSH1 0x40 DUP5 ADD CALLDATALOAD PUSH8 0xFFFFFFFFFFFFFFFF DUP2 GT ISZERO PUSH2 0x10E5 JUMPI PUSH2 0x10E4 PUSH2 0xD23 JUMP JUMPDEST JUMPDEST PUSH2 0x10F1 DUP7 DUP3 DUP8 ADD PUSH2 0x102A JUMP JUMPDEST SWAP2 POP POP SWAP3 POP SWAP3 POP SWAP3 JUMP JUMPDEST PUSH0 PUSH1 0x20 DUP3 ADD SWAP1 POP PUSH2 0x110E PUSH0 DUP4 ADD DUP5 PUSH2 0xE0F JUMP JUMPDEST SWAP3 SWAP2 POP POP JUMP JUMPDEST PUSH0 PUSH1 0x20 DUP3 ADD SWAP1 POP PUSH2 0x1127 PUSH0 DUP4 ADD DUP5 PUSH2 0xE4E JUMP JUMPDEST SWAP3 SWAP2 POP POP JUMP JUMPDEST PUSH0 PUSH1 0x20 DUP3 DUP5 SUB SLT ISZERO PUSH2 0x1142 JUMPI PUSH2 0x1141 PUSH2 0xD1F JUMP JUMPDEST JUMPDEST PUSH0 PUSH2 0x114F DUP5 DUP3 DUP6 ADD PUSH2 0xED9 JUMP JUMPDEST SWAP2 POP POP SWAP3 SWAP2 POP POP JUMP JUMPDEST PUSH32 0x417274776F726B20646F6573206E6F7420657869737400000000000000000000 PUSH0 DUP3 ADD MSTORE POP JUMP JUMPDEST PUSH0 PUSH2 0x118C PUSH1 0x16 DUP4 PUSH2 0xD8F JUMP JUMPDEST SWAP2 POP PUSH2 0x1197 DUP3 PUSH2 0x1158 JUMP JUMPDEST PUSH1 0x20 DUP3 ADD SWAP1 POP SWAP2 SWAP1 POP JUMP JUMPDEST PUSH0 PUSH1 0x20 DUP3 ADD SWAP1 POP DUP2 DUP2 SUB PUSH0 DUP4 ADD MSTORE PUSH2 0x11B9 DUP2 PUSH2 0x1180 JUMP JUMPDEST SWAP1 POP SWAP2 SWAP1 POP JUMP JUMPDEST PUSH32 0x4E487B7100000000000000000000000000000000000000000000000000000000 PUSH0 MSTORE PUSH1 0x22 PUSH1 0x4 MSTORE PUSH1 0x24 PUSH0 REVERT JUMPDEST PUSH0 PUSH1 0x2 DUP3 DIV SWAP1 POP PUSH1 0x1 DUP3 AND DUP1 PUSH2 0x1204 JUMPI PUSH1 0x7F DUP3 AND SWAP2 POP JUMPDEST PUSH1 0x20 DUP3 LT DUP2 SUB PUSH2 0x1217 JUMPI PUSH2 0x1216 PUSH2 0x11C0 JUMP JUMPDEST JUMPDEST POP SWAP2 SWAP1 POP JUMP JUMPDEST PUSH32 0x496E76616C696420616464726573730000000000000000000000000000000000 PUSH0 DUP3 ADD MSTORE POP JUMP JUMPDEST PUSH0 PUSH2 0x1251 PUSH1 0xF DUP4 PUSH2 0xD8F JUMP JUMPDEST SWAP2 POP PUSH2 0x125C DUP3 PUSH2 0x121D JUMP JUMPDEST PUSH1 0x20 DUP3 ADD SWAP1 POP SWAP2 SWAP1 POP JUMP JUMPDEST PUSH0 PUSH1 0x20 DUP3 ADD SWAP1 POP DUP2 DUP2 SUB PUSH0 DUP4 ADD MSTORE PUSH2 0x127E DUP2 PUSH2 0x1245 JUMP JUMPDEST SWAP1 POP SWAP2 SWAP1 POP JUMP JUMPDEST PUSH32 0x43616C6C6572206973206E6F7420746865206F776E6572000000000000000000 PUSH0 DUP3 ADD MSTORE POP JUMP JUMPDEST PUSH0 PUSH2 0x12B9 PUSH1 0x17 DUP4 PUSH2 0xD8F JUMP JUMPDEST SWAP2 POP PUSH2 0x12C4 DUP3 PUSH2 0x1285 JUMP JUMPDEST PUSH1 0x20 DUP3 ADD SWAP1 POP SWAP2 SWAP1 POP JUMP JUMPDEST PUSH0 PUSH1 0x20 DUP3 ADD SWAP1 POP DUP2 DUP2 SUB PUSH0 DUP4 ADD MSTORE PUSH2 0x12E6 DUP2 PUSH2 0x12AD JUMP JUMPDEST SWAP1 POP SWAP2 SWAP1 POP JUMP JUMPDEST PUSH32 0x496E76616C696420696E70757400000000000000000000000000000000000000 PUSH0 DUP3 ADD MSTORE POP JUMP JUMPDEST PUSH0 PUSH2 0x1321 PUSH1 0xD DUP4 PUSH2 0xD8F JUMP JUMPDEST SWAP2 POP PUSH2 0x132C DUP3 PUSH2 0x12ED JUMP JUMPDEST PUSH1 0x20 DUP3 ADD SWAP1 POP SWAP2 SWAP1 POP JUMP JUMPDEST PUSH0 PUSH1 0x20 DUP3 ADD SWAP1 POP DUP2 DUP2 SUB PUSH0 DUP4 ADD MSTORE PUSH2 0x134E DUP2 PUSH2 0x1315 JUMP JUMPDEST SWAP1 POP SWAP2 SWAP1 POP JUMP JUMPDEST PUSH32 0x4E487B7100000000000000000000000000000000000000000000000000000000 PUSH0 MSTORE PUSH1 0x11 PUSH1 0x4 MSTORE PUSH1 0x24 PUSH0 REVERT JUMPDEST PUSH0 PUSH2 0x138C DUP3 PUSH2 0xD27 JUMP JUMPDEST SWAP2 POP PUSH32 0xFFFFFFFFFFFFFFFFFFFFFFFFFFFFFFFFFFFFFFFFFFFFFFFFFFFFFFFFFFFFFFFF DUP3 SUB PUSH2 0x13BE JUMPI PUSH2 0x13BD PUSH2 0x1355 JUMP JUMPDEST JUMPDEST PUSH1 0x1 DUP3 ADD SWAP1 POP SWAP2 SWAP1 POP JUMP JUMPDEST PUSH0 DUP2 SWAP1 POP DUP2 PUSH0 MSTORE PUSH1 0x20 PUSH0 KECCAK256 SWAP1 POP SWAP2 SWAP1 POP JUMP JUMPDEST PUSH0 PUSH1 0x20 PUSH1 0x1F DUP4 ADD DIV SWAP1 POP SWAP2 SWAP1 POP JUMP JUMPDEST PUSH0 DUP3 DUP3 SHL SWAP1 POP SWAP3 SWAP2 POP POP JUMP JUMPDEST PUSH0 PUSH1 0x8 DUP4 MUL PUSH2 0x1425 PUSH32 0xFFFFFFFFFFFFFFFFFFFFFFFFFFFFFFFFFFFFFFFFFFFFFFFFFFFFFFFFFFFFFFFF DUP3 PUSH2 0x13EA JUMP JUMPDEST PUSH2 0x142F DUP7 DUP4 PUSH2 0x13EA JUMP JUMPDEST SWAP6 POP DUP1 NOT DUP5 AND SWAP4 POP DUP1 DUP7 AND DUP5 OR SWAP3 POP POP POP SWAP4 SWAP3 POP POP POP JUMP JUMPDEST PUSH0 DUP2 SWAP1 POP SWAP2 SWAP1 POP JUMP JUMPDEST PUSH0 PUSH2 0x146A PUSH2 0x1465 PUSH2 0x1460 DUP5 PUSH2 0xD27 JUMP JUMPDEST PUSH2 0x1447 JUMP JUMPDEST PUSH2 0xD27 JUMP JUMPDEST SWAP1 POP SWAP2 SWAP1 POP JUMP JUMPDEST PUSH0 DUP2 SWAP1 POP SWAP2 SWAP1 POP JUMP JUMPDEST PUSH2 0x1483 DUP4 PUSH2 0x1450 JUMP JUMPDEST PUSH2 0x1497 PUSH2 0x148F DUP3 PUSH2 0x1471 JUMP JUMPDEST DUP5 DUP5 SLOAD PUSH2 0x13F6 JUMP JUMPDEST DUP3 SSTORE POP POP POP POP JUMP JUMPDEST PUSH0 SWAP1 JUMP JUMPDEST PUSH2 0x14AB PUSH2 0x149F JUMP JUMPDEST PUSH2 0x14B6 DUP2 DUP5 DUP5 PUSH2 0x147A JUMP JUMPDEST POP POP POP JUMP JUMPDEST JUMPDEST DUP2 DUP2 LT ISZERO PUSH2 0x14D9 JUMPI PUSH2 0x14CE PUSH0 DUP3 PUSH2 0x14A3 JUMP JUMPDEST PUSH1 0x1 DUP2 ADD SWAP1 POP PUSH2 0x14BC JUMP JUMPDEST POP POP JUMP JUMPDEST PUSH1 0x1F DUP3 GT ISZERO PUSH2 0x151E JUMPI PUSH2 0x14EF DUP2 PUSH2 0x13C9 JUMP JUMPDEST PUSH2 0x14F8 DUP5 PUSH2 0x13DB JUMP JUMPDEST DUP2 ADD PUSH1 0x20 DUP6 LT ISZERO PUSH2 0x1507 JUMPI DUP2 SWAP1 POP JUMPDEST PUSH2 0x151B PUSH2 0x1513 DUP6 PUSH2 0x13DB JUMP JUMPDEST DUP4 ADD DUP3 PUSH2 0x14BB JUMP JUMPDEST POP POP JUMPDEST POP POP POP JUMP JUMPDEST PUSH0 DUP3 DUP3 SHR SWAP1 POP SWAP3 SWAP2 POP POP JUMP JUMPDEST PUSH0 PUSH2 0x153E PUSH0 NOT DUP5 PUSH1 0x8 MUL PUSH2 0x1523 JUMP JUMPDEST NOT DUP1 DUP4 AND SWAP2 POP POP SWAP3 SWAP2 POP POP JUMP JUMPDEST PUSH0 PUSH2 0x1556 DUP4 DUP4 PUSH2 0x152F JUMP JUMPDEST SWAP2 POP DUP3 PUSH1 0x2 MUL DUP3 OR SWAP1 POP SWAP3 SWAP2 POP POP JUMP JUMPDEST PUSH2 0x156F DUP3 PUSH2 0xD85 JUMP JUMPDEST PUSH8 0xFFFFFFFFFFFFFFFF DUP2 GT ISZERO PUSH2 0x1588 JUMPI PUSH2 0x1587 PUSH2 0xF33 JUMP JUMPDEST JUMPDEST PUSH2 0x1592 DUP3 SLOAD PUSH2 0x11ED JUMP JUMPDEST PUSH2 0x159D DUP3 DUP3 DUP6 PUSH2 0x14DD JUMP JUMPDEST PUSH0 PUSH1 0x20 SWAP1 POP PUSH1 0x1F DUP4 GT PUSH1 0x1 DUP2 EQ PUSH2 0x15CE JUMPI PUSH0 DUP5 ISZERO PUSH2 0x15BC JUMPI DUP3 DUP8 ADD MLOAD SWAP1 POP JUMPDEST PUSH2 0x15C6 DUP6 DUP3 PUSH2 0x154B JUMP JUMPDEST DUP7 SSTORE POP PUSH2 0x162D JUMP JUMPDEST PUSH1 0x1F NOT DUP5 AND PUSH2 0x15DC DUP7 PUSH2 0x13C9 JUMP JUMPDEST PUSH0 JUMPDEST DUP3 DUP2 LT ISZERO PUSH2 0x1603 JUMPI DUP5 DUP10 ADD MLOAD DUP3 SSTORE PUSH1 0x1 DUP3 ADD SWAP2 POP PUSH1 0x20 DUP6 ADD SWAP5 POP PUSH1 0x20 DUP2 ADD SWAP1 POP PUSH2 0x15DE JUMP JUMPDEST DUP7 DUP4 LT ISZERO PUSH2 0x1620 JUMPI DUP5 DUP10 ADD MLOAD PUSH2 0x161C PUSH1 0x1F DUP10 AND DUP3 PUSH2 0x152F JUMP JUMPDEST DUP4 SSTORE POP JUMPDEST PUSH1 0x1 PUSH1 0x2 DUP9 MUL ADD DUP9 SSTORE POP POP POP JUMPDEST POP POP POP POP POP POP JUMP JUMPDEST PUSH0 PUSH1 0x60 DUP3 ADD SWAP1 POP DUP2 DUP2 SUB PUSH0 DUP4 ADD MSTORE PUSH2 0x164D DUP2 DUP7 PUSH2 0xDD7 JUMP JUMPDEST SWAP1 POP DUP2 DUP2 SUB PUSH1 0x20 DUP4 ADD MSTORE PUSH2 0x1661 DUP2 DUP6 PUSH2 0xDD7 JUMP JUMPDEST SWAP1 POP DUP2 DUP2 SUB PUSH1 0x40 DUP4 ADD MSTORE PUSH2 0x1675 DUP2 DUP5 PUSH2 0xDD7 JUMP JUMPDEST SWAP1 POP SWAP5 SWAP4 POP POP POP POP JUMP JUMPDEST PUSH32 0x496E76616C6964206164647265737320666F72206E6577206F776E6572000000 PUSH0 DUP3 ADD MSTORE POP JUMP JUMPDEST PUSH0 PUSH2 0x16B3 PUSH1 0x1D DUP4 PUSH2 0xD8F JUMP JUMPDEST SWAP2 POP PUSH2 0x16BE DUP3 PUSH2 0x167F JUMP JUMPDEST PUSH1 0x20 DUP3 ADD SWAP1 POP SWAP2 SWAP1 POP JUMP JUMPDEST PUSH0 PUSH1 0x20 DUP3 ADD SWAP1 POP DUP2 DUP2 SUB PUSH0 DUP4 ADD MSTORE PUSH2 0x16E0 DUP2 PUSH2 0x16A7 JUMP JUMPDEST SWAP1 POP SWAP2 SWAP1 POP JUMP INVALID LOG2 PUSH5 0x6970667358 0x22 SLT KECCAK256 PUSH31 0x3304D5B1E42651C51AA9F10204E4E657A05959620E16033A5A113319B74345 PUSH5 0x736F6C6343 STOP ADDMOD AND STOP CALLER "
				},
				"gasEstimates": {
					"creation": {
						"codeDepositCost": "1183400",
						"executionCost": "infinite",
						"totalCost": "infinite"
					},
					"external": {
						"artworks(uint256)": "infinite",
						"getArtwork(uint256)": "infinite",
						"nextId()": "2425",
						"owner()": "2559",
						"registerArtwork(string,string,string)": "infinite",
						"renounceOwnership()": "infinite",
						"transferContractOwnership(address)": "infinite",
						"transferOwnership(address)": "infinite",
						"transferOwnership(uint256,address)": "33416"
					}
				},
				"methodIdentifiers": {
					"artworks(uint256)": "4b602673",
					"getArtwork(uint256)": "167ddf6e",
					"nextId()": "61b8ce8c",
					"owner()": "8da5cb5b",
					"registerArtwork(string,string,string)": "3264dc8e",
					"renounceOwnership()": "715018a6",
					"transferContractOwnership(address)": "a843c51f",
					"transferOwnership(address)": "f2fde38b",
					"transferOwnership(uint256,address)": "29507f73"
				}
			},
			"storageLayout": {
				"storage": [
					{
						"astId": 249,
						"contract": "contracts/NftArtworkToken.sol:NftArtworkToken",
						"label": "_owner",
						"offset": 0,
						"slot": "0",
						"type": "t_address"
					},
					{
						"astId": 22,
						"contract": "contracts/NftArtworkToken.sol:NftArtworkToken",
						"label": "artworks",
						"offset": 0,
						"slot": "1",
						"type": "t_mapping(t_uint256,t_struct(Artwork)17_storage)"
					},
					{
						"astId": 24,
						"contract": "contracts/NftArtworkToken.sol:NftArtworkToken",
						"label": "nextId",
						"offset": 0,
						"slot": "2",
						"type": "t_uint256"
					}
				],
				"types": {
					"t_address": {
						"encoding": "inplace",
						"label": "address",
						"numberOfBytes": "20"
					},
					"t_mapping(t_uint256,t_struct(Artwork)17_storage)": {
						"encoding": "mapping",
						"key": "t_uint256",
						"label": "mapping(uint256 => struct NftArtworkToken.Artwork)",
						"numberOfBytes": "32",
						"value": "t_struct(Artwork)17_storage"
					},
					"t_string_storage": {
						"encoding": "bytes",
						"label": "string",
						"numberOfBytes": "32"
					},
					"t_struct(Artwork)17_storage": {
						"encoding": "inplace",
						"label": "struct NftArtworkToken.Artwork",
						"members": [
							{
								"astId": 8,
								"contract": "contracts/NftArtworkToken.sol:NftArtworkToken",
								"label": "title",
								"offset": 0,
								"slot": "0",
								"type": "t_string_storage"
							},
							{
								"astId": 10,
								"contract": "contracts/NftArtworkToken.sol:NftArtworkToken",
								"label": "description",
								"offset": 0,
								"slot": "1",
								"type": "t_string_storage"
							},
							{
								"astId": 12,
								"contract": "contracts/NftArtworkToken.sol:NftArtworkToken",
								"label": "creator",
								"offset": 0,
								"slot": "2",
								"type": "t_string_storage"
							},
							{
								"astId": 14,
								"contract": "contracts/NftArtworkToken.sol:NftArtworkToken",
								"label": "timestamp",
								"offset": 0,
								"slot": "3",
								"type": "t_uint256"
							},
							{
								"astId": 16,
								"contract": "contracts/NftArtworkToken.sol:NftArtworkToken",
								"label": "owner",
								"offset": 0,
								"slot": "4",
								"type": "t_address"
							}
						],
						"numberOfBytes": "160"
					},
					"t_uint256": {
						"encoding": "inplace",
						"label": "uint256",
						"numberOfBytes": "32"
					}
				}
			},
			"userdoc": {
				"kind": "user",
				"methods": {},
				"version": 1
			}
		}
	}
}