{
	"data": {
		"bytecode": {
			"linkReferences": {},
			"object": "608060405234801562000010575f80fd5b50335f73ffffffffffffffffffffffffffffffffffffffff168173ffffffffffffffffffffffffffffffffffffffff160362000085575f6040517f1e4fbdf70000000000000000000000000000000000000000000000000000000081526004016200007c9190620001a1565b60405180910390fd5b62000096816200009d60201b60201c565b50620001bc565b5f805f9054906101000a900473ffffffffffffffffffffffffffffffffffffffff169050815f806101000a81548173ffffffffffffffffffffffffffffffffffffffff021916908373ffffffffffffffffffffffffffffffffffffffff1602179055508173ffffffffffffffffffffffffffffffffffffffff168173ffffffffffffffffffffffffffffffffffffffff167f8be0079c531659141344cd1fd0a4f28419497f9722a3daafe3b4186f6b6457e060405160405180910390a35050565b5f73ffffffffffffffffffffffffffffffffffffffff82169050919050565b5f62000189826200015e565b9050919050565b6200019b816200017d565b82525050565b5f602082019050620001b65f83018462000190565b92915050565b61171d80620001ca5f395ff3fe608060405234801561000f575f80fd5b5060043610610091575f3560e01c806361b8ce8c1161006457806361b8ce8c14610135578063715018a6146101535780638da5cb5b1461015d578063a843c51f1461017b578063f2fde38b1461019757610091565b8063167ddf6e1461009557806329507f73146100c95780633264dc8e146100e55780634b60267314610101575b5f80fd5b6100af60048036038101906100aa9190610d5a565b6101b3565b6040516100c0959493929190610e5d565b60405180910390f35b6100e360048036038101906100de9190610eed565b610459565b005b6100ff60048036038101906100fa9190611057565b61067c565b005b61011b60048036038101906101169190610d5a565b61089e565b60405161012c959493929190610e5d565b60405180910390f35b61013d610a81565b60405161014a91906110fb565b60405180910390f35b61015b610a87565b005b610165610a9a565b6040516101729190611114565b60405180910390f35b6101956004803603810190610190919061112d565b610ac1565b005b6101b160048036038101906101ac919061112d565b610b43565b005b60608060605f808560025481106101ff576040517f08c379a00000000000000000000000000000000000000000000000000000000081526004016101f6906111a2565b60405180910390fd5b5f60015f8981526020019081526020015f206040518060a00160405290815f8201805461022b906111ed565b80601f0160208091040260200160405190810160405280929190818152602001828054610257906111ed565b80156102a25780601f10610279576101008083540402835291602001916102a2565b820191905f5260205f20905b81548152906001019060200180831161028557829003601f168201915b505050505081526020016001820180546102bb906111ed565b80601f01602080910402602001604051908101604052809291908181526020018280546102e7906111ed565b80156103325780601f1061030957610100808354040283529160200191610332565b820191905f5260205f20905b81548152906001019060200180831161031557829003601f168201915b5050505050815260200160028201805461034b906111ed565b80601f0160208091040260200160405190810160405280929190818152602001828054610377906111ed565b80156103c25780601f10610399576101008083540402835291602001916103c2565b820191905f5260205f20905b8154815290600101906020018083116103a557829003601f168201915b5050505050815260200160038201548152602001600482015f9054906101000a900473ffffffffffffffffffffffffffffffffffffffff1673ffffffffffffffffffffffffffffffffffffffff1673ffffffffffffffffffffffffffffffffffffffff16815250509050805f0151816020015182604001518360600151846080015196509650965096509650505091939590929450565b81600254811061049e576040517f08c379a0000000000000000000000000000000000000000000000000000000008152600401610495906111a2565b60405180910390fd5b5f73ffffffffffffffffffffffffffffffffffffffff168273ffffffffffffffffffffffffffffffffffffffff160361050c576040517f08c379a000000000000000000000000000000000000000000000000000000000815260040161050390611267565b60405180910390fd5b5f60015f8581526020019081526020015f2090503373ffffffffffffffffffffffffffffffffffffffff16816004015f9054906101000a900473ffffffffffffffffffffffffffffffffffffffff1673ffffffffffffffffffffffffffffffffffffffff16146105b1576040517f08c379a00000000000000000000000000000000000000000000000000000000081526004016105a8906112cf565b60405180910390fd5b5f816004015f9054906101000a900473ffffffffffffffffffffffffffffffffffffffff16905083826004015f6101000a81548173ffffffffffffffffffffffffffffffffffffffff021916908373ffffffffffffffffffffffffffffffffffffffff1602179055508373ffffffffffffffffffffffffffffffffffffffff168173ffffffffffffffffffffffffffffffffffffffff16867f16b85f49bf01212961345d3016c9a531894accf62eb7680f2045d79185cc0ec060405160405180910390a45050505050565b825f8151116106c0576040517f08c379a00000000000000000000000000000000000000000000000000000000081526004016106b790611337565b60405180910390fd5b825f815111610704576040517f08c379a00000000000000000000000000000000000000000000000000000000081526004016106fb90611337565b60405180910390fd5b825f815111610748576040517f08c379a000000000000000000000000000000000000000000000000000000000815260040161073f90611337565b60405180910390fd5b5f60025f81548092919061075b90611382565b9190505590506040518060a001604052808881526020018781526020018681526020014281526020013373ffffffffffffffffffffffffffffffffffffffff1681525060015f8381526020019081526020015f205f820151815f0190816107c29190611566565b5060208201518160010190816107d89190611566565b5060408201518160020190816107ee9190611566565b50606082015181600301556080820151816004015f6101000a81548173ffffffffffffffffffffffffffffffffffffffff021916908373ffffffffffffffffffffffffffffffffffffffff1602179055509050503373ffffffffffffffffffffffffffffffffffffffff16817ffd2e94f3cc8d3dbd181bdf7102bc402dd062739e4af414a51a4c46533b6d0b1c89898960405161088d93929190611635565b60405180910390a350505050505050565b6001602052805f5260405f205f91509050805f0180546108bd906111ed565b80601f01602080910402602001604051908101604052809291908181526020018280546108e9906111ed565b80156109345780601f1061090b57610100808354040283529160200191610934565b820191905f5260205f20905b81548152906001019060200180831161091757829003601f168201915b505050505090806001018054610949906111ed565b80601f0160208091040260200160405190810160405280929190818152602001828054610975906111ed565b80156109c05780601f10610997576101008083540402835291602001916109c0565b820191905f5260205f20905b8154815290600101906020018083116109a357829003601f168201915b5050505050908060020180546109d5906111ed565b80601f0160208091040260200160405190810160405280929190818152602001828054610a01906111ed565b8015610a4c5780601f10610a2357610100808354040283529160200191610a4c565b820191905f5260205f20905b815481529060010190602001808311610a2f57829003601f168201915b505050505090806003015490806004015f9054906101000a900473ffffffffffffffffffffffffffffffffffffffff16905085565b60025481565b610a8f610bc7565b610a985f610c4e565b565b5f805f9054906101000a900473ffffffffffffffffffffffffffffffffffffffff16905090565b610ac9610bc7565b5f73ffffffffffffffffffffffffffffffffffffffff168173ffffffffffffffffffffffffffffffffffffffff1603610b37576040517f08c379a0000000000000000000000000000000000000000000000000000000008152600401610b2e906116c9565b60405180910390fd5b610b4081610b43565b50565b610b4b610bc7565b5f73ffffffffffffffffffffffffffffffffffffffff168173ffffffffffffffffffffffffffffffffffffffff1603610bbb575f6040517f1e4fbdf7000000000000000000000000000000000000000000000000000000008152600401610bb29190611114565b60405180910390fd5b610bc481610c4e565b50565b610bcf610d0f565b73ffffffffffffffffffffffffffffffffffffffff16610bed610a9a565b73ffffffffffffffffffffffffffffffffffffffff1614610c4c57610c10610d0f565b6040517f118cdaa7000000000000000000000000000000000000000000000000000000008152600401610c439190611114565b60405180910390fd5b565b5f805f9054906101000a900473ffffffffffffffffffffffffffffffffffffffff169050815f806101000a81548173ffffffffffffffffffffffffffffffffffffffff021916908373ffffffffffffffffffffffffffffffffffffffff1602179055508173ffffffffffffffffffffffffffffffffffffffff168173ffffffffffffffffffffffffffffffffffffffff167f8be0079c531659141344cd1fd0a4f28419497f9722a3daafe3b4186f6b6457e060405160405180910390a35050565b5f33905090565b5f604051905090565b5f80fd5b5f80fd5b5f819050919050565b610d3981610d27565b8114610d43575f80fd5b50565b5f81359050610d5481610d30565b92915050565b5f60208284031215610d6f57610d6e610d1f565b5b5f610d7c84828501610d46565b91505092915050565b5f81519050919050565b5f82825260208201905092915050565b5f5b83811015610dbc578082015181840152602081019050610da1565b5f8484015250505050565b5f601f19601f8301169050919050565b5f610de182610d85565b610deb8185610d8f565b9350610dfb818560208601610d9f565b610e0481610dc7565b840191505092915050565b610e1881610d27565b82525050565b5f73ffffffffffffffffffffffffffffffffffffffff82169050919050565b5f610e4782610e1e565b9050919050565b610e5781610e3d565b82525050565b5f60a0820190508181035f830152610e758188610dd7565b90508181036020830152610e898187610dd7565b90508181036040830152610e9d8186610dd7565b9050610eac6060830185610e0f565b610eb96080830184610e4e565b9695505050505050565b610ecc81610e3d565b8114610ed6575f80fd5b50565b5f81359050610ee781610ec3565b92915050565b5f8060408385031215610f0357610f02610d1f565b5b5f610f1085828601610d46565b9250506020610f2185828601610ed9565b9150509250929050565b5f80fd5b5f80fd5b7f4e487b71000000000000000000000000000000000000000000000000000000005f52604160045260245ffd5b610f6982610dc7565b810181811067ffffffffffffffff82111715610f8857610f87610f33565b5b80604052505050565b5f610f9a610d16565b9050610fa68282610f60565b919050565b5f67ffffffffffffffff821115610fc557610fc4610f33565b5b610fce82610dc7565b9050602081019050919050565b828183375f83830152505050565b5f610ffb610ff684610fab565b610f91565b90508281526020810184848401111561101757611016610f2f565b5b611022848285610fdb565b509392505050565b5f82601f83011261103e5761103d610f2b565b5b813561104e848260208601610fe9565b91505092915050565b5f805f6060848603121561106e5761106d610d1f565b5b5f84013567ffffffffffffffff81111561108b5761108a610d23565b5b6110978682870161102a565b935050602084013567ffffffffffffffff8111156110b8576110b7610d23565b5b6110c48682870161102a565b925050604084013567ffffffffffffffff8111156110e5576110e4610d23565b5b6110f18682870161102a565b9150509250925092565b5f60208201905061110e5f830184610e0f565b92915050565b5f6020820190506111275f830184610e4e565b92915050565b5f6020828403121561114257611141610d1f565b5b5f61114f84828501610ed9565b91505092915050565b7f417274776f726b20646f6573206e6f74206578697374000000000000000000005f82015250565b5f61118c601683610d8f565b915061119782611158565b602082019050919050565b5f6020820190508181035f8301526111b981611180565b9050919050565b7f4e487b71000000000000000000000000000000000000000000000000000000005f52602260045260245ffd5b5f600282049050600182168061120457607f821691505b602082108103611217576112166111c0565b5b50919050565b7f496e76616c6964206164647265737300000000000000000000000000000000005f82015250565b5f611251600f83610d8f565b915061125c8261121d565b602082019050919050565b5f6020820190508181035f83015261127e81611245565b9050919050565b7f43616c6c6572206973206e6f7420746865206f776e65720000000000000000005f82015250565b5f6112b9601783610d8f565b91506112c482611285565b602082019050919050565b5f6020820190508181035f8301526112e6816112ad565b9050919050565b7f496e76616c696420696e707574000000000000000000000000000000000000005f82015250565b5f611321600d83610d8f565b915061132c826112ed565b602082019050919050565b5f6020820190508181035f83015261134e81611315565b9050919050565b7f4e487b71000000000000000000000000000000000000000000000000000000005f52601160045260245ffd5b5f61138c82610d27565b91507fffffffffffffffffffffffffffffffffffffffffffffffffffffffffffffffff82036113be576113bd611355565b5b600182019050919050565b5f819050815f5260205f209050919050565b5f6020601f8301049050919050565b5f82821b905092915050565b5f600883026114257fffffffffffffffffffffffffffffffffffffffffffffffffffffffffffffffff826113ea565b61142f86836113ea565b95508019841693508086168417925050509392505050565b5f819050919050565b5f61146a61146561146084610d27565b611447565b610d27565b9050919050565b5f819050919050565b61148383611450565b61149761148f82611471565b8484546113f6565b825550505050565b5f90565b6114ab61149f565b6114b681848461147a565b505050565b5b818110156114d9576114ce5f826114a3565b6001810190506114bc565b5050565b601f82111561151e576114ef816113c9565b6114f8846113db565b81016020851015611507578190505b61151b611513856113db565b8301826114bb565b50505b505050565b5f82821c905092915050565b5f61153e5f1984600802611523565b1980831691505092915050565b5f611556838361152f565b9150826002028217905092915050565b61156f82610d85565b67ffffffffffffffff81111561158857611587610f33565b5b61159282546111ed565b61159d8282856114dd565b5f60209050601f8311600181146115ce575f84156115bc578287015190505b6115c6858261154b565b86555061162d565b601f1984166115dc866113c9565b5f5b82811015611603578489015182556001820191506020850194506020810190506115de565b86831015611620578489015161161c601f89168261152f565b8355505b6001600288020188555050505b505050505050565b5f6060820190508181035f83015261164d8186610dd7565b905081810360208301526116618185610dd7565b905081810360408301526116758184610dd7565b9050949350505050565b7f496e76616c6964206164647265737320666f72206e6577206f776e65720000005f82015250565b5f6116b3601d83610d8f565b91506116be8261167f565b602082019050919050565b5f6020820190508181035f8301526116e0816116a7565b905091905056fea26469706673582212207e3304d5b1e42651c51aa9f10204e4e657a05959620e16033a5a113319b7434564736f6c63430008160033",
			"opcodes": "PUSH1 0x80 PUSH1 0x40 MSTORE CALLVALUE DUP1 ISZERO PUSH3 0x10 JUMPI PUSH0 DUP1 REVERT JUMPDEST POP CALLER PUSH0 PUSH20 0xFFFFFFFFFFFFFFFFFFFFFFFFFFFFFFFFFFFFFFFF AND DUP2 PUSH20 0xFFFFFFFFFFFFFFFFFFFFFFFFFFFFFFFFFFFFFFFF AND SUB PUSH3 0x85 JUMPI PUSH0 PUSH1 0x40 MLOAD PUSH32 0x1E4FBDF700000000000000000000000000000000000000000000000000000000 DUP2 MSTORE PUSH1 0x4 ADD PUSH3 0x7C SWAP2 SWAP1 PUSH3 0x1A1 JUMP JUMPDEST PUSH1 0x40 MLOAD DUP1 SWAP2 SUB SWAP1 REVERT JUMPDEST PUSH3 0x96 DUP2 PUSH3 0x9D PUSH1 0x20 SHL PUSH1 0x20 SHR JUMP JUMPDEST POP PUSH3 0x1BC JUMP JUMPDEST PUSH0 DUP1 PUSH0 SWAP1 SLOAD SWAP1 PUSH2 0x100 EXP SWAP1 DIV PUSH20 0xFFFFFFFFFFFFFFFFFFFFFFFFFFFFFFFFFFFFFFFF AND SWAP1 POP DUP2 PUSH0 DUP1 PUSH2 0x100 EXP DUP2 SLOAD DUP2 PUSH20 0xFFFFFFFFFFFFFFFFFFFFFFFFFFFFFFFFFFFFFFFF MUL NOT AND SWAP1 DUP4 PUSH20 0xFFFFFFFFFFFFFFFFFFFFFFFFFFFFFFFFFFFFFFFF AND MUL OR SWAP1 SSTORE POP DUP2 PUSH20 0xFFFFFFFFFFFFFFFFFFFFFFFFFFFFFFFFFFFFFFFF AND DUP2 PUSH20 0xFFFFFFFFFFFFFFFFFFFFFFFFFFFFFFFFFFFFFFFF AND PUSH32 0x8BE0079C531659141344CD1FD0A4F28419497F9722A3DAAFE3B4186F6B6457E0 PUSH1 0x40 MLOAD PUSH1 0x40 MLOAD DUP1 SWAP2 SUB SWAP1 LOG3 POP POP JUMP JUMPDEST PUSH0 PUSH20 0xFFFFFFFFFFFFFFFFFFFFFFFFFFFFFFFFFFFFFFFF DUP3 AND SWAP1 POP SWAP2 SWAP1 POP JUMP JUMPDEST PUSH0 PUSH3 0x189 DUP3 PUSH3 0x15E JUMP JUMPDEST SWAP1 POP SWAP2 SWAP1 POP JUMP JUMPDEST PUSH3 0x19B DUP2 PUSH3 0x17D JUMP JUMPDEST DUP3 MSTORE POP POP JUMP JUMPDEST PUSH0 PUSH1 0x20 DUP3 ADD SWAP1 POP PUSH3 0x1B6 PUSH0 DUP4 ADD DUP5 PUSH3 0x190 JUMP JUMPDEST SWAP3 SWAP2 POP POP JUMP JUMPDEST PUSH2 0x171D DUP1 PUSH3 0x1CA PUSH0 CODECOPY PUSH0 RETURN INVALID PUSH1 0x80 PUSH1 0x40 MSTORE CALLVALUE DUP1 ISZERO PUSH2 0xF JUMPI PUSH0 DUP1 REVERT JUMPDEST POP PUSH1 0x4 CALLDATASIZE LT PUSH2 0x91 JUMPI PUSH0 CALLDATALOAD PUSH1 0xE0 SHR DUP1 PUSH4 0x61B8CE8C GT PUSH2 0x64 JUMPI DUP1 PUSH4 0x61B8CE8C EQ PUSH2 0x135 JUMPI DUP1 PUSH4 0x715018A6 EQ PUSH2 0x153 JUMPI DUP1 PUSH4 0x8DA5CB5B EQ PUSH2 0x15D JUMPI DUP1 PUSH4 0xA843C51F EQ PUSH2 0x17B JUMPI DUP1 PUSH4 0xF2FDE38B EQ PUSH2 0x197 JUMPI PUSH2 0x91 JUMP JUMPDEST DUP1 PUSH4 0x167DDF6E EQ PUSH2 0x95 JUMPI DUP1 PUSH4 0x29507F73 EQ PUSH2 0xC9 JUMPI DUP1 PUSH4 0x3264DC8E EQ PUSH2 0xE5 JUMPI DUP1 PUSH4 0x4B602673 EQ PUSH2 0x101 JUMPI JUMPDEST PUSH0 DUP1 REVERT JUMPDEST PUSH2 0xAF PUSH1 0x4 DUP1 CALLDATASIZE SUB DUP2 ADD SWAP1 PUSH2 0xAA SWAP2 SWAP1 PUSH2 0xD5A JUMP JUMPDEST PUSH2 0x1B3 JUMP JUMPDEST PUSH1 0x40 MLOAD PUSH2 0xC0 SWAP6 SWAP5 SWAP4 SWAP3 SWAP2 SWAP1 PUSH2 0xE5D JUMP JUMPDEST PUSH1 0x40 MLOAD DUP1 SWAP2 SUB SWAP1 RETURN JUMPDEST PUSH2 0xE3 PUSH1 0x4 DUP1 CALLDATASIZE SUB DUP2 ADD SWAP1 PUSH2 0xDE SWAP2 SWAP1 PUSH2 0xEED JUMP JUMPDEST PUSH2 0x459 JUMP JUMPDEST STOP JUMPDEST PUSH2 0xFF PUSH1 0x4 DUP1 CALLDATASIZE SUB DUP2 ADD SWAP1 PUSH2 0xFA SWAP2 SWAP1 PUSH2 0x1057 JUMP JUMPDEST PUSH2 0x67C JUMP JUMPDEST STOP JUMPDEST PUSH2 0x11B PUSH1 0x4 DUP1 CALLDATASIZE SUB DUP2 ADD SWAP1 PUSH2 0x116 SWAP2 SWAP1 PUSH2 0xD5A JUMP JUMPDEST PUSH2 0x89E JUMP JUMPDEST PUSH1 0x40 MLOAD PUSH2 0x12C SWAP6 SWAP5 SWAP4 SWAP3 SWAP2 SWAP1 PUSH2 0xE5D JUMP JUMPDEST PUSH1 0x40 MLOAD DUP1 SWAP2 SUB SWAP1 RETURN JUMPDEST PUSH2 0x13D PUSH2 0xA81 JUMP JUMPDEST PUSH1 0x40 MLOAD PUSH2 0x14A SWAP2 SWAP1 PUSH2 0x10FB JUMP JUMPDEST PUSH1 0x40 MLOAD DUP1 SWAP2 SUB SWAP1 RETURN JUMPDEST PUSH2 0x15B PUSH2 0xA87 JUMP JUMPDEST STOP JUMPDEST PUSH2 0x165 PUSH2 0xA9A JUMP JUMPDEST PUSH1 0x40 MLOAD PUSH2 0x172 SWAP2 SWAP1 PUSH2 0x1114 JUMP JUMPDEST PUSH1 0x40 MLOAD DUP1 SWAP2 SUB SWAP1 RETURN JUMPDEST PUSH2 0x195 PUSH1 0x4 DUP1 CALLDATASIZE SUB DUP2 ADD SWAP1 PUSH2 0x190 SWAP2 SWAP1 PUSH2 0x112D JUMP JUMPDEST PUSH2 0xAC1 JUMP JUMPDEST STOP JUMPDEST PUSH2 0x1B1 PUSH1 0x4 DUP1 CALLDATASIZE SUB DUP2 ADD SWAP1 PUSH2 0x1AC SWAP2 SWAP1 PUSH2 0x112D JUMP JUMPDEST PUSH2 0xB43 JUMP JUMPDEST STOP JUMPDEST PUSH1 0x60 DUP1 PUSH1 0x60 PUSH0 DUP1 DUP6 PUSH1 0x2 SLOAD DUP2 LT PUSH2 0x1FF JUMPI PUSH1 0x40 MLOAD PUSH32 0x8C379A000000000000000000000000000000000000000000000000000000000 DUP2 MSTORE PUSH1 0x4 ADD PUSH2 0x1F6 SWAP1 PUSH2 0x11A2 JUMP JUMPDEST PUSH1 0x40 MLOAD DUP1 SWAP2 SUB SWAP1 REVERT JUMPDEST PUSH0 PUSH1 0x1 PUSH0 DUP10 DUP2 MSTORE PUSH1 0x20 ADD SWAP1 DUP2 MSTORE PUSH1 0x20 ADD PUSH0 KECCAK256 PUSH1 0x40 MLOAD DUP1 PUSH1 0xA0 ADD PUSH1 0x40 MSTORE SWAP1 DUP2 PUSH0 DUP3 ADD DUP1 SLOAD PUSH2 0x22B SWAP1 PUSH2 0x11ED JUMP JUMPDEST DUP1 PUSH1 0x1F ADD PUSH1 0x20 DUP1 SWAP2 DIV MUL PUSH1 0x20 ADD PUSH1 0x40 MLOAD SWAP1 DUP2 ADD PUSH1 0x40 MSTORE DUP1 SWAP3 SWAP2 SWAP1 DUP2 DUP2 MSTORE PUSH1 0x20 ADD DUP3 DUP1 SLOAD PUSH2 0x257 SWAP1 PUSH2 0x11ED JUMP JUMPDEST DUP1 ISZERO PUSH2 0x2A2 JUMPI DUP1 PUSH1 0x1F LT PUSH2 0x279 JUMPI PUSH2 0x100 DUP1 DUP4 SLOAD DIV MUL DUP4 MSTORE SWAP2 PUSH1 0x20 ADD SWAP2 PUSH2 0x2A2 JUMP JUMPDEST DUP3 ADD SWAP2 SWAP1 PUSH0 MSTORE PUSH1 0x20 PUSH0 KECCAK256 SWAP1 JUMPDEST DUP2 SLOAD DUP2 MSTORE SWAP1 PUSH1 0x1 ADD SWAP1 PUSH1 0x20 ADD DUP1 DUP4 GT PUSH2 0x285 JUMPI DUP3 SWAP1 SUB PUSH1 0x1F AND DUP3 ADD SWAP2 JUMPDEST POP POP POP POP POP DUP2 MSTORE PUSH1 0x20 ADD PUSH1 0x1 DUP3 ADD DUP1 SLOAD PUSH2 0x2BB SWAP1 PUSH2 0x11ED JUMP JUMPDEST DUP1 PUSH1 0x1F ADD PUSH1 0x20 DUP1 SWAP2 DIV MUL PUSH1 0x20 ADD PUSH1 0x40 MLOAD SWAP1 DUP2 ADD PUSH1 0x40 MSTORE DUP1 SWAP3 SWAP2 SWAP1 DUP2 DUP2 MSTORE PUSH1 0x20 ADD DUP3 DUP1 SLOAD PUSH2 0x2E7 SWAP1 PUSH2 0x11ED JUMP JUMPDEST DUP1 ISZERO PUSH2 0x332 JUMPI DUP1 PUSH1 0x1F LT PUSH2 0x309 JUMPI PUSH2 0x100 DUP1 DUP4 SLOAD DIV MUL DUP4 MSTORE SWAP2 PUSH1 0x20 ADD SWAP2 PUSH2 0x332 JUMP JUMPDEST DUP3 ADD SWAP2 SWAP1 PUSH0 MSTORE PUSH1 0x20 PUSH0 KECCAK256 SWAP1 JUMPDEST DUP2 SLOAD DUP2 MSTORE SWAP1 PUSH1 0x1 ADD SWAP1 PUSH1 0x20 ADD DUP1 DUP4 GT PUSH2 0x315 JUMPI DUP3 SWAP1 SUB PUSH1 0x1F AND DUP3 ADD SWAP2 JUMPDEST POP POP POP POP POP DUP2 MSTORE PUSH1 0x20 ADD PUSH1 0x2 DUP3 ADD DUP1 SLOAD PUSH2 0x34B SWAP1 PUSH2 0x11ED JUMP JUMPDEST DUP1 PUSH1 0x1F ADD PUSH1 0x20 DUP1 SWAP2 DIV MUL PUSH1 0x20 ADD PUSH1 0x40 MLOAD SWAP1 DUP2 ADD PUSH1 0x40 MSTORE DUP1 SWAP3 SWAP2 SWAP1 DUP2 DUP2 MSTORE PUSH1 0x20 ADD DUP3 DUP1 SLOAD PUSH2 0x377 SWAP1 PUSH2 0x11ED JUMP JUMPDEST DUP1 ISZERO PUSH2 0x3C2 JUMPI DUP1 PUSH1 0x1F LT PUSH2 0x399 JUMPI PUSH2 0x100 DUP1 DUP4 SLOAD DIV MUL DUP4 MSTORE SWAP2 PUSH1 0x20 ADD SWAP2 PUSH2 0x3C2 JUMP JUMPDEST DUP3 ADD SWAP2 SWAP1 PUSH0 MSTORE PUSH1 0x20 PUSH0 KECCAK256 SWAP1 JUMPDEST DUP2 SLOAD DUP2 MSTORE SWAP1 PUSH1 0x1 ADD SWAP1 PUSH1 0x20 ADD DUP1 DUP4 GT PUSH2 0x3A5 JUMPI DUP3 SWAP1 SUB PUSH1 0x1F AND DUP3 ADD SWAP2 JUMPDEST POP POP POP POP POP DUP2 MSTORE PUSH1 0x20 ADD PUSH1 0x3 DUP3 ADD SLOAD DUP2 MSTORE PUSH1 0x20 ADD PUSH1 0x4 DUP3 ADD PUSH0 SWAP1 SLOAD SWAP1 PUSH2 0x100 EXP SWAP1 DIV PUSH20 0xFFFFFFFFFFFFFFFFFFFFFFFFFFFFFFFFFFFFFFFF AND PUSH20 0xFFFFFFFFFFFFFFFFFFFFFFFFFFFFFFFFFFFFFFFF AND PUSH20 0xFFFFFFFFFFFFFFFFFFFFFFFFFFFFFFFFFFFFFFFF AND DUP2 MSTORE POP POP SWAP1 POP DUP1 PUSH0 ADD MLOAD DUP2 PUSH1 0x20 ADD MLOAD DUP3 PUSH1 0x40 ADD MLOAD DUP4 PUSH1 0x60 ADD MLOAD DUP5 PUSH1 0x80 ADD MLOAD SWAP7 POP SWAP7 POP SWAP7 POP SWAP7 POP SWAP7 POP POP POP SWAP2 SWAP4 SWAP6 SWAP1 SWAP3 SWAP5 POP JUMP JUMPDEST DUP2 PUSH1 0x2 SLOAD DUP2 LT PUSH2 0x49E JUMPI PUSH1 0x40 MLOAD PUSH32 0x8C379A000000000000000000000000000000000000000000000000000000000 DUP2 MSTORE PUSH1 0x4 ADD PUSH2 0x495 SWAP1 PUSH2 0x11A2 JUMP JUMPDEST PUSH1 0x40 MLOAD DUP1 SWAP2 SUB SWAP1 REVERT JUMPDEST PUSH0 PUSH20 0xFFFFFFFFFFFFFFFFFFFFFFFFFFFFFFFFFFFFFFFF AND DUP3 PUSH20 0xFFFFFFFFFFFFFFFFFFFFFFFFFFFFFFFFFFFFFFFF AND SUB PUSH2 0x50C JUMPI PUSH1 0x40 MLOAD PUSH32 0x8C379A000000000000000000000000000000000000000000000000000000000 DUP2 MSTORE PUSH1 0x4 ADD PUSH2 0x503 SWAP1 PUSH2 0x1267 JUMP JUMPDEST PUSH1 0x40 MLOAD DUP1 SWAP2 SUB SWAP1 REVERT JUMPDEST PUSH0 PUSH1 0x1 PUSH0 DUP6 DUP2 MSTORE PUSH1 0x20 ADD SWAP1 DUP2 MSTORE PUSH1 0x20 ADD PUSH0 KECCAK256 SWAP1 POP CALLER PUSH20 0xFFFFFFFFFFFFFFFFFFFFFFFFFFFFFFFFFFFFFFFF AND DUP2 PUSH1 0x4 ADD PUSH0 SWAP1 SLOAD SWAP1 PUSH2 0x100 EXP SWAP1 DIV PUSH20 0xFFFFFFFFFFFFFFFFFFFFFFFFFFFFFFFFFFFFFFFF AND PUSH20 0xFFFFFFFFFFFFFFFFFFFFFFFFFFFFFFFFFFFFFFFF AND EQ PUSH2 0x5B1 JUMPI PUSH1 0x40 MLOAD PUSH32 0x8C379A000000000000000000000000000000000000000000000000000000000 DUP2 MSTORE PUSH1 0x4 ADD PUSH2 0x5A8 SWAP1 PUSH2 0x12CF JUMP JUMPDEST PUSH1 0x40 MLOAD DUP1 SWAP2 SUB SWAP1 REVERT JUMPDEST PUSH0 DUP2 PUSH1 0x4 ADD PUSH0 SWAP1 SLOAD SWAP1 PUSH2 0x100 EXP SWAP1 DIV PUSH20 0xFFFFFFFFFFFFFFFFFFFFFFFFFFFFFFFFFFFFFFFF AND SWAP1 POP DUP4 DUP3 PUSH1 0x4 ADD PUSH0 PUSH2 0x100 EXP DUP2 SLOAD DUP2 PUSH20 0xFFFFFFFFFFFFFFFFFFFFFFFFFFFFFFFFFFFFFFFF MUL NOT AND SWAP1 DUP4 PUSH20 0xFFFFFFFFFFFFFFFFFFFFFFFFFFFFFFFFFFFFFFFF AND MUL OR SWAP1 SSTORE POP DUP4 PUSH20 0xFFFFFFFFFFFFFFFFFFFFFFFFFFFFFFFFFFFFFFFF AND DUP2 PUSH20 0xFFFFFFFFFFFFFFFFFFFFFFFFFFFFFFFFFFFFFFFF AND DUP7 PUSH32 0x16B85F49BF01212961345D3016C9A531894ACCF62EB7680F2045D79185CC0EC0 PUSH1 0x40 MLOAD PUSH1 0x40 MLOAD DUP1 SWAP2 SUB SWAP1 LOG4 POP POP POP POP POP JUMP JUMPDEST DUP3 PUSH0 DUP2 MLOAD GT PUSH2 0x6C0 JUMPI PUSH1 0x40 MLOAD PUSH32 0x8C379A000000000000000000000000000000000000000000000000000000000 DUP2 MSTORE PUSH1 0x4 ADD PUSH2 0x6B7 SWAP1 PUSH2 0x1337 JUMP JUMPDEST PUSH1 0x40 MLOAD DUP1 SWAP2 SUB SWAP1 REVERT JUMPDEST DUP3 PUSH0 DUP2 MLOAD GT PUSH2 0x704 JUMPI PUSH1 0x40 MLOAD PUSH32 0x8C379A000000000000000000000000000000000000000000000000000000000 DUP2 MSTORE PUSH1 0x4 ADD PUSH2 0x6FB SWAP1 PUSH2 0x1337 JUMP JUMPDEST PUSH1 0x40 MLOAD DUP1 SWAP2 SUB SWAP1 REVERT JUMPDEST DUP3 PUSH0 DUP2 MLOAD GT PUSH2 0x748 JUMPI PUSH1 0x40 MLOAD PUSH32 0x8C379A000000000000000000000000000000000000000000000000000000000 DUP2 MSTORE PUSH1 0x4 ADD PUSH2 0x73F SWAP1 PUSH2 0x1337 JUMP JUMPDEST PUSH1 0x40 MLOAD DUP1 SWAP2 SUB SWAP1 REVERT JUMPDEST PUSH0 PUSH1 0x2 PUSH0 DUP2 SLOAD DUP1 SWAP3 SWAP2 SWAP1 PUSH2 0x75B SWAP1 PUSH2 0x1382 JUMP JUMPDEST SWAP2 SWAP1 POP SSTORE SWAP1 POP PUSH1 0x40 MLOAD DUP1 PUSH1 0xA0 ADD PUSH1 0x40 MSTORE DUP1 DUP9 DUP2 MSTORE PUSH1 0x20 ADD DUP8 DUP2 MSTORE PUSH1 0x20 ADD DUP7 DUP2 MSTORE PUSH1 0x20 ADD TIMESTAMP DUP2 MSTORE PUSH1 0x20 ADD CALLER PUSH20 0xFFFFFFFFFFFFFFFFFFFFFFFFFFFFFFFFFFFFFFFF AND DUP2 MSTORE POP PUSH1 0x1 PUSH0 DUP4 DUP2 MSTORE PUSH1 0x20 ADD SWAP1 DUP2 MSTORE PUSH1 0x20 ADD PUSH0 KECCAK256 PUSH0 DUP3 ADD MLOAD DUP2 PUSH0 ADD SWAP1 DUP2 PUSH2 0x7C2 SWAP2 SWAP1 PUSH2 0x1566 JUMP JUMPDEST POP PUSH1 0x20 DUP3 ADD MLOAD DUP2 PUSH1 0x1 ADD SWAP1 DUP2 PUSH2 0x7D8 SWAP2 SWAP1 PUSH2 0x1566 JUMP JUMPDEST POP PUSH1 0x40 DUP3 ADD MLOAD DUP2 PUSH1 0x2 ADD SWAP1 DUP2 PUSH2 0x7EE SWAP2 SWAP1 PUSH2 0x1566 JUMP JUMPDEST POP PUSH1 0x60 DUP3 ADD MLOAD DUP2 PUSH1 0x3 ADD SSTORE PUSH1 0x80 DUP3 ADD MLOAD DUP2 PUSH1 0x4 ADD PUSH0 PUSH2 0x100 EXP DUP2 SLOAD DUP2 PUSH20 0xFFFFFFFFFFFFFFFFFFFFFFFFFFFFFFFFFFFFFFFF MUL NOT AND SWAP1 DUP4 PUSH20 0xFFFFFFFFFFFFFFFFFFFFFFFFFFFFFFFFFFFFFFFF AND MUL OR SWAP1 SSTORE POP SWAP1 POP POP CALLER PUSH20 0xFFFFFFFFFFFFFFFFFFFFFFFFFFFFFFFFFFFFFFFF AND DUP2 PUSH32 0xFD2E94F3CC8D3DBD181BDF7102BC402DD062739E4AF414A51A4C46533B6D0B1C DUP10 DUP10 DUP10 PUSH1 0x40 MLOAD PUSH2 0x88D SWAP4 SWAP3 SWAP2 SWAP1 PUSH2 0x1635 JUMP JUMPDEST PUSH1 0x40 MLOAD DUP1 SWAP2 SUB SWAP1 LOG3 POP POP POP POP POP POP POP JUMP JUMPDEST PUSH1 0x1 PUSH1 0x20 MSTORE DUP1 PUSH0 MSTORE PUSH1 0x40 PUSH0 KECCAK256 PUSH0 SWAP2 POP SWAP1 POP DUP1 PUSH0 ADD DUP1 SLOAD PUSH2 0x8BD SWAP1 PUSH2 0x11ED JUMP JUMPDEST DUP1 PUSH1 0x1F ADD PUSH1 0x20 DUP1 SWAP2 DIV MUL PUSH1 0x20 ADD PUSH1 0x40 MLOAD SWAP1 DUP2 ADD PUSH1 0x40 MSTORE DUP1 SWAP3 SWAP2 SWAP1 DUP2 DUP2 MSTORE PUSH1 0x20 ADD DUP3 DUP1 SLOAD PUSH2 0x8E9 SWAP1 PUSH2 0x11ED JUMP JUMPDEST DUP1 ISZERO PUSH2 0x934 JUMPI DUP1 PUSH1 0x1F LT PUSH2 0x90B JUMPI PUSH2 0x100 DUP1 DUP4 SLOAD DIV MUL DUP4 MSTORE SWAP2 PUSH1 0x20 ADD SWAP2 PUSH2 0x934 JUMP JUMPDEST DUP3 ADD SWAP2 SWAP1 PUSH0 MSTORE PUSH1 0x20 PUSH0 KECCAK256 SWAP1 JUMPDEST DUP2 SLOAD DUP2 MSTORE SWAP1 PUSH1 0x1 ADD SWAP1 PUSH1 0x20 ADD DUP1 DUP4 GT PUSH2 0x917 JUMPI DUP3 SWAP1 SUB PUSH1 0x1F AND DUP3 ADD SWAP2 JUMPDEST POP POP POP POP POP SWAP1 DUP1 PUSH1 0x1 ADD DUP1 SLOAD PUSH2 0x949 SWAP1 PUSH2 0x11ED JUMP JUMPDEST DUP1 PUSH1 0x1F ADD PUSH1 0x20 DUP1 SWAP2 DIV MUL PUSH1 0x20 ADD PUSH1 0x40 MLOAD SWAP1 DUP2 ADD PUSH1 0x40 MSTORE DUP1 SWAP3 SWAP2 SWAP1 DUP2 DUP2 MSTORE PUSH1 0x20 ADD DUP3 DUP1 SLOAD PUSH2 0x975 SWAP1 PUSH2 0x11ED JUMP JUMPDEST DUP1 ISZERO PUSH2 0x9C0 JUMPI DUP1 PUSH1 0x1F LT PUSH2 0x997 JUMPI PUSH2 0x100 DUP1 DUP4 SLOAD DIV MUL DUP4 MSTORE SWAP2 PUSH1 0x20 ADD SWAP2 PUSH2 0x9C0 JUMP JUMPDEST DUP3 ADD SWAP2 SWAP1 PUSH0 MSTORE PUSH1 0x20 PUSH0 KECCAK256 SWAP1 JUMPDEST DUP2 SLOAD DUP2 MSTORE SWAP1 PUSH1 0x1 ADD SWAP1 PUSH1 0x20 ADD DUP1 DUP4 GT PUSH2 0x9A3 JUMPI DUP3 SWAP1 SUB PUSH1 0x1F AND DUP3 ADD SWAP2 JUMPDEST POP POP POP POP POP SWAP1 DUP1 PUSH1 0x2 ADD DUP1 SLOAD PUSH2 0x9D5 SWAP1 PUSH2 0x11ED JUMP JUMPDEST DUP1 PUSH1 0x1F ADD PUSH1 0x20 DUP1 SWAP2 DIV MUL PUSH1 0x20 ADD PUSH1 0x40 MLOAD SWAP1 DUP2 ADD PUSH1 0x40 MSTORE DUP1 SWAP3 SWAP2 SWAP1 DUP2 DUP2 MSTORE PUSH1 0x20 ADD DUP3 DUP1 SLOAD PUSH2 0xA01 SWAP1 PUSH2 0x11ED JUMP JUMPDEST DUP1 ISZERO PUSH2 0xA4C JUMPI DUP1 PUSH1 0x1F LT PUSH2 0xA23 JUMPI PUSH2 0x100 DUP1 DUP4 SLOAD DIV MUL DUP4 MSTORE SWAP2 PUSH1 0x20 ADD SWAP2 PUSH2 0xA4C JUMP JUMPDEST DUP3 ADD SWAP2 SWAP1 PUSH0 MSTORE PUSH1 0x20 PUSH0 KECCAK256 SWAP1 JUMPDEST DUP2 SLOAD DUP2 MSTORE SWAP1 PUSH1 0x1 ADD SWAP1 PUSH1 0x20 ADD DUP1 DUP4 GT PUSH2 0xA2F JUMPI DUP3 SWAP1 SUB PUSH1 0x1F AND DUP3 ADD SWAP2 JUMPDEST POP POP POP POP POP SWAP1 DUP1 PUSH1 0x3 ADD SLOAD SWAP1 DUP1 PUSH1 0x4 ADD PUSH0 SWAP1 SLOAD SWAP1 PUSH2 0x100 EXP SWAP1 DIV PUSH20 0xFFFFFFFFFFFFFFFFFFFFFFFFFFFFFFFFFFFFFFFF AND SWAP1 POP DUP6 JUMP JUMPDEST PUSH1 0x2 SLOAD DUP2 JUMP JUMPDEST PUSH2 0xA8F PUSH2 0xBC7 JUMP JUMPDEST PUSH2 0xA98 PUSH0 PUSH2 0xC4E JUMP JUMPDEST JUMP JUMPDEST PUSH0 DUP1 PUSH0 SWAP1 SLOAD SWAP1 PUSH2 0x100 EXP SWAP1 DIV PUSH20 0xFFFFFFFFFFFFFFFFFFFFFFFFFFFFFFFFFFFFFFFF AND SWAP1 POP SWAP1 JUMP JUMPDEST PUSH2 0xAC9 PUSH2 0xBC7 JUMP JUMPDEST PUSH0 PUSH20 0xFFFFFFFFFFFFFFFFFFFFFFFFFFFFFFFFFFFFFFFF AND DUP2 PUSH20 0xFFFFFFFFFFFFFFFFFFFFFFFFFFFFFFFFFFFFFFFF AND SUB PUSH2 0xB37 JUMPI PUSH1 0x40 MLOAD PUSH32 0x8C379A000000000000000000000000000000000000000000000000000000000 DUP2 MSTORE PUSH1 0x4 ADD PUSH2 0xB2E SWAP1 PUSH2 0x16C9 JUMP JUMPDEST PUSH1 0x40 MLOAD DUP1 SWAP2 SUB SWAP1 REVERT JUMPDEST PUSH2 0xB40 DUP2 PUSH2 0xB43 JUMP JUMPDEST POP JUMP JUMPDEST PUSH2 0xB4B PUSH2 0xBC7 JUMP JUMPDEST PUSH0 PUSH20 0xFFFFFFFFFFFFFFFFFFFFFFFFFFFFFFFFFFFFFFFF AND DUP2 PUSH20 0xFFFFFFFFFFFFFFFFFFFFFFFFFFFFFFFFFFFFFFFF AND SUB PUSH2 0xBBB JUMPI PUSH0 PUSH1 0x40 MLOAD PUSH32 0x1E4FBDF700000000000000000000000000000000000000000000000000000000 DUP2 MSTORE PUSH1 0x4 ADD PUSH2 0xBB2 SWAP2 SWAP1 PUSH2 0x1114 JUMP JUMPDEST PUSH1 0x40 MLOAD DUP1 SWAP2 SUB SWAP1 REVERT JUMPDEST PUSH2 0xBC4 DUP2 PUSH2 0xC4E JUMP JUMPDEST POP JUMP JUMPDEST PUSH2 0xBCF PUSH2 0xD0F JUMP JUMPDEST PUSH20 0xFFFFFFFFFFFFFFFFFFFFFFFFFFFFFFFFFFFFFFFF AND PUSH2 0xBED PUSH2 0xA9A JUMP JUMPDEST PUSH20 0xFFFFFFFFFFFFFFFFFFFFFFFFFFFFFFFFFFFFFFFF AND EQ PUSH2 0xC4C JUMPI PUSH2 0xC10 PUSH2 0xD0F JUMP JUMPDEST PUSH1 0x40 MLOAD PUSH32 0x118CDAA700000000000000000000000000000000000000000000000000000000 DUP2 MSTORE PUSH1 0x4 ADD PUSH2 0xC43 SWAP2 SWAP1 PUSH2 0x1114 JUMP JUMPDEST PUSH1 0x40 MLOAD DUP1 SWAP2 SUB SWAP1 REVERT JUMPDEST JUMP JUMPDEST PUSH0 DUP1 PUSH0 SWAP1 SLOAD SWAP1 PUSH2 0x100 EXP SWAP1 DIV PUSH20 0xFFFFFFFFFFFFFFFFFFFFFFFFFFFFFFFFFFFFFFFF AND SWAP1 POP DUP2 PUSH0 DUP1 PUSH2 0x100 EXP DUP2 SLOAD DUP2 PUSH20 0xFFFFFFFFFFFFFFFFFFFFFFFFFFFFFFFFFFFFFFFF MUL NOT AND SWAP1 DUP4 PUSH20 0xFFFFFFFFFFFFFFFFFFFFFFFFFFFFFFFFFFFFFFFF AND MUL OR SWAP1 SSTORE POP DUP2 PUSH20 0xFFFFFFFFFFFFFFFFFFFFFFFFFFFFFFFFFFFFFFFF AND DUP2 PUSH20 0xFFFFFFFFFFFFFFFFFFFFFFFFFFFFFFFFFFFFFFFF AND PUSH32 0x8BE0079C531659141344CD1FD0A4F28419497F9722A3DAAFE3B4186F6B6457E0 PUSH1 0x40 MLOAD PUSH1 0x40 MLOAD DUP1 SWAP2 SUB SWAP1 LOG3 POP POP JUMP JUMPDEST PUSH0 CALLER SWAP1 POP SWAP1 JUMP JUMPDEST PUSH0 PUSH1 0x40 MLOAD SWAP1 POP SWAP1 JUMP JUMPDEST PUSH0 DUP1 REVERT JUMPDEST PUSH0 DUP1 REVERT JUMPDEST PUSH0 DUP2 SWAP1 POP SWAP2 SWAP1 POP JUMP JUMPDEST PUSH2 0xD39 DUP2 PUSH2 0xD27 JUMP JUMPDEST DUP2 EQ PUSH2 0xD43 JUMPI PUSH0 DUP1 REVERT JUMPDEST POP JUMP JUMPDEST PUSH0 DUP2 CALLDATALOAD SWAP1 POP PUSH2 0xD54 DUP2 PUSH2 0xD30 JUMP JUMPDEST SWAP3 SWAP2 POP POP JUMP JUMPDEST PUSH0 PUSH1 0x20 DUP3 DUP5 SUB SLT ISZERO PUSH2 0xD6F JUMPI PUSH2 0xD6E PUSH2 0xD1F JUMP JUMPDEST JUMPDEST PUSH0 PUSH2 0xD7C DUP5 DUP3 DUP6 ADD PUSH2 0xD46 JUMP JUMPDEST SWAP2 POP POP SWAP3 SWAP2 POP POP JUMP JUMPDEST PUSH0 DUP2 MLOAD SWAP1 POP SWAP2 SWAP1 POP JUMP JUMPDEST PUSH0 DUP3 DUP3 MSTORE PUSH1 0x20 DUP3 ADD SWAP1 POP SWAP3 SWAP2 POP POP JUMP JUMPDEST PUSH0 JUMPDEST DUP4 DUP2 LT ISZERO PUSH2 0xDBC JUMPI DUP1 DUP3 ADD MLOAD DUP2 DUP5 ADD MSTORE PUSH1 0x20 DUP2 ADD SWAP1 POP PUSH2 0xDA1 JUMP JUMPDEST PUSH0 DUP5 DUP5 ADD MSTORE POP POP POP POP JUMP JUMPDEST PUSH0 PUSH1 0x1F NOT PUSH1 0x1F DUP4 ADD AND SWAP1 POP SWAP2 SWAP1 POP JUMP JUMPDEST PUSH0 PUSH2 0xDE1 DUP3 PUSH2 0xD85 JUMP JUMPDEST PUSH2 0xDEB DUP2 DUP6 PUSH2 0xD8F JUMP JUMPDEST SWAP4 POP PUSH2 0xDFB DUP2 DUP6 PUSH1 0x20 DUP7 ADD PUSH2 0xD9F JUMP JUMPDEST PUSH2 0xE04 DUP2 PUSH2 0xDC7 JUMP JUMPDEST DUP5 ADD SWAP2 POP POP SWAP3 SWAP2 POP POP JUMP JUMPDEST PUSH2 0xE18 DUP2 PUSH2 0xD27 JUMP JUMPDEST DUP3 MSTORE POP POP JUMP JUMPDEST PUSH0 PUSH20 0xFFFFFFFFFFFFFFFFFFFFFFFFFFFFFFFFFFFFFFFF DUP3 AND SWAP1 POP SWAP2 SWAP1 POP JUMP JUMPDEST PUSH0 PUSH2 0xE47 DUP3 PUSH2 0xE1E JUMP JUMPDEST SWAP1 POP SWAP2 SWAP1 POP JUMP JUMPDEST PUSH2 0xE57 DUP2 PUSH2 0xE3D JUMP JUMPDEST DUP3 MSTORE POP POP JUMP JUMPDEST PUSH0 PUSH1 0xA0 DUP3 ADD SWAP1 POP DUP2 DUP2 SUB PUSH0 DUP4 ADD MSTORE PUSH2 0xE75 DUP2 DUP9 PUSH2 0xDD7 JUMP JUMPDEST SWAP1 POP DUP2 DUP2 SUB PUSH1 0x20 DUP4 ADD MSTORE PUSH2 0xE89 DUP2 DUP8 PUSH2 0xDD7 JUMP JUMPDEST SWAP1 POP DUP2 DUP2 SUB PUSH1 0x40 DUP4 ADD MSTORE PUSH2 0xE9D DUP2 DUP7 PUSH2 0xDD7 JUMP JUMPDEST SWAP1 POP PUSH2 0xEAC PUSH1 0x60 DUP4 ADD DUP6 PUSH2 0xE0F JUMP JUMPDEST PUSH2 0xEB9 PUSH1 0x80 DUP4 ADD DUP5 PUSH2 0xE4E JUMP JUMPDEST SWAP7 SWAP6 POP POP POP POP POP POP JUMP JUMPDEST PUSH2 0xECC DUP2 PUSH2 0xE3D JUMP JUMPDEST DUP2 EQ PUSH2 0xED6 JUMPI PUSH0 DUP1 REVERT JUMPDEST POP JUMP JUMPDEST PUSH0 DUP2 CALLDATALOAD SWAP1 POP PUSH2 0xEE7 DUP2 PUSH2 0xEC3 JUMP JUMPDEST SWAP3 SWAP2 POP POP JUMP JUMPDEST PUSH0 DUP1 PUSH1 0x40 DUP4 DUP6 SUB SLT ISZERO PUSH2 0xF03 JUMPI PUSH2 0xF02 PUSH2 0xD1F JUMP JUMPDEST JUMPDEST PUSH0 PUSH2 0xF10 DUP6 DUP3 DUP7 ADD PUSH2 0xD46 JUMP JUMPDEST SWAP3 POP POP PUSH1 0x20 PUSH2 0xF21 DUP6 DUP3 DUP7 ADD PUSH2 0xED9 JUMP JUMPDEST SWAP2 POP POP SWAP3 POP SWAP3 SWAP1 POP JUMP JUMPDEST PUSH0 DUP1 REVERT JUMPDEST PUSH0 DUP1 REVERT JUMPDEST PUSH32 0x4E487B7100000000000000000000000000000000000000000000000000000000 PUSH0 MSTORE PUSH1 0x41 PUSH1 0x4 MSTORE PUSH1 0x24 PUSH0 REVERT JUMPDEST PUSH2 0xF69 DUP3 PUSH2 0xDC7 JUMP JUMPDEST DUP2 ADD DUP2 DUP2 LT PUSH8 0xFFFFFFFFFFFFFFFF DUP3 GT OR ISZERO PUSH2 0xF88 JUMPI PUSH2 0xF87 PUSH2 0xF33 JUMP JUMPDEST JUMPDEST DUP1 PUSH1 0x40 MSTORE POP POP POP JUMP JUMPDEST PUSH0 PUSH2 0xF9A PUSH2 0xD16 JUMP JUMPDEST SWAP1 POP PUSH2 0xFA6 DUP3 DUP3 PUSH2 0xF60 JUMP JUMPDEST SWAP2 SWAP1 POP JUMP JUMPDEST PUSH0 PUSH8 0xFFFFFFFFFFFFFFFF DUP3 GT ISZERO PUSH2 0xFC5 JUMPI PUSH2 0xFC4 PUSH2 0xF33 JUMP JUMPDEST JUMPDEST PUSH2 0xFCE DUP3 PUSH2 0xDC7 JUMP JUMPDEST SWAP1 POP PUSH1 0x20 DUP2 ADD SWAP1 POP SWAP2 SWAP1 POP JUMP JUMPDEST DUP3 DUP2 DUP4 CALLDATACOPY PUSH0 DUP4 DUP4 ADD MSTORE POP POP POP JUMP JUMPDEST PUSH0 PUSH2 0xFFB PUSH2 0xFF6 DUP5 PUSH2 0xFAB JUMP JUMPDEST PUSH2 0xF91 JUMP JUMPDEST SWAP1 POP DUP3 DUP2 MSTORE PUSH1 0x20 DUP2 ADD DUP5 DUP5 DUP5 ADD GT ISZERO PUSH2 0x1017 JUMPI PUSH2 0x1016 PUSH2 0xF2F JUMP JUMPDEST JUMPDEST PUSH2 0x1022 DUP5 DUP3 DUP6 PUSH2 0xFDB JUMP JUMPDEST POP SWAP4 SWAP3 POP POP POP JUMP JUMPDEST PUSH0 DUP3 PUSH1 0x1F DUP4 ADD SLT PUSH2 0x103E JUMPI PUSH2 0x103D PUSH2 0xF2B JUMP JUMPDEST JUMPDEST DUP2 CALLDATALOAD PUSH2 0x104E DUP5 DUP3 PUSH1 0x20 DUP7 ADD PUSH2 0xFE9 JUMP JUMPDEST SWAP2 POP POP SWAP3 SWAP2 POP POP JUMP JUMPDEST PUSH0 DUP1 PUSH0 PUSH1 0x60 DUP5 DUP7 SUB SLT ISZERO PUSH2 0x106E JUMPI PUSH2 0x106D PUSH2 0xD1F JUMP JUMPDEST JUMPDEST PUSH0 DUP5 ADD CALLDATALOAD PUSH8 0xFFFFFFFFFFFFFFFF DUP2 GT ISZERO PUSH2 0x108B JUMPI PUSH2 0x108A PUSH2 0xD23 JUMP JUMPDEST JUMPDEST PUSH2 0x1097 DUP7 DUP3 DUP8 ADD PUSH2 0x102A JUMP JUMPDEST SWAP4 POP POP PUSH1 0x20 DUP5 ADD CALLDATALOAD PUSH8 0xFFFFFFFFFFFFFFFF DUP2 GT ISZERO PUSH2 0x10B8 JUMPI PUSH2 0x10B7 PUSH2 0xD23 JUMP JUMPDEST JUMPDEST PUSH2 0x10C4 DUP7 DUP3 DUP8 ADD PUSH2 0x102A JUMP JUMPDEST SWAP3 POP POP PUSH1 0x40 DUP5 ADD CALLDATALOAD PUSH8 0xFFFFFFFFFFFFFFFF DUP2 GT ISZERO PUSH2 0x10E5 JUMPI PUSH2 0x10E4 PUSH2 0xD23 JUMP JUMPDEST JUMPDEST PUSH2 0x10F1 DUP7 DUP3 DUP8 ADD PUSH2 0x102A JUMP JUMPDEST SWAP2 POP POP SWAP3 POP SWAP3 POP SWAP3 JUMP JUMPDEST PUSH0 PUSH1 0x20 DUP3 ADD SWAP1 POP PUSH2 0x110E PUSH0 DUP4 ADD DUP5 PUSH2 0xE0F JUMP JUMPDEST SWAP3 SWAP2 POP POP JUMP JUMPDEST PUSH0 PUSH1 0x20 DUP3 ADD SWAP1 POP PUSH2 0x1127 PUSH0 DUP4 ADD DUP5 PUSH2 0xE4E JUMP JUMPDEST SWAP3 SWAP2 POP POP JUMP JUMPDEST PUSH0 PUSH1 0x20 DUP3 DUP5 SUB SLT ISZERO PUSH2 0x1142 JUMPI PUSH2 0x1141 PUSH2 0xD1F JUMP JUMPDEST JUMPDEST PUSH0 PUSH2 0x114F DUP5 DUP3 DUP6 ADD PUSH2 0xED9 JUMP JUMPDEST SWAP2 POP POP SWAP3 SWAP2 POP POP JUMP JUMPDEST PUSH32 0x417274776F726B20646F6573206E6F7420657869737400000000000000000000 PUSH0 DUP3 ADD MSTORE POP JUMP JUMPDEST PUSH0 PUSH2 0x118C PUSH1 0x16 DUP4 PUSH2 0xD8F JUMP JUMPDEST SWAP2 POP PUSH2 0x1197 DUP3 PUSH2 0x1158 JUMP JUMPDEST PUSH1 0x20 DUP3 ADD SWAP1 POP SWAP2 SWAP1 POP JUMP JUMPDEST PUSH0 PUSH1 0x20 DUP3 ADD SWAP1 POP DUP2 DUP2 SUB PUSH0 DUP4 ADD MSTORE PUSH2 0x11B9 DUP2 PUSH2 0x1180 JUMP JUMPDEST SWAP1 POP SWAP2 SWAP1 POP JUMP JUMPDEST PUSH32 0x4E487B7100000000000000000000000000000000000000000000000000000000 PUSH0 MSTORE PUSH1 0x22 PUSH1 0x4 MSTORE PUSH1 0x24 PUSH0 REVERT JUMPDEST PUSH0 PUSH1 0x2 DUP3 DIV SWAP1 POP PUSH1 0x1 DUP3 AND DUP1 PUSH2 0x1204 JUMPI PUSH1 0x7F DUP3 AND SWAP2 POP JUMPDEST PUSH1 0x20 DUP3 LT DUP2 SUB PUSH2 0x1217 JUMPI PUSH2 0x1216 PUSH2 0x11C0 JUMP JUMPDEST JUMPDEST POP SWAP2 SWAP1 POP JUMP JUMPDEST PUSH32 0x496E76616C696420616464726573730000000000000000000000000000000000 PUSH0 DUP3 ADD MSTORE POP JUMP JUMPDEST PUSH0 PUSH2 0x1251 PUSH1 0xF DUP4 PUSH2 0xD8F JUMP JUMPDEST SWAP2 POP PUSH2 0x125C DUP3 PUSH2 0x121D JUMP JUMPDEST PUSH1 0x20 DUP3 ADD SWAP1 POP SWAP2 SWAP1 POP JUMP JUMPDEST PUSH0 PUSH1 0x20 DUP3 ADD SWAP1 POP DUP2 DUP2 SUB PUSH0 DUP4 ADD MSTORE PUSH2 0x127E DUP2 PUSH2 0x1245 JUMP JUMPDEST SWAP1 POP SWAP2 SWAP1 POP JUMP JUMPDEST PUSH32 0x43616C6C6572206973206E6F7420746865206F776E6572000000000000000000 PUSH0 DUP3 ADD MSTORE POP JUMP JUMPDEST PUSH0 PUSH2 0x12B9 PUSH1 0x17 DUP4 PUSH2 0xD8F JUMP JUMPDEST SWAP2 POP PUSH2 0x12C4 DUP3 PUSH2 0x1285 JUMP JUMPDEST PUSH1 0x20 DUP3 ADD SWAP1 POP SWAP2 SWAP1 POP JUMP JUMPDEST PUSH0 PUSH1 0x20 DUP3 ADD SWAP1 POP DUP2 DUP2 SUB PUSH0 DUP4 ADD MSTORE PUSH2 0x12E6 DUP2 PUSH2 0x12AD JUMP JUMPDEST SWAP1 POP SWAP2 SWAP1 POP JUMP JUMPDEST PUSH32 0x496E76616C696420696E70757400000000000000000000000000000000000000 PUSH0 DUP3 ADD MSTORE POP JUMP JUMPDEST PUSH0 PUSH2 0x1321 PUSH1 0xD DUP4 PUSH2 0xD8F JUMP JUMPDEST SWAP2 POP PUSH2 0x132C DUP3 PUSH2 0x12ED JUMP JUMPDEST PUSH1 0x20 DUP3 ADD SWAP1 POP SWAP2 SWAP1 POP JUMP JUMPDEST PUSH0 PUSH1 0x20 DUP3 ADD SWAP1 POP DUP2 DUP2 SUB PUSH0 DUP4 ADD MSTORE PUSH2 0x134E DUP2 PUSH2 0x1315 JUMP JUMPDEST SWAP1 POP SWAP2 SWAP1 POP JUMP JUMPDEST PUSH32 0x4E487B7100000000000000000000000000000000000000000000000000000000 PUSH0 MSTORE PUSH1 0x11 PUSH1 0x4 MSTORE PUSH1 0x24 PUSH0 REVERT JUMPDEST PUSH0 PUSH2 0x138C DUP3 PUSH2 0xD27 JUMP JUMPDEST SWAP2 POP PUSH32 0xFFFFFFFFFFFFFFFFFFFFFFFFFFFFFFFFFFFFFFFFFFFFFFFFFFFFFFFFFFFFFFFF DUP3 SUB PUSH2 0x13BE JUMPI PUSH2 0x13BD PUSH2 0x1355 JUMP JUMPDEST JUMPDEST PUSH1 0x1 DUP3 ADD SWAP1 POP SWAP2 SWAP1 POP JUMP JUMPDEST PUSH0 DUP2 SWAP1 POP DUP2 PUSH0 MSTORE PUSH1 0x20 PUSH0 KECCAK256 SWAP1 POP SWAP2 SWAP1 POP JUMP JUMPDEST PUSH0 PUSH1 0x20 PUSH1 0x1F DUP4 ADD DIV SWAP1 POP SWAP2 SWAP1 POP JUMP JUMPDEST PUSH0 DUP3 DUP3 SHL SWAP1 POP SWAP3 SWAP2 POP POP JUMP JUMPDEST PUSH0 PUSH1 0x8 DUP4 MUL PUSH2 0x1425 PUSH32 0xFFFFFFFFFFFFFFFFFFFFFFFFFFFFFFFFFFFFFFFFFFFFFFFFFFFFFFFFFFFFFFFF DUP3 PUSH2 0x13EA JUMP JUMPDEST PUSH2 0x142F DUP7 DUP4 PUSH2 0x13EA JUMP JUMPDEST SWAP6 POP DUP1 NOT DUP5 AND SWAP4 POP DUP1 DUP7 AND DUP5 OR SWAP3 POP POP POP SWAP4 SWAP3 POP POP POP JUMP JUMPDEST PUSH0 DUP2 SWAP1 POP SWAP2 SWAP1 POP JUMP JUMPDEST PUSH0 PUSH2 0x146A PUSH2 0x1465 PUSH2 0x1460 DUP5 PUSH2 0xD27 JUMP JUMPDEST PUSH2 0x1447 JUMP JUMPDEST PUSH2 0xD27 JUMP JUMPDEST SWAP1 POP SWAP2 SWAP1 POP JUMP JUMPDEST PUSH0 DUP2 SWAP1 POP SWAP2 SWAP1 POP JUMP JUMPDEST PUSH2 0x1483 DUP4 PUSH2 0x1450 JUMP JUMPDEST PUSH2 0x1497 PUSH2 0x148F DUP3 PUSH2 0x1471 JUMP JUMPDEST DUP5 DUP5 SLOAD PUSH2 0x13F6 JUMP JUMPDEST DUP3 SSTORE POP POP POP POP JUMP JUMPDEST PUSH0 SWAP1 JUMP JUMPDEST PUSH2 0x14AB PUSH2 0x149F JUMP JUMPDEST PUSH2 0x14B6 DUP2 DUP5 DUP5 PUSH2 0x147A JUMP JUMPDEST POP POP POP JUMP JUMPDEST JUMPDEST DUP2 DUP2 LT ISZERO PUSH2 0x14D9 JUMPI PUSH2 0x14CE PUSH0 DUP3 PUSH2 0x14A3 JUMP JUMPDEST PUSH1 0x1 DUP2 ADD SWAP1 POP PUSH2 0x14BC JUMP JUMPDEST POP POP JUMP JUMPDEST PUSH1 0x1F DUP3 GT ISZERO PUSH2 0x151E JUMPI PUSH2 0x14EF DUP2 PUSH2 0x13C9 JUMP JUMPDEST PUSH2 0x14F8 DUP5 PUSH2 0x13DB JUMP JUMPDEST DUP2 ADD PUSH1 0x20 DUP6 LT ISZERO PUSH2 0x1507 JUMPI DUP2 SWAP1 POP JUMPDEST PUSH2 0x151B PUSH2 0x1513 DUP6 PUSH2 0x13DB JUMP JUMPDEST DUP4 ADD DUP3 PUSH2 0x14BB JUMP JUMPDEST POP POP JUMPDEST POP POP POP JUMP JUMPDEST PUSH0 DUP3 DUP3 SHR SWAP1 POP SWAP3 SWAP2 POP POP JUMP JUMPDEST PUSH0 PUSH2 0x153E PUSH0 NOT DUP5 PUSH1 0x8 MUL PUSH2 0x1523 JUMP JUMPDEST NOT DUP1 DUP4 AND SWAP2 POP POP SWAP3 SWAP2 POP POP JUMP JUMPDEST PUSH0 PUSH2 0x1556 DUP4 DUP4 PUSH2 0x152F JUMP JUMPDEST SWAP2 POP DUP3 PUSH1 0x2 MUL DUP3 OR SWAP1 POP SWAP3 SWAP2 POP POP JUMP JUMPDEST PUSH2 0x156F DUP3 PUSH2 0xD85 JUMP JUMPDEST PUSH8 0xFFFFFFFFFFFFFFFF DUP2 GT ISZERO PUSH2 0x1588 JUMPI PUSH2 0x1587 PUSH2 0xF33 JUMP JUMPDEST JUMPDEST PUSH2 0x1592 DUP3 SLOAD PUSH2 0x11ED JUMP JUMPDEST PUSH2 0x159D DUP3 DUP3 DUP6 PUSH2 0x14DD JUMP JUMPDEST PUSH0 PUSH1 0x20 SWAP1 POP PUSH1 0x1F DUP4 GT PUSH1 0x1 DUP2 EQ PUSH2 0x15CE JUMPI PUSH0 DUP5 ISZERO PUSH2 0x15BC JUMPI DUP3 DUP8 ADD MLOAD SWAP1 POP JUMPDEST PUSH2 0x15C6 DUP6 DUP3 PUSH2 0x154B JUMP JUMPDEST DUP7 SSTORE POP PUSH2 0x162D JUMP JUMPDEST PUSH1 0x1F NOT DUP5 AND PUSH2 0x15DC DUP7 PUSH2 0x13C9 JUMP JUMPDEST PUSH0 JUMPDEST DUP3 DUP2 LT ISZERO PUSH2 0x1603 JUMPI DUP5 DUP10 ADD MLOAD DUP3 SSTORE PUSH1 0x1 DUP3 ADD SWAP2 POP PUSH1 0x20 DUP6 ADD SWAP5 POP PUSH1 0x20 DUP2 ADD SWAP1 POP PUSH2 0x15DE JUMP JUMPDEST DUP7 DUP4 LT ISZERO PUSH2 0x1620 JUMPI DUP5 DUP10 ADD MLOAD PUSH2 0x161C PUSH1 0x1F DUP10 AND DUP3 PUSH2 0x152F JUMP JUMPDEST DUP4 SSTORE POP JUMPDEST PUSH1 0x1 PUSH1 0x2 DUP9 MUL ADD DUP9 SSTORE POP POP POP JUMPDEST POP POP POP POP POP POP JUMP JUMPDEST PUSH0 PUSH1 0x60 DUP3 ADD SWAP1 POP DUP2 DUP2 SUB PUSH0 DUP4 ADD MSTORE PUSH2 0x164D DUP2 DUP7 PUSH2 0xDD7 JUMP JUMPDEST SWAP1 POP DUP2 DUP2 SUB PUSH1 0x20 DUP4 ADD MSTORE PUSH2 0x1661 DUP2 DUP6 PUSH2 0xDD7 JUMP JUMPDEST SWAP1 POP DUP2 DUP2 SUB PUSH1 0x40 DUP4 ADD MSTORE PUSH2 0x1675 DUP2 DUP5 PUSH2 0xDD7 JUMP JUMPDEST SWAP1 POP SWAP5 SWAP4 POP POP POP POP JUMP JUMPDEST PUSH32 0x496E76616C6964206164647265737320666F72206E6577206F776E6572000000 PUSH0 DUP3 ADD MSTORE POP JUMP JUMPDEST PUSH0 PUSH2 0x16B3 PUSH1 0x1D DUP4 PUSH2 0xD8F JUMP JUMPDEST SWAP2 POP PUSH2 0x16BE DUP3 PUSH2 0x167F JUMP JUMPDEST PUSH1 0x20 DUP3 ADD SWAP1 POP SWAP2 SWAP1 POP JUMP JUMPDEST PUSH0 PUSH1 0x20 DUP3 ADD SWAP1 POP DUP2 DUP2 SUB PUSH0 DUP4 ADD MSTORE PUSH2 0x16E0 DUP2 PUSH2 0x16A7 JUMP JUMPDEST SWAP1 POP SWAP2 SWAP1 POP JUMP INVALID LOG2 PUSH5 0x6970667358 0x22 SLT KECCAK256 PUSH31 0x3304D5B1E42651C51AA9F10204E4E657A05959620E16033A5A113319B74345 PUSH5 0x736F6C6343 STOP ADDMOD AND STOP CALLER "
		},
		"gasEstimates": {
			"creation": {
				"codeDepositCost": "1183400",
				"executionCost": "infinite",
				"totalCost": "infinite"
			},
			"external": {
				"artworks(uint256)": "infinite",
				"getArtwork(uint256)": "infinite",
				"nextId()": "2425",
				"owner()": "2559",
				"registerArtwork(string,string,string)": "infinite",
				"renounceOwnership()": "infinite",
				"transferContractOwnership(address)": "infinite",
				"transferOwnership(address)": "infinite",
				"transferOwnership(uint256,address)": "33416"
			}
		},
		"methodIdentifiers": {
			"artworks(uint256)": "4b602673",
			"getArtwork(uint256)": "167ddf6e",
			"nextId()": "61b8ce8c",
			"owner()": "8da5cb5b",
			"registerArtwork(string,string,string)": "3264dc8e",
			"renounceOwnership()": "715018a6",
			"transferContractOwnership(address)": "a843c51f",
			"transferOwnership(address)": "f2fde38b",
			"transferOwnership(uint256,address)": "29507f73"
		}
	},
	"abi": [
		{
			"inputs": [],
			"stateMutability": "nonpayable",
			"type": "constructor"
		},
		{
			"inputs": [
				{
					"internalType": "address",
					"name": "owner",
					"type": "address"
				}
			],
			"name": "OwnableInvalidOwner",
			"type": "error"
		},
		{
			"inputs": [
				{
					"internalType": "address",
					"name": "account",
					"type": "address"
				}
			],
			"name": "OwnableUnauthorizedAccount",
			"type": "error"
		},
		{
			"anonymous": false,
			"inputs": [
				{
					"indexed": true,
					"internalType": "uint256",
					"name": "id",
					"type": "uint256"
				},
				{
					"indexed": false,
					"internalType": "string",
					"name": "title",
					"type": "string"
				},
				{
					"indexed": false,
					"internalType": "string",
					"name": "description",
					"type": "string"
				},
				{
					"indexed": false,
					"internalType": "string",
					"name": "creator",
					"type": "string"
				},
				{
					"indexed": true,
					"internalType": "address",
					"name": "owner",
					"type": "address"
				}
			],
			"name": "ArtworkRegistered",
			"type": "event"
		},
		{
			"anonymous": false,
			"inputs": [
				{
					"indexed": true,
					"internalType": "uint256",
					"name": "id",
					"type": "uint256"
				},
				{
					"indexed": true,
					"internalType": "address",
					"name": "previousOwner",
					"type": "address"
				},
				{
					"indexed": true,
					"internalType": "address",
					"name": "newOwner",
					"type": "address"
				}
			],
			"name": "OwnershipTransferred",
			"type": "event"
		},
		{
			"anonymous": false,
			"inputs": [
				{
					"indexed": true,
					"internalType": "address",
					"name": "previousOwner",
					"type": "address"
				},
				{
					"indexed": true,
					"internalType": "address",
					"name": "newOwner",
					"type": "address"
				}
			],
			"name": "OwnershipTransferred",
			"type": "event"
		},
		{
			"inputs": [
				{
					"internalType": "uint256",
					"name": "",
					"type": "uint256"
				}
			],
			"name": "artworks",
			"outputs": [
				{
					"internalType": "string",
					"name": "title",
					"type": "string"
				},
				{
					"internalType": "string",
					"name": "description",
					"type": "string"
				},
				{
					"internalType": "string",
					"name": "creator",
					"type": "string"
				},
				{
					"internalType": "uint256",
					"name": "timestamp",
					"type": "uint256"
				},
				{
					"internalType": "address",
					"name": "owner",
					"type": "address"
				}
			],
			"stateMutability": "view",
			"type": "function"
		},
		{
			"inputs": [
				{
					"internalType": "uint256",
					"name": "_id",
					"type": "uint256"
				}
			],
			"name": "getArtwork",
			"outputs": [
				{
					"internalType": "string",
					"name": "title",
					"type": "string"
				},
				{
					"internalType": "string",
					"name": "description",
					"type": "string"
				},
				{
					"internalType": "string",
					"name": "creator",
					"type": "string"
				},
				{
					"internalType": "uint256",
					"name": "timestamp",
					"type": "uint256"
				},
				{
					"internalType": "address",
					"name": "owner",
					"type": "address"
				}
			],
			"stateMutability": "view",
			"type": "function"
		},
		{
			"inputs": [],
			"name": "nextId",
			"outputs": [
				{
					"internalType": "uint256",
					"name": "",
					"type": "uint256"
				}
			],
			"stateMutability": "view",
			"type": "function"
		},
		{
			"inputs": [],
			"name": "owner",
			"outputs": [
				{
					"internalType": "address",
					"name": "",
					"type": "address"
				}
			],
			"stateMutability": "view",
			"type": "function"
		},
		{
			"inputs": [
				{
					"internalType": "string",
					"name": "_title",
					"type": "string"
				},
				{
					"internalType": "string",
					"name": "_description",
					"type": "string"
				},
				{
					"internalType": "string",
					"name": "_creator",
					"type": "string"
				}
			],
			"name": "registerArtwork",
			"outputs": [],
			"stateMutability": "nonpayable",
			"type": "function"
		},
		{
			"inputs": [],
			"name": "renounceOwnership",
			"outputs": [],
			"stateMutability": "nonpayable",
			"type": "function"
		},
		{
			"inputs": [
				{
					"internalType": "address",
					"name": "newOwner",
					"type": "address"
				}
			],
			"name": "transferContractOwnership",
			"outputs": [],
			"stateMutability": "nonpayable",
			"type": "function"
		},
		{
			"inputs": [
				{
					"internalType": "uint256",
					"name": "_id",
					"type": "uint256"
				},
				{
					"internalType": "address",
					"name": "_newOwner",
					"type": "address"
				}
			],
			"name": "transferOwnership",
			"outputs": [],
			"stateMutability": "nonpayable",
			"type": "function"
		},
		{
			"inputs": [
				{
					"internalType": "address",
					"name": "newOwner",
					"type": "address"
				}
			],
			"name": "transferOwnership",
			"outputs": [],
			"stateMutability": "nonpayable",
			"type": "function"
		}
	]
}